:020000040800F2
:1000000000400020212B00087D1300087F1300080A
:100010008113000883130008851300080000000006
:10002000000000000000000000000000871300082E
:100030000000000000000000891300088B13000876
:10004000692B0008692B0008692B0008692B000840
:10005000692B0008692B000879100008C1100008FE
:1000600019110008692B0008692B0008692B00088A
:10007000692B0008692B0008692B0008692B000810
:10008000692B0008692B0008692B0008692B000800
:10009000692B0008692B0008692B0008692B0008F0
:1000A000692B0008692B0008692B0008692B0008E0
:1000B000692B0008692B0008692B0008692B0008D0
:1000C000692B0008692B00088D130008692B0008B4
:0400D000692B000890
:1000D8000348044B834202D0034B03B118477047CF
:1000E80030040020300400200000000005480649C4
:1000F8000B1AD90F01EBA301491002D0034B03B12E
:100108001847704730040020300400200000000029
:1001180010B5064C237843B9FFF7DAFF044B13B147
:100128000448AFF300800123237010BD3004002081
:1001380000000000802B000808B5044B1BB10449DF
:100148000448AFF30080BDE80840CFE70000000096
:1001580034040020802B000881F0004102E000BF39
:1001680083F0004330B54FEA41044FEA430594EA6F
:10017800050F08BF90EA020F1FBF54EA000C55EAAA
:10018800020C7FEA645C7FEA655C00F0E2804FEA7B
:100198005454D4EB5555B8BF6D420CDD2C4480EA5D
:1001A800020281EA030382EA000083EA010180EA8D
:1001B800020281EA0303362D88BF30BD11F0004FDB
:1001C8004FEA01314FF4801C4CEA113102D0404211
:1001D80061EB410113F0004F4FEA03334CEA13334C
:1001E80002D0524263EB430394EA050F00F0A78064
:1001F800A4F10104D5F1200E0DDB02FA0EFC22FA5F
:1002080005F2801841F1000103FA0EF2801843FA52
:1002180005F359410EE0A5F120050EF1200E012A43
:1002280003FA0EFC28BF4CF0020C43FA05F3C01881
:1002380051EBE37101F0004507D54FF0000EDCF1FA
:10024800000C7EEB00006EEB0101B1F5801F1BD3A3
:10025800B1F5001F0CD349085FEA30004FEA3C0CA7
:1002680004F101044FEA445212F5800F80F09A809D
:10027800BCF1004F08BF5FEA500C50F1000041EBA1
:10028800045141EA050130BD5FEA4C0C404141EBA5
:100298000101013C28BFB1F5801FE9D291F0000FA0
:1002A80004BF01460020B1FA81F308BF2033A3F14F
:1002B8000B03B3F120020CDA0C3208DD02F1140C46
:1002C800C2F10C0201FA0CF021FA02F10CE002F181
:1002D8001402D8BFC2F1200C01FA02F120FA0CFC7A
:1002E800DCBF41EA0C019040E41AA2BF01EB0451C3
:1002F800294330BD6FEA04041F3C1CDA0C340EDCC1
:1003080004F11404C4F1200220FA04F001FA02F303
:1003180040EA030021FA04F345EA030130BDC4F1C1
:100328000C04C4F1200220FA02F001FA04F340EAB6
:100338000300294630BD21FA04F0294630BD94F067
:10034800000F83F4801306BF81F480110134013D4E
:100358004EE77FEA645C18BF7FEA655C29D094EABF
:10036800050F08BF90EA020F05D054EA000C04BF3D
:100378001946104630BD91EA030F1EBF0021002028
:1003880030BD5FEA545C05D14000494128BF41F0C7
:10039800004130BD14F580043CBF01F5801130BD2B
:1003A80001F0004545F0FE4141F470014FF00000B6
:1003B80030BD7FEA645C1ABF194610467FEA655C67
:1003C8001CBF0B46024650EA013406BF52EA033509
:1003D80091EA030F41F4002130BD00BF90F0000FF7
:1003E80004BF0021704730B54FF4806404F1320433
:1003F8004FF000054FF0000150E700BF90F0000FEC
:1004080004BF0021704730B54FF4806404F1320412
:1004180010F0004548BF40424FF000013EE700BFE2
:1004280042004FEAE2014FEA31014FEA02701FBF72
:1004380012F07F4393F07F4F81F06051704732F0A4
:100448007F4208BF704793F07F4F04BF41F40021FB
:10045800704730B54FF4607401F0004521F0004159
:100468001CE700BF50EA010208BF704730B54FF0E3
:1004780000050AE050EA010208BF704730B511F0E4
:10048800004502D5404261EB41014FF4806404F11C
:1004980032045FEA915C3FF4D8AE4FF003025FEAA2
:1004A800DC0C18BF03325FEADC0C18BF033202EB26
:1004B800DC02C2F1200300FA03FC20FA02F001FA80
:1004C80003FE40EA0E0021FA02F11444BDE600BF23
:1004D80070B54FF0FF0C4CF4E06C1CEA11541DBFD2
:1004E8001CEA135594EA0C0F95EA0C0F00F0DEF89D
:1004F8002C4481EA030621EA4C5123EA4C5350EA82
:10050800013518BF52EA033541F4801143F48013D2
:1005180038D0A0FB02CE4FF00005E1FB02E506F063
:100528000042E0FB03E54FF00006E1FB03569CF0B8
:10053800000F18BF4EF0010EA4F1FF04B6F5007FBE
:1005480064F5407404D25FEA4E0E6D4146EB060630
:1005580042EAC62141EA55514FEAC52040EA5E50B9
:100568004FEACE2EB4F1FD0C88BFBCF5E06F1ED863
:10057800BEF1004F08BF5FEA500E50F1000041EB9A
:10058800045170BD06F0004646EA010140EA020047
:1005980081EA0301B4EB5C04C2BFD4EB0C0541EA69
:1005A800045170BD41F480114FF0000E013C00F37E
:1005B800AB8014F1360FDEBF002001F0004170BDA2
:1005C800C4F10004203C35DA0C341BDC04F11404BB
:1005D800C4F1200500FA05F320FA04F001FA05F247
:1005E80040EA020001F0004221F0004110EBD37014
:1005F80021FA04F642EB06015EEA430E08BF20EA40
:10060800D37070BDC4F10C04C4F1200500FA04F3E2
:1006180020FA05F001FA04F240EA020001F0004174
:1006280010EBD37041F100015EEA430E08BF20EAE7
:10063800D37070BDC4F1200500FA05F24EEA020E2F
:1006480020FA04F301FA05F243EA020321FA04F05E
:1006580001F0004121FA04F220EA020000EBD37015
:100668005EEA430E08BF20EAD37070BD94F0000F15
:100678000FD101F00046400041EB010111F4801F49
:1006880008BF013CF7D041EA060195F0000F18BFFA
:10069800704703F00046520043EB030313F4801F36
:1006A80008BF013DF7D043EA0603704794EA0C0FF0
:1006B8000CEA135518BF95EA0C0F0CD050EA410606
:1006C80018BF52EA4306D1D181EA030101F0004183
:1006D8004FF0000070BD50EA410606BF10461946AB
:1006E80052EA430619D094EA0C0F02D150EA0136B7
:1006F80013D195EA0C0F05D152EA03361CBF1046F8
:1007080019460AD181EA030101F0004141F0FE4196
:1007180041F470014FF0000070BD41F0FE4141F41A
:10072800780170BD70B54FF0FF0C4CF4E06C1CEA1A
:1007380011541DBF1CEA135594EA0C0F95EA0C0FCF
:1007480000F0A7F8A4EB050481EA030E52EA03358A
:100758004FEA013100F088804FEA03334FF08055AB
:1007680045EA131343EA12634FEA022245EA1115D8
:1007780045EA10654FEA00260EF000419D4208BF89
:10078800964244F1FD0404F5407402D25B084FEA36
:100798003202B61A65EB03055B084FEA32024FF4E2
:1007A80080104FF4002CB6EB020E75EB030E22BF3F
:1007B800B61A754640EA0C005B084FEA3202B6EBFF
:1007C800020E75EB030E22BFB61A754640EA5C00AE
:1007D8005B084FEA3202B6EB020E75EB030E22BF3E
:1007E800B61A754640EA9C005B084FEA3202B6EB3F
:1007F800020E75EB030E22BFB61A754640EADC00FE
:1008080055EA060E18D04FEA051545EA16754FEA5F
:1008180006164FEAC30343EA52734FEAC2025FEA7D
:100828001C1CC0D111F4801F0BD141EA00014FF00C
:1008380000004FF0004CB6E711F4801F04BF0143DD
:100848000020B4F1FD0C88BFBCF5E06F3FF6AFAEF9
:10085800B5EB030C04BFB6EB020C5FEA500C50F189
:10086800000041EB045170BD0EF0004E4EEA11310C
:1008780014EB5C04C2BFD4EB0C0541EA045170BD13
:1008880041F480114FF0000E013C90E645EA060E57
:100898008DE60CEA135594EA0C0F08BF95EA0C0F85
:1008A8003FF43BAF94EA0C0F0AD150EA01347FF4CD
:1008B80034AF95EA0C0F7FF425AF104619462CE7A4
:1008C80095EA0C0F06D152EA03353FF4FDAE104607
:1008D800194622E750EA410618BF52EA43067FF458
:1008E800C5AE50EA41047FF40DAF52EA43057FF4E8
:1008F800EBAE12E74FF0FF3C06E000BF4FF0010CF3
:1009080002E000BF4FF0010C4DF804CD4FEA410C56
:100918007FEA6C5C4FEA430C18BF7FEA6C5C1BD023
:1009280001B050EA410C0CBF52EA430C91EA030FA4
:1009380002BF90EA020F0020704710F1000F91EA01
:10094800030F58BF994208BF90422CBFD8176FEACF
:10095800E37040F0010070474FEA410C7FEA6C5C9D
:1009680002D150EA013C07D14FEA430C7FEA6C5CA4
:10097800D6D152EA033CD3D05DF8040B704700BFD0
:100988008446104662468C461946634600E000BF1E
:1009980001B5FFF7B7FF002848BF10F1000F01BDF0
:1009A8004DF808EDFFF7F4FF0CBF012000205DF8BB
:1009B80008FB00BF4DF808EDFFF7EAFF34BF012040
:1009C80000205DF808FB00BF4DF808EDFFF7E0FFD9
:1009D80094BF012000205DF808FB00BF4DF808ED2A
:1009E800FFF7CEFF94BF012000205DF808FB00BF91
:1009F8004DF808EDFFF7C4FF34BF012000205DF873
:100A080008FB00BF4FEA410212F5001215D211D5BA
:100A18006FF47873B3EB625212D94FEAC12343F0F3
:100A2800004343EA505311F0004F23FA02F018BF75
:100A3800404270474FF00000704750EA013005D13E
:100A480011F0004008BF6FF0004070474FF0000001
:100A5800704700BF4A0011D212F5001211D20DD50D
:100A68006FF47873B3EB62520ED44FEAC12343F0AC
:100A7800004343EA505323FA02F070474FF0000056
:100A8800704750EA013002D14FF0FF3070474FF005
:100A98000000704753B94AB9002908BF00281CBF95
:100AA8004FF0FF314FF0FF3000F074B9ADF1080C92
:100AB8006DE904CE00F006F8DDF804E0DDE9022374
:100AC80004B070472DE9F047089E0D460446884655
:100AD800002B4DD18A42944668D9B2FA82F252B1BB
:100AE80001FA02F3C2F1200120FA01F10CFA02FC2A
:100AF80041EA030894404FEA1C45210CB8FBF5FE77
:100B08001FFA8CF705FB1E8341EA03430EFB07F12E
:100B180099420BD91CEB03030EF1FF3080F01E81C4
:100B2800994240F21B81AEF1020E63445B1AA4B2F3
:100B3800B3FBF5F005FB103344EA034400FB07F769
:100B4800A7420AD91CEB040400F1FF3380F00881A6
:100B5800A74240F2058164440238E41B40EA0E4093
:100B680000211EB1D4400023C6E90043BDE8F08748
:100B78008B4208D9002E00F0EE800021C6E900055E
:100B88000846BDE8F087B3FA83F100294AD1AB42A1
:100B980002D3824200F2F980841A65EB0303012034
:100BA8009846002EE2D0C6E90048DFE702B9FFDE2A
:100BB800B2FA82F2002A40F09180A1EB0C054FEACC
:100BC8001C471FFA8CFE0121B5FBF7F307FB1350F6
:100BD800250C45EA00450EFB03F0A84208D91CEB9A
:100BE800050503F1FF3802D2A84200F2CB80434644
:100BF8002D1AA4B2B5FBF7F007FB105544EA0544DB
:100C08000EFB00FEA64508D91CEB040400F1FF35D5
:100C180002D2A64500F2BB802846A4EB0E0440EAA7
:100C280003409EE7C1F120078B4022FA07FC4CEAFB
:100C3800030C20FA07F405FA01F31C43FD404FEAC0
:100C48001C4900FA01F3B5FBF9F8200C1FFA8CFED9
:100C580009FB185540EA054508FB0EF0A84202FAC0
:100C680001F20BD91CEB050508F1FF3A80F08880EA
:100C7800A84240F28580A8F1020865442D1AA4B262
:100C8800B5FBF9F009FB105544EA054500FB0EFEDB
:100C9800AE4508D91CEB050500F1FF346CD2AE4512
:100CA8006AD90238654440EA0840A0FB0294A5EBE3
:100CB8000E05A542C846A64656D353D05EB1B3EB3F
:100CC800080265EB0E0505FA07F722FA01F3CD4095
:100CD8001F43C6E900750021BDE8F087C2F1200373
:100CE80020FA03F10CFA02FC25FA03F395400D43B0
:100CF8004FEA1C471FFA8CFEB3FBF7F107FB1130D4
:100D08002B0C43EA004301FB0EF0984204FA02F46C
:100D180008D91CEB030301F1FF382FD298422DD9D3
:100D2800023963441B1AADB2B3FBF7F007FB10336B
:100D380045EA034500FB0EF3AB4208D91CEB050559
:100D480000F1FF3816D2AB4214D902386544ED1AC7
:100D580040EA014138E73146304607E78646E5E68E
:100D68001846FAE64B45A9D2B9EB020864EB0C0E1B
:100D78000138A3E74046EAE7204694E74146D1E731
:100D8800D0467BE7023B654432E7084609E76444FE
:100D9800023842E7704700BF002301461A4618464A
:100DA80000F03AB838B5084B084D5B1B9C1007D0CB
:100DB800043B1D44013C55F804399847002CF9D1EF
:100DC800BDE8384001F0DEBE302D00082C2D0008AB
:100DD80070B50D4E0D4D761BB61006D0002455F893
:100DE800043B01349847A642F9D1094E094D761BB8
:100DF80001F0C2FEB61006D0002455F8043B0134B9
:100E08009847A642F9D170BD242D0008242D00086A
:100E18002C2D0008242D000870B4184C2568D5F82E
:100E280048411CB365681F2D25DC38B9AB1C01355A
:100E3800656044F82310002070BC704704EB850CF3
:100E48000228CCF88820D4F888614FF0010202FA11
:100E580005F246EA0206C4F88861CCF80831E5D103
:100E6800D4F88C311343C4F88C31DFE705F5A67448
:100E7800C5F84841D6E74FF0FF30DDE7F42B00080E
:100E88002DE9F84F0022002306460F46FFF792FD92
:100E9800002841D10022002330463946FFF780FD63
:100EA80000283CD1224B002230463946FFF710FB80
:100EB8000FF2740BDBE900AB04460D4622462B46C5
:100EC80030463946FFF72EFC22462B46FFF74AF9F3
:100ED800174B0022FFF7FCFAA046A94602460B462C
:100EE80004460D4640464946FFF73AF952465B46E6
:100EF800FFF760FD0028E1D042464B4620462946D0
:100F0800FFF72EF952465B46FFF754FD0028D5D06F
:100F180020462946BDE8F88F064D0024F8E700244E
:100F28000025F5E7AFF30080000000A0F2D77A3E75
:100F38000000E03F0000F0BF0378AA2B10D14378EF
:100F4800FF2B0DD18378032B0AD1C37843B9027FD5
:100F5800552A05D1407FA0F1CC035842584170472B
:100F6800002070472DE9F04F2DED048B08EE101A84
:100F780087B004464FF0010A62792379617AE07AF2
:100F8800A57943EA0223227A42EA0122A17A41EAB8
:100F980000210591E17945EA0125A5F500452DB225
:100FA8001BB212B215F5004FC3F1000B08BF0025A4
:100FB800134351422B430FFA8BFB0FB23CD05846D8
:100FC800FFF71CFA804628468946FFF717FA0246BB
:100FD8000B46FFF77DFA424641EC190B4B4640465B
:100FE8004946FFF775FA02460B4651EC190BFFF715
:100FF800B9F8FFF745FF184B0022FFF793FB002FC6
:101008008046894624D025DB144E154818EE101A60
:10101800524601F045F90A21059B95FBF1F2B3FB15
:10102800F1F3CDE90289CDE9006397FBF1F39BFB6E
:10103800F1F10C4801F034F90AF1010ABAF1040F90
:1010480004F1080498D107B0BDEC048BBDE8F08F1B
:10105800054EDAE7054ED8E7000024400F2C0008BB
:101068001B2C00082F2C0008F82B0008032C000864
:1010780038B50F48102101F0A6FCC0B10D4C0C4842
:101088002378DDB20133DBB2237001F07AFC2378D8
:1010980025441D2B84BF00232370687084BF01235F
:1010A800E3770348BDE83840102101F092BC38BD11
:1010B800003000404C04002038B510214FF040208B
:1010C80001F081FC00B3114C94F82030DDB20133FB
:1010D800DBB24FF0402084F8203001F052FC94F845
:1010E800203025441D2B84BF002384F8203085F848
:1010F800210084BF012384F83F301021BDE8384027
:101108004FF0402001F065BC38BD00BF4C04002002
:1011180038B51248102101F056FCF0B1104C0F48B8
:1011280094F84030DDB20133DBB284F8403001F08E
:1011380028FC94F8403025441D2B84BF002384F8F4
:10114800403085F8410084BF012384F85F300348AC
:10115800BDE83840102101F03CBC38BD000001401A
:101168004C0400207FB501A801F019FC204D214E48
:101178004FF47A33019360230124ADF8083001A9B4
:10118800002328468DF80A308DF80F4001F024FC22
:101198002146284601F00EFC224628461021164D0D
:1011A80001F0F5FB40232B6001A94FF0402001F02E
:1011B80013FC21464FF0402001F0FCFB2246102191
:1011C8004FF0402001F0E3FB80232B6001A930465B
:1011D80001F002FC2146304601F0ECFB22461021CA
:1011E800304601F0D4FB4FF480732B6004B070BD1F
:1011F800003000400000014000E100E02DE9F0412E
:1012080001211F2001F05EF901211E2001F05AF989
:1012180001211D2001F056F901210D2001F052F99C
:101228000121202001F04EF94448454C01220021BB
:1012380001F0C0F801221146404801F0BBF84148CE
:101248000122042101F0B6F83E480122052101F0EF
:10125800B1F83C480122082101F0ACF839480122D4
:10126800092101F0A7F8FFF77DFF661C0A2001F0AD
:101278009BF8E37FE3B100233046E377FFF75CFE9A
:10128800B0B13148314FDFF8E88001F009F81E2588
:1012980017F8011B4046013D01F002F815F0FF0563
:1012A800F6D12B4800F0FCFF2A493046FFF75AFEDA
:1012B80094F83F30EBB10023274884F83F30FFF71C
:1012C8003BFEB0B12548244FDFF8A48000F0E8FFCA
:1012D8001E2517F8011B4046013D00F0E1FF15F0FF
:1012E800FF05F6D11A4800F0DBFF1D491A48FFF741
:1012F80039FE94F85F30002BB8D00023194884F8E1
:101308005F30FFF719FE0028B0D01748154FDFF8F7
:10131800608000F0C5FF1E2517F8011B4046013DFF
:1013280000F0BEFF15F0FF05F6D1094800F0B8FF40
:101338000E490C48FFF716FE98E700BF00F401407D
:101348004C04002000F00140892C00084D040020C6
:101358002D2C0008AF2C00086D040020B52C0008C7
:10136800D52C00088D040020DB2C0008FB2C00087D
:10137800A92C00087047FEE7FEE7FEE7FEE7704786
:1013880070477047704770472DE9F84F99460D9B95
:1013980015469A07DDE90B4706468B4622D02A46B2
:1013A8000A9901EB04081444A2421FD10D9B9B0724
:1013B80005D5A2EB0508474505EB08041FD82046CC
:1013C800BDE8F88F4B4659462020B04708F1010880
:1013D800B8450AEB0802F5D33A1BBC4288BF002285
:1013E8002A44DDE7A046A5EB040AF1E702F1010A69
:1013F80018F8010D4B465946B0475246D4E74B46BC
:10140800224659462020B04708F10108D3E72DE9C4
:10141800F047DDE90D7616F0020FDDE90854DDE945
:101428000BC89DF828E01FD106F001094FB1B9F1AA
:10143800000F06D0BEF1000F02D116F00C0F00D03D
:10144800013F4FF0300A04E0202C04D005F804A036
:101458000134A045F8D84FF0300AB9F1000F03D095
:10146800BC4201D21F2C34D916F0100F1FD016F42D
:10147800806F33D194B3444501D0BC422ED1B4F12E
:1014880001082AD0BCF1100F33D1023C16F0200F0E
:1014980031D11F2C15D84FF0780C05F804C0013451
:1014A8001F2C0ED84FF0300C05F804C001341F2C47
:1014B80007D8BEF1000F23D04FF02D0C05F804C05B
:1014C8000134CDE90A76CDE90854BDE8F047FFF7C5
:1014D8005BBF05F804A00134BFE74446BCF1100F18
:1014E800D4D0BCF1020FDBD11F2CEAD84FF0620C2C
:1014F800D3E74446F5E71F2CE3D84FF0580CCCE768
:1015080016F0040F02D04FF02B0CD7E716F0080F97
:10151800D7D04FF0200CD1E72DE9F04391B0189DBA
:101528001A9E1D9F0DB927F010077C0500D515B32D
:1015380017F0200F14BF4FF0410E4FF0610EAC466C
:101548000DF120080025AEF10A0EBCFBF6F906FBEA
:1015580019C95FFA89F4B9F1090F94BF303474449A
:10156800E4B2B44508F8014BBCFBF6F405F10105FB
:1015780001D3202D10D11C9C05941B9C0697CDE906
:1015880003649DF86440CDE9015408AC0094FFF76A
:101598003EFF11B0BDE8F083A446D6E72DE9F04F31
:1015A8002DED048B93B0DDE92065289F9A4656EA15
:1015B800050308BF27F0100709EE102A7A05DDE9B0
:1015C80024B908EE100A08EE901A02D556EA050367
:1015D8003DD017F0200F14BF412361230A3B0DF1C2
:1015E8002808002409935A464B4630462946FFF7F7
:1015F80051FAD2B2092A8ABF099B3032D2185E4505
:10160800D2B275EB090308F8012B04F1010401D3E8
:10161800202C19D1279B0593269B0697CDE903B368
:101628009DF88830CDE901430AAB009319EE102AE2
:1016380018EE901A18EE100A5346FFF7E8FE13B09A
:10164800BDEC048BBDE8F08F06460D46CBE70024C1
:10165800E0E70000000000002DE9F04F2DED088BB9
:101668008DB01D46DDE920B39DED1E7B0A93229BBC
:10167800079208EE900AB0EE479AF0EE679A0C4689
:10168800069351EC170B53EC172BFFF789F980B130
:10169800CB4B51EC190B4FF0FF32FFF7A9F940B9CA
:1016A80051EC190B4FF0FF326FF48013FFF782F9FA
:1016B80090B1069B22930A9B079A18EE900ACDE9EF
:1016C80020B321462B468DED1E9B0DB0BDEC088B3B
:1016D800BDE8F04F00F08CB951EC190B0022002343
:1016E800FFF768F9002800F03F8119EE903A19EEEB
:1016F800108A03F10049069B9FEDB27A9FEDB28AEA
:1017080013F480630B93C9F30A53A3F2FF3307EE74
:10171800903AC9F31302F8EEE77A42F07F51AB4BE7
:101728004FF00002404641F4401108BF4FF0060B4D
:10173800A7EE878AFEF714FD9BA3D3E90023FEF7E3
:10174800C7FE064618EE100A0F46FEF769FE024667
:101758000B4630463946FEF705FDFFF753F907EE0D
:10176800900AB8EEE77ADFED9A7AB6EE008AA7EE2D
:10177800278A8246DFED977ABDEEC88AF8EEC86AF6
:1017880067EEE67ADFED946AE7EE267A17EE900ABE
:10179800FEF746FE02460B4606460F46FEF798FE43
:1017A800324641EC1A0B3B4630463946FEF7DAFC26
:1017B8008A4B41EC1B0B002251EC1A0BFEF7B2FFCF
:1017C800874B0022FEF7CEFC02460B4651EC1A0B63
:1017D800FEF7A8FF834B0022FEF7C4FC02460B4627
:1017E80051EC1A0BFEF79EFF324641EC1A0B3B46B2
:1017F80000204FF08041FEF7B3FC02460B4651EC47
:101808001A0BFEF7AFFC02460B4651EC1B0BFEF71A
:1018180089FF754B0022FEF7A5FC18EE103A03F27B
:10182800FF3633050022FEF753FE42464B46064676
:101838000F46FFF7DDF8002840F09980CDE90867EA
:101848000AF16303C72B069B34BF04260526190536
:1018580023D557A3D3E9002340464946FFF7BEF8EE
:10186800002800F08F8054A3D3E90023404649465E
:10187800FFF7A0F8002800F08580069BD345C8BF75
:10188800ABEB0A0B43F480634FF00006CCBF0BF1BF
:10189800FF3B4FF0000B0693B2460A9B9E4238BFAF
:1018A8009F1B069B28BF002713F002030B9302D04F
:1018B800002E18BF0027BAF1000F07D0404649464E
:1018C800DDE90823FEF72EFF8046894651EC190B07
:1018D80000220023FFF76EF810B109F10043994682
:1018E800069B079ACDF808B023F40063CDE903738B
:1018F800CDE9008918EE900A2B46214600F078F8C9
:101908006EB3069B13F0200F00F1010802462B4628
:1019180014BF45206520214618EE907AB847052364
:10192800059300220A238AEAEA70CDE90232A0EB85
:10193800EA704FEADA73013E019300902B4618EEE5
:10194800900A049642462146FFF7E6FD0B9B33B109
:10195800079BC61A079B98190A9BB3421BD80DB060
:10196800BDEC088BBDE8F08F59EC198BC3E61C4B16
:10197800002230463946FEF7D5FE0AF1FF3ACDE996
:1019880008015DE7BBF1000F87D00B9B002B84D0CB
:101998000BF1FF3B81E7024618EE907A2B46214671
:1019A8002020B8470136D5E700000060A787D23F5E
:1019B800000000E0E2361A3F0000000080842E415B
:1019C800FFFFEF7F9B209A3E4451343E0000F83FD2
:1019D800789A54401872313F8E5D134000002C40B5
:1019E80000002440000018400000F03F0000000004
:1019F8002DE9F04F2DED088B8FB0DDE920AB09EE16
:101A0800103ADDE9225308EE100A08EE902A0F4634
:101A1800049352465B4650465946249EFEF7C0FF43
:101A2800A0B9049B229303232193B94B23962093B7
:101A380018EE902A19EE103A18EE100A39460FB02F
:101A4800BDEC088BBDE8F04FFFF79EBC4FF0FF32AE
:101A58006FF4801350465946FEF7ACFF30B1049B33
:101A68002293042321932396AA4BE0E7AA4B4FF035
:101A7800FF3250465946FEF7BBFF70B1A74A04999A
:101A8800239606F00403002B08BF0322A44B1CBFB7
:101A980013460422CDE92121C9E799A3D3E90023FC
:101AA80050465946FEF7A4FF38B997A3D3E9002357
:101AB80050465946FEF77EFF98B1049B2496CDE91F
:101AC800225318EE902A19EE103A18EE100A3946E9
:101AD800CDE920AB0FB0BDEC088BBDE8F04FFFF7A8
:101AE800BBBD0022002350465946FEF763FF00287D
:101AF80000F081805B46524600200021FEF730FB53
:101B0800012382468B46059316F4806F08BF06258D
:101B180006ABA5F12002A9463021B9F1090FA5EBC2
:101B2800090406D909F1FF394A4503F8011BF4D124
:101B3800202459465046FEF765FF7A4B03EBC9034C
:101B480093ED007B0546B0EE47AAF0EE67AAFEF7D4
:101B580055FC02460B4650465946FEF701FB53EC2E
:101B68001A2BFEF7B5FC02460B4643EC1B2BFEF77F
:101B780071FF8046FEF732FC02460B4651EC1B0B08
:101B8800FEF7EEFA02460B4643EC1B2B664B00228F
:101B9800FEF72EFF88B308F101084046FEF71EFC49
:101BA80002460B4651EC1A0BFEF70EFF10B1013539
:101BB8004FF00008B9F1000F50D12846FEF71EFC7F
:101BC80002460B4650465946FEF7CAFA564B0022C3
:101BD80080468946FEF7EEFE30B1534B0022404660
:101BE8004946FEF705FF10B1E80700D5013506ABF9
:101BF80023440A2259E0059086E74B4B51EC1B0B16
:101C08000022FEF7D7FE0028D4D1B8F1000F02D089
:101C180018F0010FCED008F10108CBE7B8FBF1F0BE
:101C280001FB10823032B8F1090F03F8012B09F1DA
:101C3800FF3904F1010428D8A14406AA3021202C38
:101C480011D04C4504F1010321D104F138020DEB08
:101C580002042E2204F8202C1C46C8E706AB2344B5
:101C68000A21202CDAD106F00303012B06AB39D167
:101C7800049A002A36D0059A12B916F00C0F02D031
:101C8800049A013A0492302214E08046E9E7A1540C
:101C98001C46D4E795FBF2F102FB1155303503F8E9
:101CA800015B01340D460029DDD0202CF2D1DAE7A2
:101CB8001A5501340499A14214D9202CF8D1049A58
:101CC8000093CDE9014219EE103A18EE902A18EE69
:101CD800100A03963946FFF757FB0FB0BDEC088B87
:101CE800BDE8F08F202CEAD0059AFAB104F1380249
:101CF8006A442D2102F8201C0134E0E7AFF300808C
:101D08000000000065CDCD410000000065CDCDC1CB
:101D18000A2D00080E2D0008FFFFEF7F052D000893
:101D2800012D0008982B00080000E03F710704D53A
:101D380004F138026A442B21DCE73207BFD504F1ED
:101D480038026A442021D5E7014610B1014800F065
:101D580013BE7047003000402DE9F04F91B09B460C
:101D6800B74B1A9E0029904614BF81469946002514
:101D78009BF8000058B945452CBF08F1FF322A46A8
:101D880043460020C847284611B0BDE8F08F2528F3
:101D98000BF1010B06D02A466C1C43460A91C84732
:101DA8002546B2E1002306E02D2A14D0302A0CD1B2
:101DB80043F001038346584610F8012B2B2A0DD017
:101DC800F2D8202A0DD0232A0ED0A2F13004092CF3
:101DD80029D8002710E043F00203EBE743F004039F
:101DE800E8E743F00803E5E743F01003E2E70A24D5
:101DF80004FB0727303F8346584610F8012BA2F111
:101E08003004092CF3D99BF800202E2A67D19BF8BF
:101E18000100A0F13004092C0BF1010243F48063A6
:101E280053D8002411E02A2A08D156F8047B002F41
:101E3800BCBF43F002037F428346E4E70027E2E7A2
:101E48000A2202FB0404303C624694461CF8010B4B
:101E5800A0F1300EBEF1090FF2D993465A4612F896
:101E6800010B6C2844D03CD868284AD06A2852D044
:101E78005A4693461BF8010B78288CD857284DD81A
:101E8800452805D087D9462800F02C81472882D1DB
:101E980000F0DF02472A04BF00F0FD0043F40063AE
:101EA800452808BF43F02003CDE90373073626F021
:101EB80007060294F6E802234846CDE90023434684
:101EC8002A460A91FFF7C8FB1EE12A2806D156F8D0
:101ED800044B0BF1020B24EAE474BFE79346002499
:101EE800BCE7742801D07A28C2D143F48073C0E7D4
:101EF8009BF801006C28F8D143F440730BF10202FF
:101F0800B7E79BF80100682802D043F08003B0E7E8
:101F180043F0C003F2E743F40073AAE7A0F15802C4
:101F2800202A3FF638AF0FF2080C5CF822F000BF09
:101F3800BD1F00089F1D00089F1D00089F1D000869
:101F48009F1D00089F1D00089F1D00089F1D000879
:101F58009F1D00089F1D0008BD1F000817210008CD
:101F6800BD1F0008991E0008F1200008991E0008EE
:101F78009F1D0008BD1F00089F1D00089F1D000829
:101F88009F1D00089F1D00089F1D0008BD1F000819
:101F98006D2200089F1D00089F1D0008972100085A
:101FA8009F1D0008BD1F00089F1D00089F1D0008F9
:101FB800BD1F0008782800F06B81582800F0668162
:101FC8006F2800F06781622800F06681692823F095
:101FD80010034FF00A0203D0642801D023F00C0349
:101FE80013F4806F18BF23F00103692803F4007C01
:101FF80001D0642841D1BCF1000F23D0073626F068
:102008000706B24676685AF8080B0694CDE90773B6
:1020180000230593F30F002E02930492034602DA7D
:10202800434266EB4606CDE9003643462A46484613
:102038000A91FFF7B3FA0A990546564698E600BF93
:102048008F130008D80506F1040A0CD53068CDE9CD
:102058000224CDE9047300284FEAD0730193B8BF76
:102068004042009027E013F0400F306801D0C0B222
:10207800EDE71E0648BF00B2E9E7BCF1000F0ED03D
:10208800CDE907730023CDE90423073626F0070AB4
:1020980006940293FAE80223CDE90023C5E7D805A0
:1020A80006F1040A0ED5CDE90473CDE90224CDF872
:1020B80004C03368009343462A4648460A91FFF70E
:1020C8002BFAB8E713F0400F306807D0C0B2CDE95B
:1020D80004730023CDE902240193C2E71E0648BF1A
:1020E80080B2F4E743F02003CDE90373073626F006
:1020F80007060294F6E802234846CDE90023434642
:102108002A460A91FFF774FC05460A9930E613F04F
:10211800020426D04FF0010A56F8040B0B916B1CF1
:102128000A932A464346C0B2C8470B996CB30A9A29
:10213800544620E00A9143462020C8470A990AEBF2
:1021480005020AF1010A5745F4D8002F07F1FF33B9
:1021580008BF002307F1010A1D4408BF4FF0020A17
:10216800DAE7A246EBE70B9143462020551CC84707
:102178000B9901342A46BC42F5D30A9AA7EB0A0305
:10218800574538BF00231A440A920A9DF0E53246A3
:1021980052F8046B0A92414A002E08BF1646002CDA
:1021A80014BF22464FF0FF323244B4469CF8000078
:1021B80008B1944511D113F48062ACEB060A0B9276
:1021C80002D0A24528BFA24613F002030C931DD1EA
:1021D800AAEB05032A460E930AE00CF1010CE5E789
:1021E800531C0D930F9143462020C8470D9A0F9911
:1021F8000E9BD3189F42F3D8A7EB0A03574538BF65
:1022080000230AF101021D4403EB020AAB1B0D93E4
:1022180005E01C460E9143462A46C8470E990D9B79
:102228009D1916F8010B28B10B9B002BF2D0631EE9
:10223800002CEED10C9B9BB12A46AAEB050406E0C4
:102248000B9143462020561CC8470B993246131958
:10225800BB42F5D3A7EB0A03574538BF00231D44FB
:102268000A9E85E543F0210305930823CDE903433E
:1022780010220023CDE9013256F8043B00932A4688
:10228800434648460A91FFF747F93DE743F02003E4
:102298001022A3E60822A1E602229FE6132D0008D9
:1022A8000FB41FB506AA02A952F8043B0392009284
:1022B80004484FF0FF32FFF74FFD05B05DF804EB1F
:1022C80004B07047511D0008064B0748E02283F808
:1022D8002220C0210023C2180133252B82F80013C5
:1022E800F9D1704700ED00E000E100E00F4A08B5C1
:1022F800D2F8883043F47003C2F888304FF0804237
:10230800D36843F08003D36002F50032536923F4A5
:10231800702343F48033536193689B07FCD5FFF720
:10232800D3FFBDE8084000F003B800BF00ED00E0AF
:1023380008B5012000F060F80C4B984214D90C4AFB
:102348000133B0FBF3F313700A4A4FF47A73B0FB0E
:10235800F3F04FF0E0230138E021586182F82310B0
:1023680000229A6107221A6108BD00BF3F420F0090
:10237800AC04002000ED00E030B50A4B4FF0E0213E
:102388001B784D695BB18C69584300238A69944274
:10239800FCD0234498BF5B199B1A834200D330BDFD
:1023A8001446F3E7AC0400204FF47A735843FFF760
:1023B800E3BF0000072910B511D90E4B0839984220
:1023C8000BBF01EB4101890007230F238B4002FA61
:1023D80001F1C26B22EA03031943C16310BD836B89
:1023E80089000F248C4023EA040302FA01F11943FF
:1023F8008163F3E700FC01404FF0804301461A680F
:1024080002F4E042B2F5A04F20D015D8B2F5805FB3
:102418001ED0B2F5005F1B4808BF4FF400400229E8
:102428001BD0032923D0012905D14FF080431B6815
:10243800C3F30323D8407047B2F5C04F0BD0114BFC
:102448001148B2F5E04F18BF1846E8E70F48E6E72D
:102458004FF4FA40E3E70E48E1E74FF08042136893
:10246800C3F30323D8401368C3F34213E2E74FF0E2
:1024780080421368C3F30323D8401368C3F3C233FD
:10248800D8E700BF00366E01006CDC020048E801A6
:1024980080EE36004FF08043986800F4C0307047F3
:1024A8004FF08043986800F4C04070474FF0804375
:1024B800986800F4C05070474FF08043986800F463
:1024C800C060704741284AD8DFE810F011020702BF
:1024D800FD01E401D201B901710167015D015301F8
:1024E80049013F0135010D010301D600EA00E00072
:1024F800CC004900C200B800AE00A30099008F00CC
:1025080085006B00610057004D0042001701210152
:102518002B01490049004900490049004900490088
:102528004900490049004900490049002E02250296
:102538001B02380295014900490049004900490039
:1025480049004900490049004900490042024C023B
:102558004FF08043DA6819B142F48012DA607047AC
:1025680022F48012FAE74FF08043DA6811B142F49E
:102578000022F3E722F40022F0E74FF08043DA6804
:1025880011B142F48022E9E722F48022E6E74FF015
:102598008043DA6811B142F40032DFE722F40032F6
:1025A800DCE74FF08043DA6879B142F48032DA60D0
:1025B8004FF080439A6A02F03F023F2AFAD15A69E3
:1025C80031B142F004025A61704722F48032EEE7DA
:1025D80022F00402F7E74FF08043DA6811B142F4C1
:1025E8000042BBE722F40042B8E74FF08043DA68C4
:1025F80011B142F48042B1E722F48042AEE74FF0D5
:102608008043DA6811B142F40052A7E722F400527D
:10261800A4E74FF080431A6919B142F020021A6109
:10262800704722F02002FAE74FF08043DA6811B1D0
:1026380042F4805292E722F480528FE74FF08043B1
:10264800DA6811B142F4006288E722F4006285E793
:102658004FF08043DA6811B142F480627EE722F4D9
:1026680080627BE74FF08043DA6811B142F48072F0
:1026780074E722F4807271E74FF08043DA6811B191
:1026880042F020026AE722F0200267E74FF0804319
:10269800DA6811B142F0800260E722F080025DE75B
:1026A8004FF08043DA6871B142F04002DA604FF0CF
:1026B80080439A6A02F03F023F2AFAD15A6929B147
:1026C80042F008027FE722F04002EFE722F008021A
:1026D80079E74FF08043DA6811B142F010023DE724
:1026E80022F010023AE74FF08043DA6811B142F065
:1026F800007233E722F0007230E74FF08043DA6867
:1027080011B142F0807229E722F0807226E74FF07B
:102718008043DA6811B142F400021FE722F4000294
:102728001CE74FF08043DA6811B142F4800215E7E4
:1027380022F4800212E74FF08043DA6811B142F0C8
:1027480008020BE722F0080208E74FF08043DA6836
:1027580011B142F0040201E722F00402FEE64FF054
:102768008043DA6811B142F00202F7E622F0020271
:10277800F4E64FF08043DA6811B142F00102EDE669
:1027880022F00102EAE64FF08043DA6811B142F024
:102798000062E3E622F00062E0E64FF08043DA6888
:1027A80011B142F08062D9E622F08062D6E64FF09D
:1027B80080431A6979B142F400721A619A6A02F088
:1027C8003F023F2AFAD15A6942F010025A611A6947
:1027D80042F0100223E722F010021A619A6A02F00E
:1027E8003F023F2AFAD15A6922F010025A611A6947
:1027F80022F4007213E74FF080431A6979B142F46A
:1028080080521A619A6A02F03F023F2AFAD15A6945
:1028180042F020025A611A6942F40062FFE622F48B
:1028280000621A619A6A02F03F023F2AFAD15A6995
:1028380022F020025A611A6922F48052EFE64FF022
:1028480080431A6971B142F008021A614FF080435F
:102858009A6A02F03F023F2AFAD15A6929B142F036
:102868000102B0E622F00802EFE722F00102AAE630
:102878004FF080431A6931B142F004021A611A69B3
:1028880042F04002CBE622F004021A611A6922F0F3
:102898004002C4E64FF080431A6971B142F0020267
:1028A8001A614FF080439A6A02F03F023F2AFAD138
:1028B8005A6929B142F0020285E622F00202EFE7E6
:1028C80022F002027FE64FF08043DA6811B142F04D
:1028D800805243E622F0805240E64FF080431A6966
:1028E80011B142F001029AE622F0010297E64FF098
:1028F80080431A6911B142F0800290E622F080020A
:102908008DE64FF080431A6911B142F4807286E671
:1029180022F4807283E64FF08043DA6809B11A43E3
:102928001CE622F0804219E64FF08043DA6811B1C4
:1029380042F0005212E622F000520FE64FF08043B8
:102948001A6911B142F4806269E622F4806266E68F
:102958004FF08043DA6811B142F40012FEE522F428
:102968000012FBE54FF08043DA6811B142F00042F3
:10297800F4E522F00042F1E583699B06FCD401608E
:1029880070478369DB06FCD40068C0B27047836B6C
:102998001AB923EA0101816370471943FBE74FF431
:1029A800E133036060238380002383714FF4401375
:1029B80083607047036B19B143F0010303637047E9
:1029C80023F00103FAE7036C0B4214BF0120002037
:1029D800704741647047000038B5036B23F001036A
:1029E8000363C36A23F01003C36200238363464B67
:1029F800984204460D463ED1FFF74CFDC00B013806
:102A0800022850D8414B53F820002B68B0EB031F25
:102A18004FEA031175D36BB1B0FBF1F201FB120061
:102A2800C000B0FBF3F000F0010303EB500080B2EC
:102A380040EA02431A0C03F03F036262A362E36AAE
:102A48002A7923F060031343E362E36AAA7923F047
:102A580008031343E362EB7A8BB3E36A43F0100392
:102A6800E3626B79012B2ED0022B42D09BBBE36A29
:102A780023F002032EE0B0F1402F04D1FFF710FD40
:102A8800C0F34F30BBE7224B984204D1FFF70EFD4D
:102A9800C0F3CF20B3E71F4B98420ED1FFF70CFDD0
:102AA800C0F34F20ABE7184B9C4202D0B4F1402F43
:102AB80003D10220FFF7A0FCA7E70320FAE7E36AA7
:102AC80023F01003CCE7E36A43F00203E362E36A0E
:102AD80023F00403E362236BAA7A23F03003134341
:102AE8002363236B2A8923F4404313432363002081
:102AF80038BDE36A43F00203E362E36A43F0040388
:102B0800E8E74FF0FF30F3E700300040E82B00081B
:102B18000000014000100140002103E00B4B5B580E
:102B2800435004310A480B4B42189A42F6D30A4ADA
:102B380002E0002342F8043B084B9A42F9D3FFF71E
:102B4800D5FBFEF745F9FEF759FBFEE7302D0008E7
:102B5800000000203004002030040020B0040020D1
:102B6800FEE70000024B13B10248FEF715B97047A3
:102B780000000000AD0D0008F8B500BFF8BC08BCA7
:102B88009E467047F8B500BFF8BC08BC9E46704723
:102B9800000000000000F03F00000000000024409A
:102BA80000000000000059400000000000408F4075
:102BB800000000000088C34000000000006AF840E0
:102BC8000000000080842E4100000000D012634104
:102BD8000000000084D797410000000065CDCD417A
:102BE80080EE36000080000000366E0108000020EC
:102BF80053746174696F6E61727900417070726F9D
:102C0800616368696E67004D6F76696E672041770A
:102C18006179000D0A5B25735D20546172676574E4
:102C28002025643A0D0A002020583A2025642063A4
:102C38006D207C20593A20256420636D207C205328
:102C4800706565643A20256420636D2F73202825FC
:102C58007329207C2044697374616E636520526116
:102C6800773A20257520636D207C2043616C632EA4
:102C780020446973743A20252E326620636D0D0A4C
:102C8800000A5B55415254305D2056616C696420DE
:102C98004672616D652052656365697665643A0AB6
:102CA800002530325820005541525430000A5B55F7
:102CB800415254315D2056616C6964204672616DE1
:102CC800652052656365697665643A0A0055415224
:102CD8005431000A5B55415254325D2056616C698B
:102CE80064204672616D6520526563656976656426
:102CF8003A0A00554152543200666E6900666E69A0
:102D08002B006E616E00666E692D00286E756C6C06
:042D1800290000008E
:082D1C00B0DDFF7F01000000A3
:082D24006D2B000841010008BD
:042D2C001901000881
:102D3000080000200000000000000000F402002055
:102D40005C030020C403002000000000000000001D
:102D50000000000000000000000000000000000073
:102D60000000000000000000000000000000000063
:102D70000000000000000000000000000000000053
:102D80000000000000000000000000000000000043
:102D90000000000000000000000000000000000033
:102DA0000000000000000000000000000000000023
:102DB0000000000000000000000000000000000013
:102DC0000000000000000000000000000000000003
:102DD00000000000000000000000000000000000F3
:102DE00001000000000000000E33CDAB34126DE690
:102DF000ECDE05000B0000000000000000000000F9
:102E000000000000000000000000000000000000C2
:102E100000000000000000000000000000000000B2
:102E200000000000000000000000000000000000A2
:102E30000000000000000000000000000000000092
:0400000508002B21A3
:00000001FF
