:020000040800F2
:1000000000400020E14D0008651600086716000852
:10001000691600086B1600086D1600080000000045
:100020000000000000000000000000006F16000843
:1000300000000000000000007116000873160008A0
:10004000294E00087B160008294E0008294E00089A
:10005000294E0008294E00083D140008294E0008CA
:10006000294E0008294E0008294E0008294E000894
:10007000294E0008294E0008294E0008294E000884
:10008000294E0008294E0008294E0008294E000874
:10009000294E000877160008294E0008294E00084E
:1000A000294E0008294E0008294E0008294E000854
:1000B000294E0008294E0008294E0008294E000844
:1000C000294E0008294E000875160008294E000820
:0400D000294E0008AD
:1000D8000348044B834202D0034B03B118477047CF
:1000E8005004002050040020000000000548064984
:1000F8000B1AD90F01EBA301491002D0034B03B12E
:1001080018477047500400205004002000000000E9
:1001180010B5064C237843B9FFF7DAFF044B13B147
:100128000448AFF300800123237010BD5004002061
:1001380000000000404E000808B5044B1BB10449FC
:100148000448AFF30080BDE80840CFE70000000096
:1001580054040020404E000881F0004102E000BF36
:1001680083F0004330B54FEA41044FEA430594EA6F
:10017800050F08BF90EA020F1FBF54EA000C55EAAA
:10018800020C7FEA645C7FEA655C00F0E2804FEA7B
:100198005454D4EB5555B8BF6D420CDD2C4480EA5D
:1001A800020281EA030382EA000083EA010180EA8D
:1001B800020281EA0303362D88BF30BD11F0004FDB
:1001C8004FEA01314FF4801C4CEA113102D0404211
:1001D80061EB410113F0004F4FEA03334CEA13334C
:1001E80002D0524263EB430394EA050F00F0A78064
:1001F800A4F10104D5F1200E0DDB02FA0EFC22FA5F
:1002080005F2801841F1000103FA0EF2801843FA52
:1002180005F359410EE0A5F120050EF1200E012A43
:1002280003FA0EFC28BF4CF0020C43FA05F3C01881
:1002380051EBE37101F0004507D54FF0000EDCF1FA
:10024800000C7EEB00006EEB0101B1F5801F1BD3A3
:10025800B1F5001F0CD349085FEA30004FEA3C0CA7
:1002680004F101044FEA445212F5800F80F09A809D
:10027800BCF1004F08BF5FEA500C50F1000041EBA1
:10028800045141EA050130BD5FEA4C0C404141EBA5
:100298000101013C28BFB1F5801FE9D291F0000FA0
:1002A80004BF01460020B1FA81F308BF2033A3F14F
:1002B8000B03B3F120020CDA0C3208DD02F1140C46
:1002C800C2F10C0201FA0CF021FA02F10CE002F181
:1002D8001402D8BFC2F1200C01FA02F120FA0CFC7A
:1002E800DCBF41EA0C019040E41AA2BF01EB0451C3
:1002F800294330BD6FEA04041F3C1CDA0C340EDCC1
:1003080004F11404C4F1200220FA04F001FA02F303
:1003180040EA030021FA04F345EA030130BDC4F1C1
:100328000C04C4F1200220FA02F001FA04F340EAB6
:100338000300294630BD21FA04F0294630BD94F067
:10034800000F83F4801306BF81F480110134013D4E
:100358004EE77FEA645C18BF7FEA655C29D094EABF
:10036800050F08BF90EA020F05D054EA000C04BF3D
:100378001946104630BD91EA030F1EBF0021002028
:1003880030BD5FEA545C05D14000494128BF41F0C7
:10039800004130BD14F580043CBF01F5801130BD2B
:1003A80001F0004545F0FE4141F470014FF00000B6
:1003B80030BD7FEA645C1ABF194610467FEA655C67
:1003C8001CBF0B46024650EA013406BF52EA033509
:1003D80091EA030F41F4002130BD00BF90F0000FF7
:1003E80004BF0021704730B54FF4806404F1320433
:1003F8004FF000054FF0000150E700BF90F0000FEC
:1004080004BF0021704730B54FF4806404F1320412
:1004180010F0004548BF40424FF000013EE700BFE2
:1004280042004FEAE2014FEA31014FEA02701FBF72
:1004380012F07F4393F07F4F81F06051704732F0A4
:100448007F4208BF704793F07F4F04BF41F40021FB
:10045800704730B54FF4607401F0004521F0004159
:100468001CE700BF50EA010208BF704730B54FF0E3
:1004780000050AE050EA010208BF704730B511F0E4
:10048800004502D5404261EB41014FF4806404F11C
:1004980032045FEA915C3FF4D8AE4FF003025FEAA2
:1004A800DC0C18BF03325FEADC0C18BF033202EB26
:1004B800DC02C2F1200300FA03FC20FA02F001FA80
:1004C80003FE40EA0E0021FA02F11444BDE600BF23
:1004D80070B54FF0FF0C4CF4E06C1CEA11541DBFD2
:1004E8001CEA135594EA0C0F95EA0C0F00F0DEF89D
:1004F8002C4481EA030621EA4C5123EA4C5350EA82
:10050800013518BF52EA033541F4801143F48013D2
:1005180038D0A0FB02CE4FF00005E1FB02E506F063
:100528000042E0FB03E54FF00006E1FB03569CF0B8
:10053800000F18BF4EF0010EA4F1FF04B6F5007FBE
:1005480064F5407404D25FEA4E0E6D4146EB060630
:1005580042EAC62141EA55514FEAC52040EA5E50B9
:100568004FEACE2EB4F1FD0C88BFBCF5E06F1ED863
:10057800BEF1004F08BF5FEA500E50F1000041EB9A
:10058800045170BD06F0004646EA010140EA020047
:1005980081EA0301B4EB5C04C2BFD4EB0C0541EA69
:1005A800045170BD41F480114FF0000E013C00F37E
:1005B800AB8014F1360FDEBF002001F0004170BDA2
:1005C800C4F10004203C35DA0C341BDC04F11404BB
:1005D800C4F1200500FA05F320FA04F001FA05F247
:1005E80040EA020001F0004221F0004110EBD37014
:1005F80021FA04F642EB06015EEA430E08BF20EA40
:10060800D37070BDC4F10C04C4F1200500FA04F3E2
:1006180020FA05F001FA04F240EA020001F0004174
:1006280010EBD37041F100015EEA430E08BF20EAE7
:10063800D37070BDC4F1200500FA05F24EEA020E2F
:1006480020FA04F301FA05F243EA020321FA04F05E
:1006580001F0004121FA04F220EA020000EBD37015
:100668005EEA430E08BF20EAD37070BD94F0000F15
:100678000FD101F00046400041EB010111F4801F49
:1006880008BF013CF7D041EA060195F0000F18BFFA
:10069800704703F00046520043EB030313F4801F36
:1006A80008BF013DF7D043EA0603704794EA0C0FF0
:1006B8000CEA135518BF95EA0C0F0CD050EA410606
:1006C80018BF52EA4306D1D181EA030101F0004183
:1006D8004FF0000070BD50EA410606BF10461946AB
:1006E80052EA430619D094EA0C0F02D150EA0136B7
:1006F80013D195EA0C0F05D152EA03361CBF1046F8
:1007080019460AD181EA030101F0004141F0FE4196
:1007180041F470014FF0000070BD41F0FE4141F41A
:10072800780170BD70B54FF0FF0C4CF4E06C1CEA1A
:1007380011541DBF1CEA135594EA0C0F95EA0C0FCF
:1007480000F0A7F8A4EB050481EA030E52EA03358A
:100758004FEA013100F088804FEA03334FF08055AB
:1007680045EA131343EA12634FEA022245EA1115D8
:1007780045EA10654FEA00260EF000419D4208BF89
:10078800964244F1FD0404F5407402D25B084FEA36
:100798003202B61A65EB03055B084FEA32024FF4E2
:1007A80080104FF4002CB6EB020E75EB030E22BF3F
:1007B800B61A754640EA0C005B084FEA3202B6EBFF
:1007C800020E75EB030E22BFB61A754640EA5C00AE
:1007D8005B084FEA3202B6EB020E75EB030E22BF3E
:1007E800B61A754640EA9C005B084FEA3202B6EB3F
:1007F800020E75EB030E22BFB61A754640EADC00FE
:1008080055EA060E18D04FEA051545EA16754FEA5F
:1008180006164FEAC30343EA52734FEAC2025FEA7D
:100828001C1CC0D111F4801F0BD141EA00014FF00C
:1008380000004FF0004CB6E711F4801F04BF0143DD
:100848000020B4F1FD0C88BFBCF5E06F3FF6AFAEF9
:10085800B5EB030C04BFB6EB020C5FEA500C50F189
:10086800000041EB045170BD0EF0004E4EEA11310C
:1008780014EB5C04C2BFD4EB0C0541EA045170BD13
:1008880041F480114FF0000E013C90E645EA060E57
:100898008DE60CEA135594EA0C0F08BF95EA0C0F85
:1008A8003FF43BAF94EA0C0F0AD150EA01347FF4CD
:1008B80034AF95EA0C0F7FF425AF104619462CE7A4
:1008C80095EA0C0F06D152EA03353FF4FDAE104607
:1008D800194622E750EA410618BF52EA43067FF458
:1008E800C5AE50EA41047FF40DAF52EA43057FF4E8
:1008F800EBAE12E74FF0FF3C06E000BF4FF0010CF3
:1009080002E000BF4FF0010C4DF804CD4FEA410C56
:100918007FEA6C5C4FEA430C18BF7FEA6C5C1BD023
:1009280001B050EA410C0CBF52EA430C91EA030FA4
:1009380002BF90EA020F0020704710F1000F91EA01
:10094800030F58BF994208BF90422CBFD8176FEACF
:10095800E37040F0010070474FEA410C7FEA6C5C9D
:1009680002D150EA013C07D14FEA430C7FEA6C5CA4
:10097800D6D152EA033CD3D05DF8040B704700BFD0
:100988008446104662468C461946634600E000BF1E
:1009980001B5FFF7B7FF002848BF10F1000F01BDF0
:1009A8004DF808EDFFF7F4FF0CBF012000205DF8BB
:1009B80008FB00BF4DF808EDFFF7EAFF34BF012040
:1009C80000205DF808FB00BF4DF808EDFFF7E0FFD9
:1009D80094BF012000205DF808FB00BF4DF808ED2A
:1009E800FFF7CEFF94BF012000205DF808FB00BF91
:1009F8004DF808EDFFF7C4FF34BF012000205DF873
:100A080008FB00BF4FEA410212F5001215D211D5BA
:100A18006FF47873B3EB625212D94FEAC12343F0F3
:100A2800004343EA505311F0004F23FA02F018BF75
:100A3800404270474FF00000704750EA013005D13E
:100A480011F0004008BF6FF0004070474FF0000001
:100A5800704700BF4A0011D212F5001211D20DD50D
:100A68006FF47873B3EB62520ED44FEAC12343F0AC
:100A7800004343EA505323FA02F070474FF0000056
:100A8800704750EA013002D14FF0FF3070474FF005
:100A98000000704753B94AB9002908BF00281CBF95
:100AA8004FF0FF314FF0FF3000F092B9ADF1080C74
:100AB8006DE904CE00F024F8DDF804E0DDE9022356
:100AC80004B07047D0B50C4B002206460F46FFF71E
:100AD800FFFCFFF7BFFF0446FFF780FC074B00222F
:100AE800FFF7F6FC02460B4630463946FFF738FB5F
:100AF800FFF7B0FF2146D0BD0000F03D0000F041F7
:100B08002DE9F047089E0D4604468846002B4DD136
:100B18008A42944668D9B2FA82F252B101FA02F3D3
:100B2800C2F1200120FA01F10CFA02FC41EA0308A3
:100B380094404FEA1C45210CB8FBF5FE1FFA8CF7D0
:100B480005FB1E8341EA03430EFB07F199420BD9CB
:100B58001CEB03030EF1FF3080F01E81994240F236
:100B68001B81AEF1020E63445B1AA4B2B3FBF5F02D
:100B780005FB103344EA034400FB07F7A7420AD9F0
:100B88001CEB040400F1FF3380F00881A74240F217
:100B9800058164440238E41B40EA0E4000211EB17E
:100BA800D4400023C6E90043BDE8F0878B4208D94A
:100BB800002E00F0EE800021C6E900050846BDE8D9
:100BC800F087B3FA83F100294AD1AB4202D38242BB
:100BD80000F2F980841A65EB030301209846002E81
:100BE800E2D0C6E90048DFE702B9FFDEB2FA82F2D6
:100BF800002A40F09180A1EB0C054FEA1C471FFA30
:100C08008CFE0121B5FBF7F307FB1350250C45EAD1
:100C180000450EFB03F0A84208D91CEB050503F1BB
:100C2800FF3802D2A84200F2CB8043462D1AA4B264
:100C3800B5FBF7F007FB105544EA05440EFB00FE30
:100C4800A64508D91CEB040400F1FF3502D2A645DD
:100C580000F2BB802846A4EB0E0440EA03409EE75E
:100C6800C1F120078B4022FA07FC4CEA030C20FA5A
:100C780007F405FA01F31C43FD404FEA1C4900FA4A
:100C880001F3B5FBF9F8200C1FFA8CFE09FB185587
:100C980040EA054508FB0EF0A84202FA01F20BD91A
:100CA8001CEB050508F1FF3A80F08880A84240F265
:100CB8008580A8F1020865442D1AA4B2B5FBF9F0A5
:100CC80009FB105544EA054500FB0EFEAE4508D960
:100CD8001CEB050500F1FF346CD2AE456AD9023829
:100CE800654440EA0840A0FB0294A5EB0E05A54226
:100CF800C846A64656D353D05EB1B3EB080265EB9F
:100D08000E0505FA07F722FA01F3CD401F43C6E99D
:100D180000750021BDE8F087C2F1200320FA03F135
:100D28000CFA02FC25FA03F395400D434FEA1C47E1
:100D38001FFA8CFEB3FBF7F107FB11302B0C43EACB
:100D4800004301FB0EF0984204FA02F408D91CEBA8
:100D5800030301F1FF382FD298422DD90239634499
:100D68001B1AADB2B3FBF7F007FB103345EA034596
:100D780000FB0EF3AB4208D91CEB050500F1FF3868
:100D880016D2AB4214D902386544ED1A40EA014143
:100D980038E73146304607E78646E5E61846FAE67C
:100DA8004B45A9D2B9EB020864EB0C0E0138A3E756
:100DB8004046EAE7204694E74146D1E7D0467BE73C
:100DC800023B654432E7084609E76444023842E7D3
:100DD800704700BF002301461A46184600F08CB839
:100DE80038B5084B084D5B1B9C1007D0043B1D44CD
:100DF800013C55F804399847002CF9D1BDE8384032
:100E080004F020B8385100083451000870B50D4E70
:100E18000D4D761BB61006D0002455F8043B01345E
:100E28009847A642F9D1094E094D761B04F004F8FB
:100E3800B61006D0002455F8043B01349847A64262
:100E4800F9D170BD2C5100082C510008345100080C
:100E58002C510008830730B548D0541E002A3FD0D3
:100E6800CAB2034601E0013C3AD303F8012B9D07BF
:100E7800F9D1032C2DD9CDB245EA05250F2C45EA29
:100E8800054536D9A4F1100222F00F0C03F1200E0B
:100E9800E6444FEA121C03F1100242E9045542E904
:100EA800025510327245F8D10CF1010214F00C0F02
:100EB80003EB021204F00F0C13D0ACF1040323F07F
:100EC80003030433134442F8045B9342FBD10CF050
:100ED80003042CB1CAB21C4403F8012B9C42FBD179
:100EE80030BD64461346002CF4D1F9E70346144696
:100EF800BFE71A46A446E0E770B4184C2568D5F851
:100F080048411CB365681F2D25DC38B9AB1C013579
:100F1800656044F82310002070BC704704EB850C12
:100F28000228CCF88820D4F888614FF0010202FA30
:100F380005F246EA0206C4F88861CCF80831E5D122
:100F4800D4F88C311343C4F88C31DFE705F5A67467
:100F5800C5F84841D6E74FF0FF30DDE76C50000890
:100F6800C1F30A52F8B5A2F2FF35132D0B46844699
:100F78000C46064632DC002D1EDB354F2F4101EAB8
:100F88000702024315D030A3D3E90023FFF7EAF89C
:100F980000220023FFF72CFD48B1002C04DD4FF49C
:100FA800801343FA05F52C4424EA07040026234657
:100FB800B44660461946F8BD23A3D3E90023FFF7DA
:100FC800D1F800220023FFF713FD0028EFD0002CF2
:100FD80034DB26432ED01F4C0026E8E7332D08DDEE
:100FE800B5F5806FE5D10246FFF7BCF884460B469D
:100FF800DFE7A2F213424FF0FF37D7400742D8D0BD
:1010080011A3D3E90023FFF7ADF800220023FFF76F
:10101800EFFC0028CBD0002C09DD142D0CD00123C7
:10102800C5F1340503FA05F5AE1928BFE41826EA18
:101038000706BCE73446BAE70134F8E700264FF064
:101048000044B4E7AFF300809C7500883CE4377E29
:10105800FFFF0F000000F03FC1F30A52F8B5A2F2FB
:10106800FF35132D0B4684460C46064630DC002D12
:101078001EDB354F2F4101EA0702024315D030A38A
:10108800D3E90023FFF76EF800220023FFF7B0FC36
:1010980048B1002C04DA4FF4801343FA05F52C44C8
:1010A80024EA070400262346B44660461946F8BDDC
:1010B80023A3D3E90023FFF755F800220023FFF705
:1010C80097FC0028EFD0002C24DB00263446EAE702
:1010D800332D08DDB5F5806FE7D10246FFF742F8FA
:1010E80084460B46E1E7A2F213424FF0FF37D740A0
:1010F8000742DAD012A3D3E90023FFF733F800221E
:101108000023FFF775FC0028CDD0002C0BDB26EA66
:101118000706C8E724F000430C4A1E43002E18BFF8
:1011280014460026BFE7142D08D00123C5F1340565
:1011380003FA05F5AE1928BFE418E8E70134E6E735
:101148009C7500883CE4377EFFFF0F000000F0BF6D
:10115800F0B5C1F30A55A5F2FF3CBCF1130F83B0FB
:1011680002460B460C4686464FEAD17665DCBCF152
:10117800000F30DB424941FA0CF103EA0100104349
:1011880061D003EA510352EA030E4FEA51010DD030
:1011980024EA01014FF48024BCF1130F44FA0CF443
:1011A8000CBF4FF0004E4FF0000E0C43354901EBD9
:1011B800C6062346D6E90045724620462946FEF76C
:1011C800D1FFCDE90001DDE9000122462B46FEF7FB
:1011D800C7FF03B0F0BD21F0004101431946F8D024
:1011E800C3F3130343EA000E264ACEF1000343EA91
:1011F8000E0302EBC606D6E90067620C1B0B03F46C
:101208000023520443EA02010B460246394630469F
:10121800FEF7A8FFCDE9000132463B46DDE90001B3
:10122800FEF79EFF04F0004421F00041024641EA27
:1012380004031046194603B0F0BDBCF1330F06DDB8
:10124800BCF5806F18D01046194603B0F0BDA5F262
:1012580013454FF0FF31E9400842F4D010EA51023B
:101268004FEA5103A2D04FF0804E20EA03034EFA12
:1012780005F543EA050E99E7FEF774FFA9E700BFF5
:10128800FFFF0F007050000838B5C1F30A55A5F2EA
:10129800FF32132A0B4684468E4604461EDC002A7B
:1012A8000EDB1D49114103EA0100204313D04FF41E
:1012B800002343FA02F296442EEA010E002408E0C5
:1012C80001F0004E013204BF4EF07F5E4EF4401E26
:1012D80000247346A4466046194638BD332A08DD03
:1012E800B2F5806FF7D10246FEF73CFF84460B4605
:1012F800F1E7A5F213454FF0FF3121FA05F5284231
:10130800E9D00123C2F1330203FA02F2841828BF9C
:101318009E4424EA0504DCE7FFFF0F001FB50D48D3
:101328000D4C0122002101F04FFA01221146094813
:1013380001F04AFA01A801F00AFF4FF47A3301A933
:101348002046019301F020FF0121204601F00AFF09
:1013580004B010BD00F401400030004008B5012180
:10136800022001F025FD01211F2001F0C7FA01210B
:101378000D2001F0C3FA0121202001F0BFFA01215C
:10138800212001F0BBFA0121222001F0B7FA012146
:10139800412001F0B3FA0121032001F0AFFA012145
:1013A800002001F0ABFA01210E2001F0A7FA642019
:1013B80001F072F9012001F029FAFFF7AFFFBDE84B
:1013C800084003F039BA08B5FFF7C8FF00F0B6F8CF
:1013D800002008BD10B5054801F0DAF8044B0548AF
:1013E8009B6ABDE810401E21184700BF80500008C6
:1013F800D44F00086C04002010B5074801F0C8F865
:1014080041F2883001F048F9044B05489B6ABDE871
:1014180010401E21184700BF9A500008D44F0008FA
:101428006C040020024B00229A77DA77704700BFDD
:101438006C04002008B51A48102101F09CFE70B316
:10144800174801F076FE174B1A6A5A629A7F02F023
:10145800FF017AB9AA2807D1D977D97F4A1CD2B215
:10146800DA77585401229A77BDE808400C481021D1
:1014780001F087BEDA7F1D2A0ED8D97F4A1CD2B266
:10148800DA77DA7F58541E2AEED1012283F8282011
:1014980000229A77DA77E7E7FFF7C4FFE4E708BDA9
:1014A800003000406C04002070B504460A480B4E1A
:1014B8000D4601F06DF82544AC4200D170BD14F81A
:1014C800011B304601F030FE8021304601F026FE37
:1014D8000028F9D0F0E700BFAA500008003000400B
:1014E80030B585B001A801F032FE0F4C4FF47A33C5
:1014F800019360230125ADF8083001A90023204697
:101508008DF80A308DF80F5001F03EFE294620462E
:1015180001F028FE2A461021204601F010FE034B58
:1015280040221A6005B030BD0030004000E100E004
:1015380001480C21FFF7B8BF000000202DE9F04F4B
:101548003B483C4C3C4FDFF80881DFF80891DFF856
:1015580008A18BB001F01CF801211F2001F0CEF981
:101568000121202001F0CAF934480122002101F0AC
:101578002BF901221146314801F026F9FFF7B0FF97
:10158800FFF7D6FF2E4BE3622E4B236304F12C00AA
:101598003B689847FB682C489847002640F6B833C4
:1015A8000120CDE907630823CDE901030723009350
:1015B800CDE90566CDE90360FD69334632460E2163
:1015C800A847012001F068F8236A01332362236ADF
:1015D8009B1BB3F5967F02D3FFF7AAFF266A94F800
:1015E8002830B3B10025404684F8285000F0D0FFD9
:1015F800DFF840B01BF8011B4846013500F0C8FF72
:101608001E2DF7D1504600F0C3FFBB6A0948294692
:101618009847A37F002BD4D0236A626A9B1A642B55
:10162800CFD90A4800F0B4FFFFF7FCFEC9E700BFB6
:10163800AD5000086C040020D44F000800F40140AD
:1016480001140008DD13000840DA8E33E550000865
:10165800CE500008DF500008095100087047FEE727
:10166800FEE7FEE7FEE7704770477047704702F0F5
:10167800BBBC03F0EDB970472DE9F84F99460D9BB7
:1016880015469A07DDE90B4706468B4622D02A46BF
:101698000A9901EB04081444A2421FD10D9B9B0731
:1016A80005D5A2EB0508474505EB08041FD82046D9
:1016B800BDE8F88F4B4659462020B04708F101088D
:1016C800B8450AEB0802F5D33A1BBC4288BF002292
:1016D8002A44DDE7A046A5EB040AF1E702F1010A76
:1016E80018F8010D4B465946B0475246D4E74B46C9
:1016F800224659462020B04708F10108D3E72DE9D2
:10170800F047DDE90D7616F0020FDDE90854DDE952
:101718000BC89DF828E01FD106F001094FB1B9F1B7
:10172800000F06D0BEF1000F02D116F00C0F00D04A
:10173800013F4FF0300A04E0202C04D005F804A043
:101748000134A045F8D84FF0300AB9F1000F03D0A2
:10175800BC4201D21F2C34D916F0100F1FD016F43A
:10176800806F33D194B3444501D0BC422ED1B4F13B
:1017780001082AD0BCF1100F33D1023C16F0200F1B
:1017880031D11F2C15D84FF0780C05F804C001345E
:101798001F2C0ED84FF0300C05F804C001341F2C54
:1017A80007D8BEF1000F23D04FF02D0C05F804C068
:1017B8000134CDE90A76CDE90854BDE8F047FFF7D2
:1017C8005BBF05F804A00134BFE74446BCF1100F25
:1017D800D4D0BCF1020FDBD11F2CEAD84FF0620C39
:1017E800D3E74446F5E71F2CE3D84FF0580CCCE775
:1017F80016F0040F02D04FF02B0CD7E716F0080FA5
:10180800D7D04FF0200CD1E72DE9F04391B0189DC7
:101818001A9E1D9F0DB927F010077C0500D515B33A
:1018280017F0200F14BF4FF0410E4FF0610EAC4679
:101838000DF120080025AEF10A0EBCFBF6F906FBF7
:1018480019C95FFA89F4B9F1090F94BF30347444A7
:10185800E4B2B44508F8014BBCFBF6F405F1010508
:1018680001D3202D10D11C9C05941B9C0697CDE913
:1018780003649DF86440CDE9015408AC0094FFF777
:101888003EFF11B0BDE8F083A446D6E72DE9F04F3E
:101898002DED048B93B0DDE92065289F9A4656EA22
:1018A800050308BF27F0100709EE102A7A05DDE9BD
:1018B80024B908EE100A08EE901A02D556EA050374
:1018C8003DD017F0200F14BF412361230A3B0DF1CF
:1018D8002808002409935A464B4630462946FFF704
:1018E800D9F8D2B2092A8ABF099B3032D2185E458C
:1018F800D2B275EB090308F8012B04F1010401D3F6
:10190800202C19D1279B0593269B0697CDE903B375
:101918009DF88830CDE901430AAB009319EE102AEF
:1019280018EE901A18EE100A5346FFF7E8FE13B0A7
:10193800BDEC048BBDE8F08F06460D46CBE70024CE
:10194800E0E70000000000002DE9F04F2DED088BC6
:101958008DB01D46DDE920B39DED1E7B0A93229BC9
:10196800079208EE900AB0EE479AF0EE679A0C4696
:10197800069351EC170B53EC172BFFF711F880B1B6
:10198800CB4B51EC190B4FF0FF32FFF731F840B950
:1019980051EC190B4FF0FF326FF48013FFF70AF880
:1019A80090B1069B22930A9B079A18EE900ACDE9FC
:1019B80020B321462B468DED1E9B0DB0BDEC088B48
:1019C800BDE8F04F00F08CB951EC190B0022002350
:1019D800FEF7F0FF002800F03F8119EE903A19EE6B
:1019E800108A03F10049069B9FEDB27A9FEDB28AF7
:1019F80013F480630B93C9F30A53A3F2FF3307EE82
:101A0800903AC9F31302F8EEE77A42F07F51AB4BF4
:101A18004FF00002404641F4401108BF4FF0060B5A
:101A2800A7EE878AFEF79CFB9BA3D3E90023FEF76A
:101A38004FFD064618EE100A0F46FEF7F1FC024667
:101A48000B4630463946FEF78DFBFEF7DBFF07EE07
:101A5800900AB8EEE77ADFED9A7AB6EE008AA7EE3A
:101A6800278A8246DFED977ABDEEC88AF8EEC86A03
:101A780067EEE67ADFED946AE7EE267A17EE900ACB
:101A8800FEF7CEFC02460B4606460F46FEF720FD43
:101A9800324641EC1A0B3B4630463946FEF762FBAC
:101AA8008A4B41EC1B0B002251EC1A0BFEF73AFE55
:101AB800874B0022FEF756FB02460B4651EC1A0BE9
:101AC800FEF730FE834B0022FEF74CFB02460B4626
:101AD80051EC1A0BFEF726FE324641EC1A0B3B4638
:101AE80000204FF08041FEF73BFB02460B4651ECCD
:101AF8001A0BFEF737FB02460B4651EC1B0BFEF7A1
:101B080011FE754B0022FEF72DFB18EE103A03F27A
:101B1800FF3633050022FEF7DBFC42464B460646FD
:101B28000F46FEF765FF002840F09980CDE9086769
:101B38000AF16303C72B069B34BF04260526190543
:101B480023D557A3D3E9002340464946FEF746FF6D
:101B5800002800F08F8054A3D3E90023404649466B
:101B6800FEF728FF002800F08580069BD345C8BFF4
:101B7800ABEB0A0B43F480634FF00006CCBF0BF1CC
:101B8800FF3B4FF0000B0693B2460A9B9E4238BFBC
:101B98009F1B069B28BF002713F002030B9302D05C
:101BA800002E18BF0027BAF1000F07D0404649465B
:101BB800DDE90823FEF7B6FD8046894651EC190B8E
:101BC80000220023FEF7F6FE10B109F10043994602
:101BD800069B079ACDF808B023F40063CDE9037398
:101BE800CDE9008918EE900A2B46214600F078F8D6
:101BF8006EB3069B13F0200F00F1010802462B4636
:101C080014BF45206520214618EE907AB847052371
:101C1800059300220A238AEAEA70CDE90232A0EB92
:101C2800EA704FEADA73013E019300902B4618EEF2
:101C3800900A049642462146FFF7E6FD0B9B33B116
:101C4800079BC61A079B98190A9BB3421BD80DB06D
:101C5800BDEC088BBDE8F08F59EC198BC3E61C4B23
:101C6800002230463946FEF75DFD0AF1FF3ACDE91C
:101C780008015DE7BBF1000F87D00B9B002B84D0D8
:101C88000BF1FF3B81E7024618EE907A2B4621467E
:101C98002020B8470136D5E700000060A787D23F6B
:101CA800000000E0E2361A3F0000000080842E4168
:101CB800FFFFEF7F9B209A3E4451343E0000F83FDF
:101CC800789A54401872313F8E5D134000002C40C2
:101CD80000002440000018400000F03F0000000011
:101CE8002DE9F04F2DED088B8FB0DDE920AB09EE23
:101CF800103ADDE9225308EE100A08EE902A0F4642
:101D0800049352465B4650465946249EFEF748FEC9
:101D1800A0B9049B229303232193B94B23962093C4
:101D280018EE902A19EE103A18EE100A39460FB03C
:101D3800BDEC088BBDE8F04FFFF79EBC4FF0FF32BB
:101D48006FF4801350465946FEF734FE30B1049BB9
:101D58002293042321932396AA4BE0E7AA4B4FF042
:101D6800FF3250465946FEF743FE70B1A74A049920
:101D7800239606F00403002B08BF0322A44B1CBFC4
:101D880013460422CDE92121C9E799A3D3E9002309
:101D980050465946FEF72CFE38B997A3D3E90023DD
:101DA80050465946FEF706FE98B1049B2496CDE9A5
:101DB800225318EE902A19EE103A18EE100A3946F6
:101DC800CDE920AB0FB0BDEC088BBDE8F04FFFF7B5
:101DD800BBBD0022002350465946FEF7EBFD002804
:101DE80000F081805B46524600200021FEF7B8F9DA
:101DF800012382468B46059316F4806F08BF06259B
:101E080006ABA5F12002A9463021B9F1090FA5EBCF
:101E1800090406D909F1FF394A4503F8011BF4D131
:101E2800202459465046FEF7EDFD7A4B03EBC903D3
:101E380093ED007B0546B0EE47AAF0EE67AAFEF7E1
:101E4800DDFA02460B4650465946FEF789F953EC2F
:101E58001A2BFEF73DFB02460B4643EC1B2BFEF705
:101E6800F9FD8046FEF7BAFA02460B4651EC1B0B09
:101E7800FEF776F902460B4643EC1B2B664B002215
:101E8800FEF7B6FD88B308F101084046FEF7A6FA4A
:101E980002460B4651EC1A0BFEF796FD10B10135C0
:101EA8004FF00008B9F1000F50D12846FEF7A6FA06
:101EB80002460B4650465946FEF752F9564B002249
:101EC80080468946FEF776FD30B1534B00224046E6
:101ED8004946FEF78DFD10B1E80700D5013506AB80
:101EE80023440A2259E0059086E74B4B51EC1B0B23
:101EF8000022FEF75FFD0028D4D1B8F1000F02D010
:101F080018F0010FCED008F10108CBE7B8FBF1F0CB
:101F180001FB10823032B8F1090F03F8012B09F1E7
:101F2800FF3904F1010428D8A14406AA3021202C45
:101F380011D04C4504F1010321D104F138020DEB15
:101F480002042E2204F8202C1C46C8E706AB2344C2
:101F58000A21202CDAD106F00303012B06AB39D174
:101F6800049A002A36D0059A12B916F00C0F02D03E
:101F7800049A013A0492302214E08046E9E7A15419
:101F88001C46D4E795FBF2F102FB1155303503F8F6
:101F9800015B01340D460029DDD0202CF2D1DAE7AF
:101FA8001A5501340499A14214D9202CF8D1049A65
:101FB8000093CDE9014219EE103A18EE902A18EE76
:101FC800100A03963946FFF757FB0FB0BDEC088B94
:101FD800BDE8F08F202CEAD0059AFAB104F1380256
:101FE8006A442D2102F8201C0134E0E7AFF3008099
:101FF8000000000065CDCD410000000065CDCDC1D9
:102008001451000818510008FFFFEF7F0F51000816
:102018000B510008584E00080000E03F710704D536
:1020280004F138026A442B21DCE73207BFD504F1FA
:1020380038026A442021D5E7014610B1014801F071
:1020480073B87047003000402DE9F04F91B09B46BF
:10205800B74B1A9E0029904614BF81469946002521
:102068009BF8000058B945452CBF08F1FF322A46B5
:1020780043460020C847284611B0BDE8F08F252800
:102088000BF1010B06D02A466C1C43460A91C8473F
:102098002546B2E1002306E02D2A14D0302A0CD1BF
:1020A80043F001038346584610F8012B2B2A0DD024
:1020B800F2D8202A0DD0232A0ED0A2F13004092C00
:1020C80029D8002710E043F00203EBE743F00403AC
:1020D800E8E743F00803E5E743F01003E2E70A24E2
:1020E80004FB0727303F8346584610F8012BA2F11E
:1020F8003004092CF3D99BF800202E2A67D19BF8CD
:102108000100A0F13004092C0BF1010243F48063B3
:1021180053D8002411E02A2A08D156F8047B002F4E
:10212800BCBF43F002037F428346E4E70027E2E7AF
:102138000A2202FB0404303C624694461CF8010B58
:10214800A0F1300EBEF1090FF2D993465A4612F8A3
:10215800010B6C2844D03CD868284AD06A2852D051
:102168005A4693461BF8010B78288CD857284DD827
:10217800452805D087D9462800F02C81472882D1E8
:1021880000F0DF02472A04BF00F0FD0043F40063BB
:10219800452808BF43F02003CDE90373073626F02E
:1021A80007060294F6E802234846CDE90023434691
:1021B8002A460A91FFF7C8FB1EE12A2806D156F8DD
:1021C800044B0BF1020B24EAE474BFE793460024A6
:1021D800BCE7742801D07A28C2D143F48073C0E7E1
:1021E8009BF801006C28F8D143F440730BF102020C
:1021F800B7E79BF80100682802D043F08003B0E7F6
:1022080043F0C003F2E743F40073AAE7A0F15802D1
:10221800202A3FF638AF0FF2080C5CF822F000BF16
:10222800AD2200088F2000088F2000088F200008AA
:102238008F2000088F2000088F2000088F200008BA
:102248008F2000088F200008AD220008072400080E
:10225800AD22000889210008E1230008892100082F
:102268008F200008AD2200088F2000088F2000086A
:102278008F2000088F2000088F200008AD2200085A
:102288005D2500088F2000088F200008872400089B
:102298008F200008AD2200088F2000088F2000083A
:1022A800AD220008782800F06B81582800F066817C
:1022B8006F2800F06781622800F06681692823F0A2
:1022C80010034FF00A0203D0642801D023F00C0356
:1022D80013F4806F18BF23F00103692803F4007C0E
:1022E80001D0642841D1BCF1000F23D0073626F075
:1022F8000706B24676685AF8080B0694CDE90773C4
:1023080000230593F30F002E02930492034602DA8A
:10231800434266EB4606CDE9003643462A46484620
:102328000A91FFF7B3FA0A990546564698E600BFA0
:102338007F160008D80506F1040A0CD53068CDE9E7
:102348000224CDE9047300284FEAD0730193B8BF83
:102358004042009027E013F0400F306801D0C0B22F
:10236800EDE71E0648BF00B2E9E7BCF1000F0ED04A
:10237800CDE907730023CDE90423073626F0070AC1
:1023880006940293FAE80223CDE90023C5E7D805AD
:1023980006F1040A0ED5CDE90473CDE90224CDF87F
:1023A80004C03368009343462A4648460A91FFF71B
:1023B8002BFAB8E713F0400F306807D0C0B2CDE968
:1023C80004730023CDE902240193C2E71E0648BF27
:1023D80080B2F4E743F02003CDE90373073626F013
:1023E80007060294F6E802234846CDE9002343464F
:1023F8002A460A91FFF774FC05460A9930E613F05D
:10240800020426D04FF0010A56F8040B0B916B1CFE
:102418000A932A464346C0B2C8470B996CB30A9A36
:10242800544620E00A9143462020C8470A990AEBFF
:1024380005020AF1010A5745F4D8002F07F1FF33C6
:1024480008BF002307F1010A1D4408BF4FF0020A24
:10245800DAE7A246EBE70B9143462020551CC84714
:102468000B9901342A46BC42F5D30A9AA7EB0A0312
:10247800574538BF00231A440A920A9DF0E53246B0
:1024880052F8046B0A92414A002E08BF1646002CE7
:1024980014BF22464FF0FF323244B4469CF8000085
:1024A80008B1944511D113F48062ACEB060A0B9283
:1024B80002D0A24528BFA24613F002030C931DD1F7
:1024C800AAEB05032A460E930AE00CF1010CE5E796
:1024D800531C0D930F9143462020C8470D9A0F991E
:1024E8000E9BD3189F42F3D8A7EB0A03574538BF72
:1024F80000230AF101021D4403EB020AAB1B0D93F2
:1025080005E01C460E9143462A46C8470E990D9B86
:102518009D1916F8010B28B10B9B002BF2D0631EF6
:10252800002CEED10C9B9BB12A46AAEB050406E0D1
:102538000B9143462020561CC8470B993246131965
:10254800BB42F5D3A7EB0A03574538BF00231D4408
:102558000A9E85E543F0210305930823CDE903434B
:1025680010220023CDE9013256F8043B00932A4695
:10257800434648460A91FFF747F93DE743F02003F1
:102588001022A3E60822A1E602229FE61D510008B8
:102598000FB41FB506AA02A952F8043B0392009291
:1025A80004484FF0FF32FFF74FFD05B05DF804EB2C
:1025B80004B0704741200008064B0748E02283F822
:1025C8002220C0210023C2180133252B82F80013D2
:1025D800F9D1704700ED00E000E100E00F4A08B5CE
:1025E800D2F8883043F47003C2F888304FF0804244
:1025F800D36843F08003D36002F50032536923F4B3
:10260800702343F48033536193689B07FCD5FFF72D
:10261800D3FFBDE8084000F003B800BF00ED00E0BC
:1026280008B5012000F0FEF80C4B984214D90C4A6A
:102638000133B0FBF3F313700A4A4FF47A73B0FB1B
:10264800F3F04FF0E0230138E021586182F82310BD
:1026580000229A6107221A6108BD00BF3F420F009D
:10266800B404002000ED00E030B50A4B4FF0E02143
:102678001B784D695BB18C69584300238A69944281
:10268800FCD0234498BF5B199B1A834200D330BD0A
:102698001446F3E7B40400204FF47A735843FFF765
:1026A800E3BF0000012310B58B40062A00F28280A8
:1026B800DFE802F0040F1B293849630002681A4357
:1026C800026082681A438260C26822EA0303C36018
:1026D80038E002681A43026082681A438260C2685E
:1026E8001A43C260026913430BE002681A4302608E
:1026F80082681A438260C2681A43C260026922EA89
:10270800030303611EE0026822EA03020260826892
:1027180022EA03028260426822EA03024260826976
:1027280013430EE0026822EA03020260826822EA8A
:1027380003028260426822EA03024260826922EA56
:102748000303836110BD1F4CA0426FEA03020BD143
:10275800072909D981691140816181680A4082602D
:1027680002681A430260BDE7016811400160816890
:102778000A40826042681A43D0E7124CA0426FEACE
:1027880003020AD1072908D981691140816181684A
:102798001140816001680A40E4E701681140016066
:1027A80081681140816041680B43436083691A4026
:1027B8008261C7E702681A430260826822EA03025C
:1027C80081E700BF00FC0140072910B511D90E4B65
:1027D800083998420BBF01EB4101890007230F23F9
:1027E8008B4002FA01F1C26B22EA03031943C16369
:1027F80010BD836B89000F248C4023EA040302FA7E
:1028080001F119438163F3E700FC0140044AD368EE
:1028180018B143F08003D360704723F08003FAE7D0
:10282800008000404FF0804301461A6802F4E042FD
:10283800B2F5A04F20D015D8B2F5805F1ED0B2F502
:10284800005F1B4808BF4FF4004002291BD0032932
:1028580023D0012905D14FF080431B68C3F303231C
:10286800D8407047B2F5C04F0BD0114B1148B2F5A4
:10287800E04F18BF1846E8E70F48E6E74FF4FA407C
:10288800E3E70E48E1E74FF080421368C3F3032300
:10289800D8401368C3F34213E2E74FF0804213684D
:1028A800C3F30323D8401368C3F3C233D8E700BF88
:1028B80000366E01006CDC020048E80180EE36004C
:1028C8004FF08043986800F4C03070474FF0804361
:1028D800986800F4C04070474FF08043986800F44F
:1028E800C05070474FF08043986800F4C06070474C
:1028F8004FF08043586800F00200704741284AD8DA
:10290800DFE810F011020702FD01E401D201B9016C
:10291800710167015D01530149013F0135010D0155
:102928000301D600EA00E000CC004900C200B8006C
:10293800AE00A30099008F0085006B00610057006E
:102948004D004200170121012B01490049004900AF
:102958004900490049004900490049004900490027
:10296800490049002E0225021B0238029501490040
:102978004900490049004900490049004900490007
:102988004900490042024C024FF08043DA6819B10D
:1029980042F48012DA60704722F48012FAE74FF0AE
:1029A8008043DA6811B142F40022F3E722F40022EE
:1029B800F0E74FF08043DA6811B142F48022E9E78A
:1029C80022F48022E6E74FF08043DA6811B142F43E
:1029D8000032DFE722F40032DCE74FF08043DA68A8
:1029E80079B142F48032DA604FF080439A6A02F09B
:1029F8003F023F2AFAD15A6931B142F004025A61C2
:102A0800704722F48032EEE722F00402F7E74FF035
:102A18008043DA6811B142F40042BBE722F4004275
:102A2800B8E74FF08043DA6811B142F48042B1E769
:102A380022F48042AEE74FF08043DA6811B142F4E5
:102A48000052A7E722F40052A4E74FF080431A6926
:102A580019B142F020021A61704722F02002FAE709
:102A68004FF08043DA6811B142F4805292E722F4C1
:102A780080528FE74FF08043DA6811B142F4006268
:102A880088E722F4006285E74FF08043DA6811B1E5
:102A980042F480627EE722F480627BE74FF0804355
:102AA800DA6811B142F4807274E722F4807271E737
:102AB8004FF08043DA6811B142F020026AE722F051
:102AC800200267E74FF08043DA6811B142F08002D4
:102AD80060E722F080025DE74FF08043DA6871B169
:102AE80042F04002DA604FF080439A6A02F03F02F7
:102AF8003F2AFAD15A6929B142F008027FE722F049
:102B08004002EFE722F0080279E74FF08043DA68E5
:102B180011B142F010023DE722F010023AE74FF0FF
:102B28008043DA6811B142F0007233E722F0007294
:102B380030E74FF08043DA6811B142F0807229E73C
:102B480022F0807226E74FF08043DA6811B142F430
:102B580000021FE722F400021CE74FF08043DA6806
:102B680011B142F4800215E722F4800212E74FF017
:102B78008043DA6811B142F008020BE722F008023C
:102B880008E74FF08043DA6811B142F0040201E728
:102B980022F00402FEE64FF08043DA6811B142F0F9
:102BA8000202F7E622F00202F4E64FF08043DA6808
:102BB80011B142F00102EDE622F00102EAE64FF01F
:102BC8008043DA6811B142F00062E3E622F0006265
:102BD800E0E64FF08043DA6811B142F08062D9E64E
:102BE80022F08062D6E64FF080431A6979B142F448
:102BF80000721A619A6A02F03F023F2AFAD15A69B2
:102C080042F010025A611A6942F0100223E722F0DA
:102C180010021A619A6A02F03F023F2AFAD15A69F1
:102C280022F010025A611A6922F4007213E74FF079
:102C380080431A6979B142F480521A619A6A02F0A3
:102C48003F023F2AFAD15A6942F020025A611A69B2
:102C580042F40062FFE622F400621A619A6A02F006
:102C68003F023F2AFAD15A6922F020025A611A69B2
:102C780022F48052EFE64FF080431A6971B142F0B6
:102C880008021A614FF080439A6A02F03F023F2A15
:102C9800FAD15A6929B142F00102B0E622F00802DD
:102CA800EFE722F00102AAE64FF080431A6931B13A
:102CB80042F004021A611A6942F04002CBE622F09F
:102CC80004021A611A6922F04002C4E64FF08043F8
:102CD8001A6971B142F002021A614FF080439A6A90
:102CE80002F03F023F2AFAD15A6929B142F00202A2
:102CF80085E622F00202EFE722F002027FE64FF0BB
:102D08008043DA6811B142F0805243E622F08052E3
:102D180040E64FF080431A6911B142F001029AE689
:102D280022F0010297E64FF080431A6911B142F090
:102D3800800290E622F080028DE64FF080431A6907
:102D480011B142F4807286E622F4807283E64FF075
:102D58008043DA6809B11A431CE622F0804219E67A
:102D68004FF08043DA6811B142F0005212E622F0C7
:102D780000520FE64FF080431A6911B142F48062A5
:102D880069E622F4806266E64FF08043DA6811B1A2
:102D980042F40012FEE522F40012FBE54FF08043F6
:102DA800DA6811B142F00042F4E522F00042F1E5A0
:102DB80010B50C4605280ED8DFE800F003151F28CB
:102DC800345F374A3749936934B123F0200393615C
:102DD8008B685B07FCD510BD43F0200393618B68BB
:102DE8005C07FCD4F7E72E4A936819B123F4004333
:102DF8009360F0E743F40043FAE7294A936811B176
:102E080023F4C043F4E743F4C043F1E7244A936949
:102E180023F0180319B143F008039361DBE743F08B
:102E28001003FAE701210E20FFF768FD1E4BD3F8C7
:102E38000421CCB190060BD4D3F8042142F020022F
:102E4800C3F80421D3F8042122F08002C3F8042136
:102E5800154BD3F8042142F00402C3F80421D3F837
:102E680008219107FBD5B6E722F00402C3F8042134
:102E7800D3F808219207FBD4ADE7094A09499369B9
:102E880034B123F0400393618B68002BFCDAA2E78E
:102E980043F0400393618B68002BFCDB9BE700BF8A
:102EA8000080004000820040009000403F281ED86B
:102EB8002F280DD90123303803FA00F04FF0804352
:102EC800DA6911B91043D861704722EA0000FAE7BD
:102ED800A0F12003DBB2022B98BF0D20012303FAD7
:102EE80000F04FF080439A6911B910439861704718
:102EF80022EA0000FAE708B500210320FFF7FEFCEC
:102F080001210320FFF7D2FFBDE80840002103207C
:102F1800FFF7CCBF034940F6FF53CA6A33EA0202FF
:102F2800FBD1704700E0004008B5FFF7F3FF054B01
:102F38001A6818B142F080521A6008BD22F0805217
:102F4800FAE700BF00E0004008B5FFF7E3FF054BD4
:102F58001A6818B142F080721A6008BD22F08072B7
:102F6800FAE700BF00E00040012808B50AD8FFF7DB
:102F7800D1FF054B1A6801280CBF42F0007222F0FD
:102F880000721A6008BD00BF00E00040F8B50546B1
:102F980000285ED0314B5F6BB9B25E6C5A6CB2429E
:102FA800FBD19C6C9A6CA242FBD15A6B92B29142B3
:102FB800F1D10029EFD0FFF79BFCBFB207EE907A62
:102FC800B8EEE77AF6EE007A002843D1DFED246AFE
:102FD800C6F3021306F00F0203EB830302EB43036D
:102FE800EB71C6F3C223C6F3C31203EB830302EBF0
:102FF8004303AB71C6F3814303EB8303C6F3833604
:1030080006EB4306C4F3011304F00F0203EB83033A
:1030180002EB43032B71C4F38023C4F3831203EB45
:10302800830302EB4303E7EE267AEB70C4F3C22373
:10303800AB70C4F3834303EB8303C4F38334FCEE24
:10304800E77A04EB430404F5FA64C5ED027A6E717D
:103058002C80F8BDDFED036ABAE700BF00E000404E
:103068000024F4410000FA41402810B50C4608D06D
:10307800431EDBB21F2B09D8054A22FA03F3DB07EC
:1030880004D5FFF747FF0CB9024BD86110BD00BF4C
:103098008B80008000E00040402808B508D0431E1F
:1030A800DBB21F2B0ED8084A22FA03F3DB0709D537
:1030B800FFF730FF054BDB6930EA03030CBF012043
:1030C800002008BD0020FCE78B80008000E0004065
:1030D80080280AD0402808D0431EDBB21F2B0DD809
:1030E800074A22FA03F3DB0708D5012906D8054B5E
:1030F8009A6A0CBF104322EA00009862704700BF2A
:103108008B80008000E0004008B518B1FFF702FF8F
:10311800014B986108BD00BF00E0004083690B4285
:1031280014BF01200020704783699B06FCD401600E
:1031380070478369DB06FCD40068C0B27047836BB4
:103148001AB923EA0101816370471943FBE74FF479
:10315800E133036060238380002383714FF44013BD
:1031680083607047036B19B143F001030363704731
:1031780023F00103FAE7036C0B4214BF012000207F
:10318800704741647047000038B5036B23F00103B2
:103198000363C36A23F01003C36200238363464BAF
:1031A800984204460D463ED1FFF78AFBC00B013812
:1031B800022850D8414B53F820002B68B0EB031F6E
:1031C8004FEA031175D36BB1B0FBF1F201FB1200AA
:1031D800C000B0FBF3F000F0010303EB500080B235
:1031E80040EA02431A0C03F03F036262A362E36AF7
:1031F8002A7923F060031343E362E36AAA7923F090
:1032080008031343E362EB7A8BB3E36A43F01003DA
:10321800E3626B79012B2ED0022B42D09BBBE36A71
:1032280023F002032EE0B0F1402F04D1FFF74EFB4C
:10323800C0F34F30BBE7224B984204D1FFF74CFB59
:10324800C0F3CF20B3E71F4B98420ED1FFF74AFBDC
:10325800C0F34F20ABE7184B9C4202D0B4F1402F8B
:1032680003D10220FFF7DEFAA7E70320FAE7E36AB3
:1032780023F01003CCE7E36A43F00203E362E36A56
:1032880023F00403E362236BAA7A23F03003134389
:103298002363236B2A8923F44043134323630020C9
:1032A80038BDE36A43F00203E362E36A43F00403D0
:1032B800E8E74FF0FF30F3E700300040A84E000881
:1032C8000000014000100140FFF7E6B910B501F019
:1032D8001BFB044601F0A4FB064B1B68011B241AC8
:1032E80003B910BD1A688A428CBF121900221A60ED
:1032F8001B69F5E7B8040020054A13680BB10021E3
:1033080019720361012310600372006801F0ACBAFE
:10331800B80400200023C0E90033C0E90313037296
:103328007047000070B5044601F0ABFB64B11A4E5B
:103338003268134663B961682160237262B901F08B
:103348006FFB2046FFF7D8FFBDE8704001F09BBB3C
:103358009C42F9D01B69EDE701F06EFB22683368E7
:103368000244226019688A42054605D2FFF7AEFF7B
:103378002068401B2060E4E71969186910B91C61CE
:103388002061E1E70868824202D90B460969F4E73F
:103398001C612161D8E700BFB804002070B5184C43
:1033A800FFF794FF23682BB11A69DB68226003B921
:1033B800FEE798470025236833B9FFF787FF23689E
:1033C800A3B970BD9847F6E71E6801F035FB864241
:1033D80075EB010303D323681B68002BEDD1236829
:1033E8001A69DB682260002BECD1FEE71A7A002A02
:1033F800E7D10122BDE8704018681A7201F034BAAA
:10340800B804002070B5164D044601F03AFB2B684D
:1034180003B11CB9BDE8704001F035BBA34215D11A
:10342800237A266983B16EB1002323722E60FFF7D9
:103438004DFF2B68012218681A7201F015FA002353
:103448002372E7E701F056FA2E60F8E71A461B697F
:10345800002BF4D09C42F9D123691361EFE700BF38
:10346800B804002038B504460D46FFF7CBFFC4E981
:10347800005538BD08B501F04DFA034AD2E90232C9
:10348800C01842EB010108BDB804002038B5044655
:103498000D46FFF7EFFF001B61EB050138BD01206A
:1034A80070470000034B1B6813B15B6803B11847F2
:1034B800704700BFCC040020034B1B6813B1DB68C6
:1034C80003B11847704700BFCC040020002000F06B
:1034D80029BE000038B5164C254645F8040B00F007
:1034E80061FF002000F01EFE012000F0CAFE00214E
:1034F800084601F0FBF80421002000F0ADFF00238E
:10350800194618461A4600F017FF28460949FFF7DA
:1035180001FF04F118000849FFF7FCFE04F12C0034
:103528000649FFF7F7FE002084F8400038BD00BFC9
:10353800CC040020AD340008C1340008B5360008BA
:1035480008B500F063FDC31EDBB2022B9ABFC0F1C1
:103558000600C0B2002008BD00F03ABF08B501F06F
:10356800D2F800B208BD01F0B9BB01F083BB00007E
:1035780070B500230C4640F201211A46064608465B
:1035880000F0DAFE00F062FF0C4D01280C480CBF79
:1035980085F8534085F84C4001F024F82146304620
:1035A800002200F0EBFDD5F880100648FFF75AFF1F
:1035B800BDE870400348FFF7B5BE00BFCC0400204B
:1035C80010050020D004002008B54FF0040000F0DA
:1035D80097FDBDE808400220FFF776BE00F00ABE5E
:1035E80037B5184B93F87C500F2805F10D05EDB24F
:1035F80022D8072822D8032822D8012894BF0024DB
:10360800012400234FF4C0711A46084600F094FEC6
:10361800002300930A222946204601F049F800F0C9
:1036280007FE09484FF4FA61FFF71CFF064803B08C
:10363800BDE83040FFF776BE0424E2E70324E0E764
:103648000224DEE7CC040020F804002010B50C4664
:103658002DED028B08EE102A00F0BAFE204601F08C
:1036680091FB00F0F1FDDFED0A7A0A48B8EEC88A4E
:1036780028EE278AFCEEC87A17EE901AFFF7F2FEBA
:10368800BDEC028B0348BDE81040FFF74BBE00BFFE
:1036980000007A44E404002001F0C8BA01F0F6BA48
:1036A80008B501F02DFA033008BD000010B5002060
:1036B80000F0B2FC044B1B682BB19B691BB1BDE841
:1036C80010400020184710BDCC04002010B590B160
:1036D8000A4B012219461C68A04206D39C68A042E6
:1036E80003D201EBC202107910BD0132162A03F190
:1036F8000803F0D1FEE71F20F6E700BFB84E000828
:103708000128094806D1094B80F853101970443034
:1037180000F068BF90F84B30012B04D1034B80F8C0
:103728004C101970F3E77047CC04002018000020F3
:10373800002340F2422110B51A460446084600F01C
:10374800FBFD34B10A482146FFF78CFE0848FFF715
:10375800E9FD084B93F884202AB16FF07F40BDE85B
:10376800104000F015BDD3F888008001F7E700BFCE
:10377800E4040020CC0400200023022110B51A46DE
:103788000446084600F0D8FD34B10A482146FFF740
:1037980069FE0848FFF7C6FD074B93F884202AB155
:1037A8006FF07F40BDE8104000F008BDD3F88800F6
:1037B8008001F7E7E4040020CC04002037B5574C1B
:1037C80094F84030002B00F0A68001F05AF900234D
:1037D80084F8403001F057F9B4F88C30D9070AD58D
:1037E800201DFFF70FFE012000F016FC236813B11F
:1037F8001B6803B19847B4F88C309A0732D548480B
:10380800FFF700FE94F8845095B9012000F004FCFD
:10381800294640F6021001F02DFA40F6441001F056
:103828005DFA40F00200C1B240F6441001F022FAFD
:10383800FF220DF107013B4800F096FF3A4800F0DF
:10384800ADFF236873B19D6865B1B4F88C305B0631
:1038580008D494F99D3194F99C219DF807103148BA
:103868001A44A847B4F88C3058060AD594F884301E
:1038780013B9012000F0D0FB236813B11B6903B111
:103888009847B4F88C3019060ED52848FFF7BAFDCA
:10389800012000F0C1FB236833B19B6923B1B4F860
:1038A8008C00C0F300209847B4F88C309A050ED5E8
:1038B80000F0ACFB04281FD11D48FFF7A3FD012031
:1038C80000F0AAFB236813B15B6803B19847B4F80A
:1038D8008C309B061FD51248FFF794FD94F884306E
:1038E80013B9012000F098FB2368A3B1DB6893B1FA
:1038F80003B0BDE83040184700F088FB0528E6D142
:103908000748FFF77FFD012000F086FB2368002BA6
:10391800DDD0DB68D9E703B030BD00BFCC040020A0
:10392800E40400205A0500205C060020F80400206A
:10393800D00400200E4B10B5044683F8A40183F888
:10394800A50100F017F85CB134214FF4E86001F0EC
:1039580091F94421BDE8104040F2417001F08AB964
:1039680014214FF4E86001F085F92421F2E700BF43
:10397800CC04002008B5012000F058FD064B93F850
:10398800A40193F8A521824205D083F8A501BDE8DA
:103998000840FFF7CFBF08BDCC040020012808B5B8
:1039A80007D0002000F042FD044B002283F8A52137
:1039B80008BDBDE80840FFF7DDBF00BFCC0400200C
:1039C80070B50D4616461C46FFF7E8FF284600F07E
:1039D800FFFC0020FFF7ACFE0120FFF775FCFFF7A6
:1039E80049FD054628460021FFF750FDA04271F128
:1039F800000304D30124FFF7E7FD204670BD00F063
:103A080082FE00B28642EDDA0024F4E737B5FFF70C
:103A1800B1FF002000F0BCFB002425460120FFF781
:103A280053FC00F070FE00F00103A3400134202C89
:103A380045EA0305F2D101F0BBF928440190FFF7EC
:103A4800C3FD019803B030BD0A2838B50DD8084B1E
:103A580003EBC000D0E92C4501208840FCF7CEFCE0
:103A680022462B46FCF75EFE38BD00240025F3E70E
:103A7800B84E0008000000002DE9F04F85B00E4652
:103A88009DF84C1000919DF85C109DF84470BDF8AD
:103A980040907B4CDFF804A2BDF83C8084F8841089
:103AA800002918BF4FF00009002F15469DF848203F
:103AB80008BFFF228AF80020834620B101286DD074
:103AC80005B0BDE8F08F00F0C4FB0B23304684F846
:103AD800783084F86CB02567FFF7F8FD41F60403E9
:103AE800A4F848309AF8003084F84C30009B84F8E9
:103AF8007900002B14BFF223012387F0010784F813
:103B08004D304FEAC808012384F84E3084F84B70D2
:103B180084F844B0A4F8468084F84AB0FFF7D6FC8D
:103B280094F86C00003818BF0120FFF737FF04F144
:103B38006C0000F0F1FC04F1440000F053FD514A20
:103B4800D2F80801D2F80C1102AB03C302A800F0A6
:103B58008AFA40F2FF1000F0B7FA2846FCF73EFC5C
:103B680002460B4600204849FCF7DCFD474B002283
:103B7800FCF7AEFC064648460F46FCF73FFC0246FB
:103B88000B4630463946FCF7A3FC414B0022FCF7B4
:103B98009FFCFCF75FFFC4F8880091E700200193C1
:103BA80000F057FB5FFA89F000F05FFB354A019B94
:103BB80084F86CB032445FFA85F992F8100184F801
:103BC8007C9084F87D0084F87E30CEBB0B3D012DBF
:103BD8003AD80123A9F10509994584F87FB084F8FA
:103BE80044303FD8B8F10B0F3CD80C23A4F8503020
:103BF8009AF8003084F85330009B84F854309DF8CC
:103C0800583084F8553084F85270FFF7B3FE2148D5
:103C180000F082FC204800F0E5FC94F85530012BB8
:103C280040F2367021D101F059F800F0FB0140F262
:103C3800367001F01FF84FF6FF73C4F888303FE77D
:103C4800012E01D10C2DC4D04946FFF7FDFE0AA371
:103C5800D3E90023FCF7C2FEB0F1000B18BF4FF008
:103C6800010BB6E7A4F85080C2E701F037F840F03E
:103C78000400C1B2DBE700BF000000A0476130408C
:103C8800CC040020B84E00080000F03F000020409F
:103C980000408F4038050020100500201800002043
:103CA8002DE9F74F0C9EBDF838709DF83C909DF8B3
:103CB80040B0614C8A469046054648B101284DD02F
:103CC80040F6890001F00AF840F00400C1B28EE025
:103CD8000B2284F86C00184684F878202667FFF7D2
:103CE800F5FC41F60403BBF1000FA4F8483014BFFB
:103CF800F223012384F84D30FF00012389F00109E4
:103D080084F84E3084F87900C4F8748084F84450FC
:103D1800A4F8467084F84A5084F84B90FFF7D6FB15
:103D280094F86C00003818BF0120FFF737FE04F143
:103D38006C0000F0F1FB04F1440000F053FC3F4A32
:103D4800D2F80801D2F80C116B4603C3684600F09C
:103D58008AF940F2FF1000F0B7F9B1E7374A9DF849
:103D6800341084F86C001A445FFA86F892F810014F
:103D780084F87C8084F87D0084F87E10002B43D181
:103D88000B3E012E44D80123A8F10508984584F874
:103D98007F5084F8443047D80B2F45D80C23A4F81B
:103DA8005030274B84F852901B7884F853309DF894
:103DB8004C3084F8553084F854B0FFF787FB94F8FA
:103DC8006C00003818BF0120FFF7E8FD1D4800F01F
:103DD800A3FB1D4800F006FC94F87D30062B7FF409
:103DE8006FAF40F6890000F079FF00F0FB0140F664
:103DF800890000F03FFF504600F0C4FF149BC4F850
:103E0800803003B0BDE8F08F012B01D10C2EBAD061
:103E18004146FFF719FE06A3D3E90023FCF7DEFDB0
:103E2800051E18BF0125AEE7A4F85070B9E700BF1A
:103E3800000000A047613040CC040020B84E0008C4
:103E480018000020380500201005002000000000A0
:103E58002DE9F74F884628B1012841D0002003B04A
:103E6800BDE8F08F5C4A9FED5D6A92F84910B2F8A0
:103E7800463003EBD10307EE903A92F84B30F8EE58
:103E8800E77A002B07EE108AF7EE006A08BFF0EE1B
:103E9800466A77EEA67AB8EEC77A92F84D3077EE92
:103EA800877A022BB0EE007A18BFB0EE467A77EE2A
:103EB800877AB2EE007A67EE877A92ED1C7AB8EECE
:103EC800477AC7EE876ADFED467A66EEA77A17EE7D
:103ED800900AFCF7A5FAFDF73BF9FCF7BBFDBEE736
:103EE800DFF8F4A09AF87CB09AF87D005946FFF7FD
:103EF800ABFDBAF8503007EE903AF8EEE77AB1EE3B
:103F0800017A77EE877A04460D4617EE900AFCF799
:103F180087FA22462B46FCF7DBFA9AF85230064617
:103F2800CBEB48089AF85400012B08F1070808EB76
:103F380080080CBF14200020C0EB88000F46FCF757
:103F48005DFA9AF87F30002B804614BF02200020CB
:103F5800ABEB000080008946FCF750FA02460B469E
:103F680040464946FCF7DEFBFCF7FAFF02469AF8A2
:103F78007E0000F003000B460430CDE90023FCF777
:103F88003DFADDE90023FCF7A3FA0022002380466E
:103F98008946FCF72DFD18B94FF000084FF00009CD
:103FA800104B002240464946FCF7DCF822462B46D7
:103FB800FCF78EFA32463B46FCF7D4F804A3D3E963
:103FC8000023FCF7CFF8FDF747F886E7AFF300804A
:103FD800000000E0CEF7EF3FCC0400200000000016
:103FE80000007A440000204010B5074C012384F8F3
:103FF800403000F0BDF9A4F88C00BDE810404FF641
:10400800FF7000F00BBC00BFCC040020014B1878F7
:10401800704700BF74060020014B1870704700BF3E
:104028007406002010B50C4C237813B12378062BA6
:1040380003D100F09DFD00F0ABFE2378052B05D1E0
:1040480000F0A6FEBDE8104000F086BD2378042BE2
:10405800F8D100F0A5FEF5E7740600200A460146EF
:10406800002000F047BE08B5014608224FF4D8608A
:1040780000F0DCFD002008BD07B5030A8DF8043008
:10408800064B8DF805005B782BB9022201A940F296
:10409800BC6000F0CBFD03B05DF804FB74060020A3
:1040A80007B5030A8DF80430064B8DF805005B78D8
:1040B8002BB9022201A940F2BE6000F0B7FD03B09F
:1040C8005DF804FB7406002010B50C4B5B780446C1
:1040D8009BB94FF4D76000F001FEC4F3002100F053
:1040E800FE0001434FF4D76000F0C4FDE1B240F296
:1040F800B960BDE8104000F0BDBD10BD74060020D9
:1041080007B58DF8040000F04BFE012201A98420B8
:1041180000F046FD024B00221A7003B05DF804FB64
:104128007406002007B501228DF807000DF107017C
:10413800802000F035FD9DF80720044B22B90122AC
:104148001A7003B05DF804FB0222F9E77406002038
:1041580007B5094B8DF8060004221A70030C8DF878
:1041680004300322030A01A983208DF8053000F0EA
:1041780017FD03B05DF804FB7406002010B5144663
:10418800FFF76CFF2046BDE81040FFF7E1BF0000D5
:1041980007B5094B8DF8060005221A70030C8DF837
:1041A80004300322030A01A982208DF8053000F0AB
:1041B800F7FC03B05DF804FB7406002013B50C4B44
:1041C80004460522962140F6AC001A7000F052FD14
:1041D800230C8DF804300322230A01A982208DF8CC
:1041E80005308DF8064000F0DBFC02B010BD00BFC2
:1041F8007406002007B5030C8DF80030030A8DF80B
:1042080001300B0C8DF802008DF803308DF8051085
:104218000B0A0622694694208DF8043000F0C0FC91
:10422800024B06221A7003B05DF804FB74060020E6
:10423800002208B51146C52000F0B2FC014B072248
:104248001A7008BD7406002000221146D12000F023
:10425800A7BC07B501228DF807000DF107019F20C3
:1042680000F09EFC03B05DF804FB07B501228DF851
:1042780007000DF10701A02000F092FC03B05DF8E3
:1042880004FB07B501228DF807000DF10701962000
:1042980000F086FC03B05DF804FB0000184B984260
:1042A80007B50DD9E1238DF80430E9238DF80530E1
:1042B800022201A9982000F073FC03B05DF804FB0A
:1042C800104B984204D9D7238DF80430D823EDE752
:1042D8000D4B984204D9C1238DF80430C523E5E776
:1042E8000A4B984204D975238DF804308123DDE701
:1042F800074B9842DCD96B238DF804306F23D5E740
:1043080000E9A43580F8A9328044E52D000B6B1B29
:1043180040FC541907B58DF8062004228DF80400D6
:104328008DF8051095200DEB02018DF8073000F08F
:1043380037FC03B05DF804FB13B5040A8DF80100DF
:104348008DF80310080A8DF80520110A1A0A8DF84D
:10435800062008228DF802008DF8041010466946E0
:104368008DF800408DF8073000F01AFC02B010BD3F
:1043780007B5022201A9122000F034FCBDF80400A0
:1043880040BA80B203B05DF804FB07B501228DF88E
:1043980007000DF107019D2000F002FC03B05DF855
:1043A80004FB000008B500F07DFB00F0ABFB00F05B
:1043B800DFFB0020FFF7B6FE0120FFF7E6FF024B08
:1043C80001221A7008BD00BF74060020000000001A
:1043D80037B5154DAB7804461BB9FFF75FFF0123CE
:1043E800AB702046FBF7FAFF0DA3D3E90023FCF7D7
:1043F80099F9FCF72FFB030E8DF804300422030C07
:104408008DF805308DF80700030A0DEB02018620B0
:104418008DF8063000F0C4FB03B030BDAFF3008068
:10442800000000008084EE3F7406002007B5064BAC
:104438008DF80700587001220DF107018A2000F05D
:10444800AFFB03B05DF804FB74060020014B5878FD
:10445800704700BF7406002037B5044600200D469B
:1044680000F093FC0128034620D10F2C02464FF0A0
:1044780000010CBF06200420FFF74CFF6FF002007C
:104488008442B8BF04460E2CA8BF0E24182140F65B
:10449800E70000F0EFFB022201A98E208DF804400E
:1044A8008DF8055000F07CFB03B030BD40F6D80015
:1044B80000F014FC40F01E00C1B240F6D80000F035
:1044C800D9FB134B1878022818D0032806D00128E6
:1044D80018D1034600220521032003E0022101230D
:1044E80000220846FFF716FF6FF002008442B8BFAB
:1044F8000446162CA8BF16243821C8E70123002239
:104508000321EFE70123002207210420EAE700BF87
:104518009D0600200000000013B52F4A044651688C
:1045280010686B4603C32D4B20785B78834201D01B
:10453800FFF77CFF23781BB1012B37D002B010BDE9
:104548006068FBF74BFF02460B461FA1D1E900014B
:10455800FCF7E8F80022224BFBF7BAFFFCF77AFADF
:10456800030C8DF80030030A8DF80130237B8DF899
:1045780002008DF80330A068637B8DF80430FBF7E8
:104588002DFF13A3D3E90023FCF7CCF8FCF762FA5C
:10459800030C8DF80530030A8DF806308DF80700F6
:1045A800082269468B2000F0FBFAC7E7237C8DF8C8
:1045B8000030637C8DF80130A37C8DF80230E37CF9
:1045C8008DF803300422ECE70000000080847E416F
:1045D800000000008084EE3F405000087406002070
:1045E800000040401FB5304A0446D1689068127CEC
:1045F80001AB03C31A702D4B20785B78834201D03E
:10460800FFF714FF23781BB1012B39D004B010BD7C
:10461800637AF12B28D14FF6FF70FFF72DFD48F292
:104628000500FFF73DFD022362888DF80520110A79
:1046380022798DF8062062798DF80720A2798DF805
:104648000820E2798DF809208DF80B30227AA37AB8
:104658008DF80A208DF804108DF80C30092201A974
:104668008C2000F09DFAD1E7F22BDDD141F60F50F6
:10467800FFF702FD41F22100FFF712FD0623D3E701
:10468800A3898DF805301A0AA37B8DF80630E37BE1
:104698008DF80730237C8DF80830637C8DF8042072
:1046A8008DF809300622DAE7405000087406002029
:1046B80013B5049C8DF80330230C8DF800008DF899
:1046C80001108DF802208DF804300522230A69466E
:1046D80088208DF805308DF8064000F061FA024B0D
:1046E80007221A7002B010BD7406002007B5022216
:1046F8008DF804008DF805108F2001A900F050FAFC
:1047080003B05DF804FB07B5012201A9152000F0EC
:1047180069FA9DF804004042401003B05DF804FBBC
:1047280037B504460D46022201A9132000F05AFAB3
:104738000C4B5B78012B11D140F2047000F0CEFADB
:10474800C0F3C710012809D140F2027000F0C6FA80
:1047580020709DF805302B7003B030BD9DF80430F3
:104768002370F6E774060020F7B50D4606460024C8
:104778000DF10701284617468DF80740FFF7D0FFCF
:104788002A78BA4207D89DF80700314600F0D4FAD3
:10479800204603B0F0BD0120FBE7000013B503225B
:1047A800044601A9142000F01DFA1B494A7822701A
:1047B8004AB1012A17D0142200212046FCF74AFBEF
:1047C8000F2323700DE09DF8043023719DF8053008
:1047D800A2605B425B10A3719DF806305B425B10E0
:1047E800637102B010BD9DF804309DF905205B424D
:1047F8005B1023739DF80530002AB6BFA3F58073BC
:104808009B089B1063739DF806305B425B10A37393
:104818004B682361E5E700BF7406002007B5022254
:10482800030A8DF8050001A910468DF8043000F040
:10483800B7F903B05DF804FB10B5094C23786BB9E0
:10484800FEF759FB01210320FEF758F80120FEF777
:104858006BFB044B02221A600123237010BD00BFBA
:104868008006002000E100E070B5052886B038BF5A
:10487800052003AC05462046FEF788FB94E80700B0
:104888001A4C6B4683E8070084E807000020FEF70F
:104898005BFBFEF72DF80228284614BF4FF40046AC
:1048A8004FF4FA46FBF79AFD044630460D46FBF7EF
:1048B80095FD02460B4620462946FBF709FE0C4BA0
:1048C8000022FBF72FFFFCF7DFFCFCF7FBF8FEF7F5
:1048D8001BFC0120FEF748FB0120FEF735FB0121F8
:1048E800102006B0BDE87040FEF7F2BB8406002039
:1048F80000408F4008B50020FEF726FBBDE80840C1
:1049080000211020FEF7E4BB014BD3E904017047F6
:10491800800600202DE9F04F87B003A8FEF736FB8C
:10492800BDF80C40059A9DF80FC09DF810509DF8F1
:1049380011309DF812709DF813E0DFF8DC80DFF885
:10494800DC900192002631463246A4F5FA6A30B26C
:1049580050451FFA86FB15DB14F003040CF1FF3CED
:1049680051D02B4EDFF8AC800024E0B2604504F152
:1049780001041FDA3044007B08FB00F0411842F1C3
:104988000002F2E710B11BF0030F05D111EB08018B
:1049980042F100020136DAE711EB0901F8E7305C71
:1049A80008FB00F0411842F10002E0B2604504F152
:1049B8000104F4DB4FF461603C24A7FB0474A3FBFF
:1049C8000003C01943EB040310EB0E0E05F1FF3092
:1049D800104D05FB00F043F100031EEB000043F10E
:1049E8000003401842EB03024FF47A73A0FB030163
:1049F80003FB0211019AB2FBF3F3C01841F1000165
:104A080007B0BDE8F08F024EDFF80880CDE700BFA1
:104A180051500008805101000085E2018033E10116
:104A280038B5FFF777FF034B04460D46C3E9044545
:104A380038BD00BF8006002008B5FFF76BFF034AAA
:104A4800D2E90432C01A61EB020108BD80060020D9
:104A580008B51020FEF720FB90B10020FEF774FA8D
:104A680000211020FEF734FB00211020FEF7FCFA8D
:104A7800FEF794FCBDE8084001211020FEF728BB92
:104A880008BD72B6704762B670470000044B986064
:104A9800DA6802F01102012AFAD19868C0B27047A8
:104AA8000090004010B5134C4FF40073C4F8003167
:104AB8000723236002232361D4F80431802B0BD011
:104AC8001420FDF7D1FD0023C4F80C311420FDF7A4
:104AD800CBFD0123C4F80C31064B074802225A606B
:104AE800064B4FF400121A60BDE8104003220B2158
:104AF800FDF76ABE0090004000FC014000E100E0C4
:104B08000520704710B5134CD4F8043123F0200366
:104B1800C4F804316420FDF7A7FDD4F8043143F04C
:104B28002003C4F80431D4F8043123F08003C4F816
:104B38000431D4F8003143F02003C4F80031D4F82C
:104B4800043143F00103C4F80431D4F80831DB051B
:104B5800FBD410BD0090004008B50A20FDF784FD85
:104B6800024AD2F80831DB05FBD408BD00900040AA
:104B780038B572B6094C0025C4F80C511420FDF75D
:104B880073FDC020FFF782FF2846FFF77FFF012350
:104B9800C4F80C31FFF7E0FF62B638BD0090004062
:104BA800F8B50F4F154606460C46FFF73BFA0023AB
:104BB800C7F80C313046FFF769FF2544AC4208D1ED
:104BC8000123842EC7F80C3108D0BDE8F840FFF760
:104BD800C3BF14F8010BFFF759FFEFE7F8BD00BF9B
:104BE8000090004073B5104E019015460C46FFF733
:104BF80019FA00210198C6F80C11FFF747FF08467B
:104C0800FFF744FF2544AC4207D10123C6F80C3115
:104C180002B0BDE87040FFF79FBF0020FFF736FFE6
:104C280004F8010BEFE700BF00900040F8B5104F03
:104C3800154606460C46FFF7F5F90023C7F80C3170
:104C48000D20FFF723FF300AFFF720FFF0B2FFF730
:104C58001DFF2544AC4206D10123C7F80C31BDE83D
:104C6800F840FFF779BF14F8010BFFF70FFFF1E7E2
:104C78000090004007B501228DF807100DF10701DB
:104C8800FFF7D4FF03B05DF804FB0000F8B5124F3E
:104C9800154606460C46FFF7C5F90021C7F80C1162
:104CA8001D20FFF7F3FE300AFFF7F0FEF0B2FFF722
:104CB800EDFE0846FFF7EAFE2544AC4206D1012383
:104CC800C7F80C31BDE8F840FFF746BF0020FFF7F2
:104CD800DDFE04F8010BF0E70090004007B5012263
:104CE8000DF10701FFF7D2FF9DF8070003B05DF84B
:104CF80004FB0000F8B50F4F154606460C46FFF7B3
:104D080091F90023C7F80C310E20FFF7BFFE30469B
:104D1800FFF7BCFE2544AC4206D10123C7F80C318D
:104D2800BDE8F840FFF718BF14F8010BFFF7AEFE17
:104D3800F1E700BF00900040F8B5114F1546064650
:104D48000C46FFF76FF90021C7F80C111E20FFF77A
:104D58009DFE3046FFF79AFE0846FFF797FE25446A
:104D6800AC4206D10123C7F80C31BDE8F840FFF783
:104D7800F3BE0020FFF78AFE04F8010BF0E700BF3E
:104D8800009000400221FFF767BB02207047000037
:104D9800024803220A21FDF785BC00BF00F001404C
:104DA800024804220A21FDF77DBC00BF00F0014043
:104DB800074B08491A6843F2390001FB02001860E2
:104DC8006FF00043B0FBF3F3C3EBC373C01A704733
:104DD8001C0000206D4EC641002103E00B4B5B58C0
:104DE800435004310A480B4B42189A42F6D30A4AF8
:104DF80002E0002342F8043B084B9A42F9D3FDF73E
:104E0800EDFBFCF703F8FCF7DEFAFEE73851000883
:104E1800000000205004002050040020A0060020BC
:104E2800FEE70000024B13B10248FBF7D3BF7047FF
:104E380000000000E90D0008F8B500BFF8BC08BC88
:104E48009E467047F8B500BFF8BC08BC9E46704740
:104E5800000000000000F03F0000000000002440B7
:104E680000000000000059400000000000408F4092
:104E7800000000000088C34000000000006AF840FD
:104E88000000000080842E4100000000D012634121
:104E98000000000084D797410000000065CDCD4197
:104EA80080EE36000080000000366E010000000031
:104EB800C01200001F000000A81600001700000024
:104EC800841C00000F000000E42500001E00000004
:104ED800B42D000016000000083900000E00000084
:104EE8002C4C00001D000000685B0000150000004D
:104EF800747200000D000000589800001C000000AB
:104F080034B7000014000000E8E400000C000000C2
:104F1800783101001B000000686E010013000000DA
:104F280034CA01000B000000286202001A000000C9
:104F380040DB0200120000003C9303000A0000005E
:104F4800C0C204001900000060B305001100000091
:104F5800382007000900000020A107000000000019
:104F6800000000A0703D1F40000000608F422F40ED
:104F78000000000000403F400000000000404F409B
:104F88000000000000405F400000000000406F404B
:104F98000000000000407F4000000000000000000A
:104FA800000000400AD72440000000E07AD43440D2
:104FB80000000080C2D54440C194C1000000000038
:104FC800040506030A02090108000000DD34000890
:104FD80049350008A539000861350008C9390008B5
:104FE800153A0008813A0008A93C0008A7340008CF
:104FF800593E000879350008D1350008D534000835
:1050080039370008E93500085536000865350008C5
:10501800733500086F350008A1360008A53600086A
:10502800093700083D390008A9360008C5370008C7
:1050380081370008E5350008000000000000000086
:105048000000000000000000001F1D1F1E1F1E1F83
:105058001F1E1F1E1F1F1C1F1E1F1E1F1F1E1F1E61
:105068001F0000002800002000000000000030435E
:1050780000000000000030C354582054696D656F6B
:105088007574202D205265747279696E672E2E2EE4
:105098000A000A0D4D6573736167652053656E7468
:1050A80021000A0D004C6F52612054582044657647
:1050B8006963653A20496E697469616C697A696ED9
:1050C800672E2E2E0A000A0D53656E64696E6720DE
:1050D800446174613A2000253032582000467261DC
:1050E8006D6520726563657074696F6E2074696D93
:1050F800656F7574202D20726573657474696E67A9
:105108000D0A00666E6900666E692B006E616E009E
:0C511800666E692D00286E756C6C290015
:08512400E4B9FF7F0100000067
:08512C002D4E000841010008AE
:045134001901000855
:10513800FDFCFBFA0200900004030201FDFCFBFAEF
:105148000200800004030201FF00000001000000CB
:1051580028000020000000000000000014030020C8
:105168007C030020E4030020000000000000000091
:105178000000000000000000000000000000000027
:105188000000000000000000000000000000000017
:105198000000000000000000000000000000000007
:1051A80000000000000000000000000000000000F7
:1051B80000000000000000000000000000000000E7
:1051C80000000000000000000000000000000000D7
:1051D80000000000000000000000000000000000C7
:1051E80000000000000000000000000000000000B7
:1051F80000000000000000000000000000000000A7
:1052080001000000000000000E33CDAB34126DE643
:10521800ECDE05000B0000000000000000000000AC
:105228000000000000000000000000000000000076
:105238000000000000000000000000000000000066
:105248000000000000000000000000000000000056
:105258000000000000000000000000000000000046
:0400000508004DE1C1
:00000001FF
