:020000040800F2
:100000000040002061110008B9030008BB0300088C
:10001000BD030008BF030008C10300080000000082
:10002000000000000000000000000000C303000802
:100030000000000000000000C5030008C70300081E
:10004000A9110008A9110008A9110008A9110008A8
:10005000A9110008A9110008A9110008A911000898
:10006000A9110008A9110008A9110008A911000888
:10007000A9110008A9110008A9110008A911000878
:10008000A9110008A9110008A9110008CF03000850
:10009000A9110008A9110008A9110008A911000858
:1000A000A9110008A9110008A9110008A911000848
:1000B000A9110008A9110008A9110008CB03000824
:1000C000A9110008A9110008C9030008A911000816
:0400D000A91100086A
:1000D4000348044B834202D0034B03B118477047D3
:1000E40040040020400400200000000005480649A8
:1000F4000B1AD90F01EBA301491002D0034B03B132
:10010400184770474004002040040020000000000D
:1001140010B5064C237843B9FFF7DAFF044B13B14B
:100124000448AFF300800123237010BD4004002075
:1001340000000000C011000808B5044B1BB10449BD
:100144000448AFF30080BDE80840CFE7000000009A
:1001540044040020C0110008002301461A46184632
:1001640000F08CB838B5084B084D5B1B9C1007D0C9
:10017400043B1D44013C55F804399847002CF9D13F
:10018400BDE8384001F020B8F4110008F01100086F
:1001940070B50D4E0D4D761BB61006D0002455F8E3
:1001A400043B01349847A642F9D1094E094D761B08
:1001B40001F004F8B61006D0002455F8043B0134CD
:1001C4009847A642F9D170BDE8110008E81100086B
:1001D400F0110008E8110008830730B548D0541E18
:1001E400002A3FD0CAB2034601E0013C3AD303F8E7
:1001F400012B9D07F9D1032C2DD9CDB245EA052554
:100204000F2C45EA054536D9A4F1100222F00F0C53
:1002140003F1200EE6444FEA121C03F1100242E9F6
:10022400045542E9025510327245F8D10CF101022D
:1002340014F00C0F03EB021204F00F0C13D0ACF10A
:10024400040323F003030433134442F8045B93428E
:10025400FBD10CF003042CB1CAB21C4403F8012BEB
:100264009C42FBD130BD64461346002CF4D1F9E71F
:1002740003461446BFE71A46A446E0E770B4184C98
:100284002568D5F848411CB365681F2D25DC38B9AD
:10029400AB1C0135656044F82310002070BC704726
:1002A40004EB850C0228CCF88820D4F888614FF040
:1002B400010202FA05F246EA0206C4F88861CCF8A3
:1002C4000831E5D1D4F88C311343C4F88C31DFE71D
:1002D40005F5A674C5F84841D6E74FF0FF30DDE7D1
:1002E400E4110008014B01221A6070475C040020ED
:1002F40030B501218BB01F2000F0EEFB012120203E
:1003040000F0EAFB0121402000F0E6FB002000F0B1
:100314000DFB0121312000F0DFFB0121302000F032
:10032400DBFB1D481D4C0122002100F04DFB012286
:100334001146194800F048FB01A800F04CFE0125C5
:10034400082120468DF80F5000F050FE01A92046E8
:1003540000F05CFE2946204600F04EFE104B05934B
:10036400104B114A0993114B0494CDE9062304A8B8
:1003740002238DF8203000F043FA9DF81F0000217D
:1003840000F0F3FA2A462946204600F0DFFE084A28
:100394001368002BFCD0FEE700F40140003000405D
:1003A40000000020E9020008000101000C001F0009
:1003B4005C0400207047FEE7FEE7FEE7FEE77047B7
:1003C40070477047704700F0B5B900F0E5B9000018
:1003D400064B0748E02283F82220C0210023C218DC
:1003E4000133252B82F80013F9D1704700ED00E0AA
:1003F40000E100E00F4A08B5D2F8883043F47003F6
:10040400C2F888304FF08042D36843F08003D36051
:1004140002F50032536923F4702343F480335361AB
:1004240093689B07FCD5FFF7D3FFBDE8084000F0B5
:1004340003B800BF00ED00E008B5012000F0E6FAC3
:100444000C4B984214D90C4A0133B0FBF3F31370EC
:100454000A4A4FF47A73B0FBF3F04FF0E02301380B
:10046400E021586182F8231000229A6107221A6160
:1004740008BD00BF3F420F006004002000ED00E013
:1004840010B5012404FA02F2013A9A4206D3046830
:100494008A4024EA02028B401343036010BD00002B
:1004A40070B5057C06460C468DB1C37B002B5ED12E
:1004B400F37A9F48C3F103030168DB003F229A40AB
:1004C40021EA0201B27B02FA03F30B430360F37BDC
:1004D40003F5802323331B030F22C3F83823C3F807
:1004E4004023C3F84823C3F85023C3F85823F17AB0
:1004F40003F5687200294DD11168C807FCD403F1D3
:100504000802626003F11002A26003F11402E260C7
:1005140003F11802A26103F11C02226103F14002FB
:10052400236062614433E361002D40F08680A26958
:10053400136823F0C06343F000731360A269136867
:1005440023F0C07343F400031360A0692B46032215
:100554001421FFF795FFA269136823F4C0631360A5
:10056400A269136823F4C07313602B4687E0012B40
:1005740040F09880F37A6E48C3F103034168DB00CE
:100584003F229A4021EA0201B27B02FA03F30B43B1
:1005940043609CE7012919D111688907FCD403F150
:1005A4005802226003F16002626003F16802A260F3
:1005B40003F16C02E26003F17002A26103F17402C0
:1005C400226103F1980262619C33ACE7022919D1DC
:1005D40011684807FCD403F1B002226003F1B802A9
:1005E400626003F1C002A26003F1C402E26003F19D
:1005F400C802A26103F1CC02226103F1F00262613C
:10060400F43390E711680907FCD403F5847222607F
:1006140003F58872626003F58C72A26003F58E7232
:10062400E26003F59072A26103F59272226103F510
:10063400A472626103F5A67375E7012D33D1A26933
:10064400136823F0C06343F000731360A269136856
:1006540023F0C0731360A0692B4603221421FFF713
:100664000FFFA269136823F4C0631360A2691368BF
:1006740023F4C07343F480731360F37A0025626932
:10068400E0690021116004220B21FFF7F9FE2B46DB
:100694000422E0690721FFF7F3FEE269136823F0FF
:1006A4000203136070BD022D1ED1A269136823F0EA
:1006B400C0631360A269136823F0C0731360A06958
:1006C4002B4603221421FFF7DBFEA269136823F4EF
:1006D400C06343F480631360A269136823F4C07396
:1006E4001360F57A0023CAE7032D1FD1A2691368AA
:1006F40023F0C0631360A269136823F0C07313600E
:10070400A0692B462A461421FFF7BAFEA269136892
:1007140023F4C06343F480631360A269136823F471
:10072400C07343F480731360F57A1EE700251CE759
:1007340000100040164BD3F8F022D0070AD501224E
:10074400C3F83823C3F840230023124A52F8233055
:10075400EBB11847D3F8F022910706D50222C3F86B
:100764003823C3F840230123EFE7D3F8F0225207DC
:1007740006D40822C3F83823C3F840230323E4E74C
:100784000422C3F83823C3F840230223DDE770476B
:100794000030024064040020174BD3F8F022D00745
:1007A4000BD50122C3F83823C3F840230023134A8E
:1007B400043352F82330EBB11847D3F8F0229107F1
:1007C40006D50222C3F83823C3F840230123EEE7F9
:1007D400D3F8F022520706D40822C3F83823C3F80A
:1007E40040230323E3E70422C3F83823C3F8402358
:1007F4000223DCE7704700BF00400240640400208D
:1008040030B589B00446202200216846FFF7E4FC95
:10081400002C4DD069462046FFF742FE029A069806
:1008240000231360039A1360A389049A43F480534A
:100834001360637A03220E21FFF722FEA37A06983F
:1008440003220B21FFF71CFE237A069803220421BE
:10085400FFF716FE237A069803220121FFF710FE04
:10086400069A13680B431360009B22681A60019B6D
:1008740062681A60E07B2B4B4022D8B94FF00041EC
:10088400196083F81F2300F580236569E27A233316
:100894001B033DB3D3F8181392B941F4807141F0AE
:1008A4000101C3F8181302EB80021F4B43F82250D6
:1008B40009B030BD4FF40021196083F81323E2E737
:1008C400012A04D141F4007141F00201E9E7022A4E
:1008D4000BBF41F4806141F4006141F0040141F037
:1008E4000801DEE742B9D3F8182322F4807222F01B
:1008F4000102C3F81823DBE7012A06D1D3F8182331
:1009040022F4007222F00202F3E7022AD3F8182339
:100914000BBF22F4806222F4006222F0040222F06F
:100924000802E6E700E100E06404002010B5044694
:1009340068B90146312000F0CFF80121312000F0E0
:1009440025FB21463120BDE8104000F01FBB0128E3
:100954000AD10021302000F0BFF82146302000F0F9
:1009640015FB00213020EEE710BD00F58020233078
:10097400000300F5687050F8083CDB075CBF0123F6
:1009840040F8083C49B90368DA07FCD440F2011383
:1009940003600368DB07FCD57047012906D10368AF
:1009A4009907FCD440F2022303607047022905D161
:1009B40003685A07FCD440F20443F5E703681B07B5
:1009C400FCD440F60803EFE7072910B511D90E4B04
:1009D400083998420BBF01EB4101890007230F231B
:1009E4008B4002FA01F1C26B22EA03031943C1638B
:1009F40010BD836B89000F248C4023EA040302FAA0
:100A040001F119438163F3E700FC01404FF0804397
:100A140001461A6802F4E042B2F5A04F20D015D87E
:100A2400B2F5805F1ED0B2F5005F1B4808BF4FF4DB
:100A3400004002291BD0032923D0012905D14FF0FE
:100A440080431B68C3F30323D8407047B2F5C04FFB
:100A54000BD0114B1148B2F5E04F18BF1846E8E728
:100A64000F48E6E74FF4FA40E3E70E48E1E74FF0BA
:100A740080421368C3F30323D8401368C3F34213BB
:100A8400E2E74FF080421368C3F30323D8401368AE
:100A9400C3F3C233D8E700BF00366E01006CDC023A
:100AA4000048E80180EE36004FF08043986800F477
:100AB400C03070474FF08043986800F4C0407047DE
:100AC4004FF08043986800F4C05070474FF0804363
:100AD400986800F4C060704741284AD8DFE810F0F5
:100AE40011020702FD01E401D201B901710167019C
:100AF4005D01530149013F0135010D010301D60098
:100B0400EA00E000CC004900C200B800AE00A30037
:100B140099008F0085006B00610057004D00420072
:100B2400170121012B0149004900490049004900EE
:100B34004900490049004900490049004900490069
:100B44002E0225021B023802950149004900490082
:100B54004900490049004900490049004900490049
:100B640042024C024FF08043DA6819B142F4801219
:100B7400DA60704722F48012FAE74FF08043DA68B3
:100B840011B142F40022F3E722F40022F0E74FF01F
:100B94008043DA6811B142F48022E9E722F480222A
:100BA400E6E74FF08043DA6811B142F40032DFE740
:100BB40022F40032DCE74FF08043DA6879B142F482
:100BC4008032DA604FF080439A6A02F03F023F2A93
:100BD400FAD15A6931B142F004025A61704722F4E1
:100BE4008032EEE722F00402F7E74FF08043DA6840
:100BF40011B142F40042BBE722F40042B8E74FF0DF
:100C04008043DA6811B142F48042B1E722F48042B1
:100C1400AEE74FF08043DA6811B142F40052A7E71F
:100C240022F40052A4E74FF080431A6919B142F04C
:100C340020021A61704722F02002FAE74FF0804345
:100C4400DA6811B142F4805292E722F480528FE7BD
:100C54004FF08043DA6811B142F4006288E722F46D
:100C6400006285E74FF08043DA6811B142F4806294
:100C74007EE722F480627BE74FF08043DA6811B1AB
:100C840042F4807274E722F4807271E74FF080437B
:100C9400DA6811B142F020026AE722F0200267E725
:100CA4004FF08043DA6811B142F0800260E722F02D
:100CB40080025DE74FF08043DA6871B142F0400290
:100CC400DA604FF080439A6A02F03F023F2AFAD179
:100CD4005A6929B142F008027FE722F04002EFE7A7
:100CE40022F0080279E74FF08043DA6811B142F04C
:100CF40010023DE722F010023AE74FF08043DA6831
:100D040011B142F0007233E722F0007230E74FF085
:100D14008043DA6811B142F0807229E722F08072D0
:100D240026E74FF08043DA6811B142F400021FE76E
:100D340022F400021CE74FF08043DA6811B142F458
:100D4400800215E722F4800212E74FF08043DA684C
:100D540011B142F008020BE722F0080208E74FF055
:100D64008043DA6811B142F0040201E722F0040280
:100D7400FEE64FF08043DA6811B142F00202F7E672
:100D840022F00202F4E64FF08043DA6811B142F037
:100D94000102EDE622F00102EAE64FF08043DA6850
:100DA40011B142F00062E3E622F00062E0E64FF0A7
:100DB4008043DA6811B142F08062D9E622F08062A1
:100DC400D6E64FF080431A6979B142F400721A6191
:100DD4009A6A02F03F023F2AFAD15A6942F010029D
:100DE4005A611A6942F0100223E722F010021A61D4
:100DF4009A6A02F03F023F2AFAD15A6922F010029D
:100E04005A611A6922F4007213E74FF080431A6999
:100E140079B142F480521A619A6A02F03F023F2A81
:100E2400FAD15A6942F020025A611A6942F4006206
:100E3400FFE622F400621A619A6A02F03F023F2A36
:100E4400FAD15A6922F020025A611A6922F48052B6
:100E5400EFE64FF080431A6971B142F008021A615B
:100E64004FF080439A6A02F03F023F2AFAD15A694E
:100E740029B142F00102B0E622F00802EFE722F0C5
:100E84000102AAE64FF080431A6931B142F004022C
:100E94001A611A6942F04002CBE622F004021A6198
:100EA4001A6922F04002C4E64FF080431A6971B116
:100EB40042F002021A614FF080439A6A02F03F0244
:100EC4003F2AFAD15A6929B142F0020285E622F09A
:100ED4000202EFE722F002027FE64FF08043DA6875
:100EE40011B142F0805243E622F0805240E64FF0C6
:100EF40080431A6911B142F001029AE622F001021C
:100F040097E64FF080431A6911B142F0800290E6EF
:100F140022F080028DE64FF080431A6911B142F449
:100F2400807286E622F4807283E64FF08043DA68AA
:100F340009B11A431CE622F0804219E64FF08043BF
:100F4400DA6811B142F0005212E622F000520FE6C4
:100F54004FF080431A6911B142F4806269E622F4C9
:100F6400806266E64FF08043DA6811B142F4001201
:100F7400FEE522F40012FBE54FF08043DA6811B17C
:100F840042F00042F4E522F00042F1E53F281ED889
:100F94002F280DD90123303803FA00F04FF0804395
:100FA400DA6911B91043D861704722EA0000FAE700
:100FB400A0F12003DBB2022B98BF0D20012303FA1A
:100FC40000F04FF080439A6911B91043986170475B
:100FD40022EA0000FAE74FF4E133036060238380E0
:100FE400002383714FF4401383607047436B23F0F5
:100FF4003803194341637047036B19B143F001038C
:101004000363704723F00103FAE7000038B5036B6C
:1010140023F001030363C36A23F01003C3620023B4
:101024008363464B984204460D463ED1FFF73CFD90
:10103400C00B0138022850D8414B53F820002B68CC
:10104400B0EB031F4FEA031175D36BB1B0FBF1F2A0
:1010540001FB1200C000B0FBF3F000F0010303EB4E
:10106400500080B240EA02431A0C03F03F0362626C
:10107400A362E36A2A7923F060031343E362E36A19
:10108400AA7923F008031343E362EB7A8BB3E36A90
:1010940043F01003E3626B79012B2ED0022B42D074
:1010A4009BBBE36A23F002032EE0B0F1402F04D18E
:1010B400FFF700FDC0F34F30BBE7224B984204D149
:1010C400FFF7FEFCC0F3CF20B3E71F4B98420ED1CD
:1010D400FFF7FCFCC0F34F20ABE7184B9C4202D057
:1010E400B4F1402F03D10220FFF790FCA7E70320BF
:1010F400FAE7E36A23F01003CCE7E36A43F0020360
:10110400E362E36A23F00403E362236BAA7A23F025
:10111400300313432363236B2A8923F4404313438B
:101124002363002038BDE36A43F00203E362E36A09
:1011340043F00403E8E74FF0FF30F3E700300040EA
:10114400D81100080000014000100140836C12B166
:1011540019438164704723EA0101FAE7002103E09F
:101164000B4B5B58435004310A480B4B42189A42CC
:10117400F6D30A4A02E0002342F8043B084B9A42A1
:10118400F9D3FFF737F9FFF703F8FFF7B1F8FEE7F4
:10119400F411000800000020400400204004002056
:1011A40084040020FEE70000024B13B10248FEF75E
:1011B400D3BF70470000000069010008F8B500BF04
:1011C400F8BC08BC9E467047F8B500BFF8BC08BC24
:0411D4009E4670477C
:1011D80080EE36000080000000366E011800002006
:0811E800AD1100083D010008F3
:0411F00015010008DD
:1011F400303132333435363738393A3B0000000069
:10120400180000200000000000000000040300207B
:101214006C030020D4030020000000000000000044
:1012240000000000000000000000000000000000BA
:1012340000000000000000000000000000000000AA
:10124400000000000000000000000000000000009A
:10125400000000000000000000000000000000008A
:10126400000000000000000000000000000000007A
:10127400000000000000000000000000000000006A
:10128400000000000000000000000000000000005A
:10129400000000000000000000000000000000004A
:1012A400000000000000000000000000000000003A
:1012B40001000000000000000E33CDAB34126DE6D7
:1012C400ECDE05000B000000000000000000000040
:1012D400000000000000000000000000000000000A
:1012E40000000000000000000000000000000000FA
:1012F40000000000000000000000000000000000EA
:1013040000000000000000000000000000000000D9
:04000005080011617D
:00000001FF
