:020000040800F2
:1000000000400020890A00081103000813030008BB
:10001000150300081703000819030008000000007A
:100020000000000000000000000000001B030008AA
:1000300000000000000000001D0300081F0300086E
:10004000D10A0008D10A0008D10A0008D10A000824
:10005000D10A0008D10A0008D10A0008D10A000814
:10006000D10A0008D10A0008D10A0008D10A000804
:10007000D10A0008D10A0008D10A0008D10A0008F4
:10008000D10A0008D10A0008D10A0008D10A0008E4
:10009000D10A0008D10A0008D10A0008D10A0008D4
:1000A000D10A0008D10A0008D10A0008D10A0008C4
:1000B000D10A0008D10A0008D10A0008D10A0008B4
:1000C000D10A0008D10A000821030008D10A00085B
:0400D000D10A000849
:1000D4000348044B834202D0034B03B118477047D3
:1000E40030040020300400200000000005480649C8
:1000F4000B1AD90F01EBA301491002D0034B03B132
:10010400184770473004002030040020000000002D
:1001140010B5064C237843B9FFF7DAFF044B13B14B
:100124000448AFF300800123237010BD3004002085
:1001340000000000E80A000808B5044B1BB104499C
:100144000448AFF30080BDE80840CFE7000000009A
:1001540034040020E80A0008002301461A46184621
:1001640000F03AB838B5084B084D5B1B9C1007D01B
:10017400043B1D44013C55F804399847002CF9D13F
:10018400BDE8384000F0B4BC100B00080C0B0008AC
:1001940070B50D4E0D4D761BB61006D0002455F8E3
:1001A400043B01349847A642F9D1094E094D761B08
:1001B40000F098FCB61006D0002455F8043B013436
:1001C4009847A642F9D170BD040B0008040B00083F
:1001D4000C0B0008040B000870B4184C2568D5F803
:1001E40048411CB365681F2D25DC38B9AB1C0135AB
:1001F400656044F82310002070BC704704EB850C44
:100204000228CCF88820D4F888614FF0010202FA61
:1002140005F246EA0206C4F88861CCF80831E5D153
:10022400D4F88C311343C4F88C31DFE705F5A67498
:10023400C5F84841D6E74FF0FF30DDE7000B000872
:10024400074A084B1360084B5360084B9360084BF4
:10025400D3601023D3540133202BFBD1704700BF4C
:100264004C040020000048410080C842B6F39D3F82
:100274001B2F5DC073B50121162000F0A9F90121DF
:100284000D2000F0A5F91E4803220E2100F0A0F86D
:1002940003220F211A4800F09BF8684600F0BAF8D0
:1002A4000124552317488DF8004069468DF8043021
:1002B40000F0B4F821461348124C00F0FFF811483E
:1002C400172100F023F90128F9D11721204600F065
:1002D40017F9FFF7B5FF0C4E002516F8011B204651
:1002E400013500F0FCF8202DF7D10648182100F064
:1002F4000DF90128F9D11821204600F001F9DEE7B3
:1003040000F00140007000404C0400207047FEE7FC
:10031400FEE7FEE7FEE7704770477047704700004E
:10032400064B0748E02283F82220C0210023C2188C
:100334000133252B82F80013F9D1704700ED00E05A
:1003440000E100E00F4A08B5D2F8883043F47003A6
:10035400C2F888304FF08042D36843F08003D36002
:1003640002F50032536923F4702343F4803353615C
:1003740093689B07FCD5FFF7D3FFBDE8084000F066
:1003840003B800BF00ED00E008B5012000F0D2F88A
:100394000C4B984214D90C4A0133B0FBF3F313709D
:1003A4000A4A4FF47A73B0FBF3F04FF0E0230138BC
:1003B400E021586182F8231000229A6107221A6111
:1003C40008BD00BF3F420F006C04002000ED00E0B8
:1003D400072910B511D90E4B083998420BBF01EB10
:1003E4004101890007230F238B4002FA01F1C26BFC
:1003F40022EA03031943C16310BD836B89000F24F0
:100404008C4023EA040302FA01F119438163F3E700
:1004140000FC0140002303804360704738B5044664
:100424000D464FF47A736268120410D5013BFAD278
:10043400236803F480632360236843F480632360A8
:1004440063686360236823F48063236001E0002B06
:10045400EED16B782BB3236843F020032360144B55
:100464009C420CBF0220032000F064F8114BB0FB47
:10047400F3F3083B5B08013B0F4AB0FBF2F05A026E
:10048400083842EA500020610322B3FBF2F36361AF
:100494002B7853B923686A6823F4407313432360A9
:1004A40038BD236823F02003D8E72B79A360F7E74E
:1004B40000700040801A0600A0860100036839B16C
:1004C40043F480430360036843F4005303607047BC
:1004D40023F480430360036823F40053F6E70368BE
:1004E4009B0603D541F4006101627047C160036853
:1004F40023F001030360036843F0080303607047BB
:10050400012303FA01F141607047000039B9084B37
:100514005B6C13F0F00F0CBF0120002070474268A1
:10052400012303FA01F1114214BF18460020704759
:10053400007000404FF0804301461A6802F4E04224
:10054400B2F5A04F20D015D8B2F5805F1ED0B2F519
:10055400005F1B4808BF4FF4004002291BD0032949
:1005640023D0012905D14FF080431B68C3F3032333
:10057400D8407047B2F5C04F0BD0114B1148B2F5BB
:10058400E04F18BF1846E8E70F48E6E74FF4FA4093
:10059400E3E70E48E1E74FF080421368C3F3032317
:1005A400D8401368C3F34213E2E74FF08042136864
:1005B400C3F30323D8401368C3F3C233D8E700BF9F
:1005C40000366E01006CDC020048E80180EE360063
:1005D40041284AD8DFE810F011020702FD01E401C6
:1005E400D201B901710167015D01530149013F0164
:1005F40035010D010301D600EA00E000CC004900FA
:10060400C200B800AE00A30099008F0085006B0003
:10061400610057004D004200170121012B014900E0
:10062400490049004900490049004900490049007E
:1006340049004900490049002E0225021B023802E4
:100644009501490049004900490049004900490011
:10065400490049004900490042024C024FF08043DE
:10066400DA6819B142F48012DA60704722F4801219
:10067400FAE74FF08043DA6811B142F40022F3E75D
:1006840022F40022F0E74FF08043DA6811B142F41B
:100694008022E9E722F48022E6E74FF08043DA681B
:1006A40011B142F40032DFE722F40032DCE74FF00C
:1006B4008043DA6879B142F48032DA604FF08043E3
:1006C4009A6A02F03F023F2AFAD15A6931B142F0E4
:1006D40004025A61704722F48032EEE722F00402E9
:1006E400F7E74FF08043DA6811B142F40042BBE708
:1006F40022F40042B8E74FF08043DA6811B142F4C3
:100704008042B1E722F48042AEE74FF08043DA68DA
:1007140011B142F40052A7E722F40052A4E74FF0CB
:1007240080431A6919B142F020021A61704722F01D
:100734002002FAE74FF08043DA6811B142F48052A4
:1007440092E722F480528FE74FF08043DA6811B1C8
:1007540042F4006288E722F4006285E74FF08043A8
:10076400DA6811B142F480627EE722F480627BE7AA
:100774004FF08043DA6811B142F4807274E722F4D6
:10078400807271E74FF08043DA6811B142F02002C1
:100794006AE722F0200267E74FF08043DA6811B17C
:1007A40042F0800260E722F080025DE74FF0804370
:1007B400DA6871B142F04002DA604FF080439A6A1D
:1007C40002F03F023F2AFAD15A6929B142F00802E5
:1007D4007FE722F04002EFE722F0080279E74FF0CA
:1007E4008043DA6811B142F010023DE722F01002B2
:1007F4003AE74FF08043DA6811B142F0007233E710
:1008040022F0007230E74FF08043DA6811B142F011
:10081400807229E722F0807226E74FF08043DA687D
:1008240011B142F400021FE722F400021CE74FF06A
:100834008043DA6811B142F4800215E722F48002A1
:1008440012E74FF08043DA6811B142F008020BE777
:1008540022F0080208E74FF08043DA6811B142F051
:10086400040201E722F00402FEE64FF08043DA6856
:1008740011B142F00202F7E622F00202F4E64FF070
:100884008043DA6811B142F00102EDE622F0010280
:10089400EAE64FF08043DA6811B142F00062E3E621
:1008A40022F00062E0E64FF08043DA6811B142F0D2
:1008B4008062D9E622F08062D6E64FF080431A695E
:1008C40079B142F400721A619A6A02F03F023F2A37
:1008D400FAD15A6942F010025A611A6942F01002C0
:1008E40023E722F010021A619A6A02F03F023F2ABB
:1008F400FAD15A6922F010025A611A6922F400727C
:1009040013E74FF080431A6979B142F480521A61B7
:100914009A6A02F03F023F2AFAD15A6942F0200251
:100924005A611A6942F40062FFE622F400621A6115
:100934009A6A02F03F023F2AFAD15A6922F0200251
:100944005A611A6922F48052EFE64FF080431A6923
:1009540071B142F008021A614FF080439A6A02F0C2
:100964003F023F2AFAD15A6929B142F00102B0E6A6
:1009740022F00802EFE722F00102AAE64FF08043DA
:100984001A6931B142F004021A611A6942F0400254
:10099400CBE622F004021A611A6922F04002C4E68E
:1009A4004FF080431A6971B142F002021A614FF0AC
:1009B40080439A6A02F03F023F2AFAD15A6929B168
:1009C40042F0020285E622F00202EFE722F0020280
:1009D4007FE64FF08043DA6811B142F0805243E67B
:1009E40022F0805240E64FF080431A6911B142F080
:1009F40001029AE622F0010297E64FF080431A6959
:100A040011B142F0800290E622F080028DE64FF0B0
:100A140080431A6911B142F4807286E622F480722E
:100A240083E64FF08043DA6809B11A431CE622F0EA
:100A3400804219E64FF08043DA6811B142F0005267
:100A440012E622F000520FE64FF080431A6911B10A
:100A540042F4806269E622F4806266E64FF08043E5
:100A6400DA6811B142F40012FEE522F40012FBE54B
:100A74004FF08043DA6811B142F00042F4E522F00D
:100A84000042F1E5002103E00B4B5B584350043175
:100A94000A480B4B42189A42F6D30A4A02E0002352
:100AA40042F8043B084B9A42F9D3FFF74BFCFFF79B
:100AB4006FFBFFF7DFFBFEE7100B000800000020D0
:100AC400300400203004002070040020FEE7000001
:100AD400024B13B10248FFF73FBB70470000000010
:100AE40069010008F8B500BFF8BC08BC9E46704711
:0C0AF400F8B500BFF8BC08BC9E46704777
:040B000008000020C9
:080B0400D50A00083D010008BC
:040B0C0015010008C7
:100B1000080000200000000000000000F402002097
:100B20005C030020C403002000000000000000005F
:100B300000000000000000000000000000000000B5
:100B400000000000000000000000000000000000A5
:100B50000000000000000000000000000000000095
:100B60000000000000000000000000000000000085
:100B70000000000000000000000000000000000075
:100B80000000000000000000000000000000000065
:100B90000000000000000000000000000000000055
:100BA0000000000000000000000000000000000045
:100BB0000000000000000000000000000000000035
:100BC00001000000000000000E33CDAB34126DE6D2
:100BD000ECDE05000B00000000000000000000003B
:100BE0000000000000000000000000000000000005
:100BF00000000000000000000000000000000000F5
:100C000000000000000000000000000000000000E4
:100C100000000000000000000000000000000000D4
:0400000508000A895C
:00000001FF
