:020000040800F2
:10000000004000202D8E0008F5190008F71900089F
:10001000F9190008FB190008FD190008000000008C
:10002000000000000000000000000000FF190008B0
:100030000000000000000000011A0008031A000878
:10004000758E00080B1A0008758E0008758E000862
:10005000758E0008758E0008758E0008758E000874
:10006000758E0008758E0008758E0008758E000864
:10007000758E0008758E0008758E0008758E000854
:10008000758E0008758E0008758E0008758E000844
:10009000758E0008071A0008758E0008758E000816
:1000A000758E0008758E0008758E0008758E000824
:1000B000758E0008758E0008758E0008758E000814
:1000C000758E0008758E0008051A0008758E0008E8
:0400D000758E000821
:1000D8000348044B834202D0034B03B118477047CF
:1000E800A8040020A80400200000000005480649D4
:1000F8000B1AD90F01EBA301491002D0034B03B12E
:1001080018477047A8040020A80400200000000039
:1001180010B5064C237843B9FFF7DAFF044B13B147
:100128000448AFF300800123237010BDA804002009
:10013800000000008C8E000808B5044B1BB1044970
:100148000448AFF30080BDE80840CFE70000000096
:10015800AC0400208C8E000890B589B000AFF86020
:100168007B600B46FB721346BB723A4B07F11004D7
:100178000FCB84E80F00FB7A102B07D0FB7A182BE3
:1001880004D0FB7A202B01D006235EE0324B5B685B
:10019800314A43F0090353602F4B32221A60BB7A6D
:1001A80043F01003DAB22C4B9A61FB7A202B0ED065
:1001B800202B10DC102B02D0182B04D00BE0264B80
:1001C8000022DA6008E0244B0422DA6004E0224BC3
:1001D8000822DA6000E000BF00BF1F4B5B6803F035
:1001E8000103002BF9D1FB7A1A46F9681B4800F085
:1001F80027FF194BDB68184A43F08203D36000BF1E
:10020800154BDB6803F08003002BF9D1124BDB6838
:10021800114A23F00303D360BB7A012B05D0BB7AC4
:10022800022B02D0BB7A032B04D1102279680C4828
:1002380000F006FFBB7A032B06D10A4B1C4607F1D8
:1002480010030FCB84E80F00002318462437BD465F
:1002580090BD00BFF4900008002003404016034002
:10026800101603400016034080B584B000AFF86054
:100278007B600B467B8113467B727B7A002B0CD00C
:100288001F4BDB681E4A23F00303D3601C4BDB685B
:100298001B4A43F00103D3602AE0194BDB68184A74
:1002A80023F00303D360164B154ADB68D3601FE0C5
:1002B8001022F968134800F0C3FE114BDB68104A9E
:1002C80043F08003D36000BF0D4BDB6803F080036D
:1002D800002BF9D110220C49786800F0B1FE7B8917
:1002E800103B7B81FB681033FB607B6810337B60BD
:1002F8007B89002BDCD1002318461037BD4680BD12
:1003080000200340001003402010034080B400AFD9
:100318000B4B5B680A4A43F00103536000BF084B6C
:100328005B6803F00103002BF9D1054B5B68044AB5
:1003380023F00803536000231846BD4680BC70476D
:100348000020034081F0004102E000BF83F0004339
:1003580030B54FEA41044FEA430594EA050F08BF58
:1003680090EA020F1FBF54EA000C55EA020C7FEA1C
:10037800645C7FEA655C00F0E2804FEA5454D4EB99
:100388005555B8BF6D420CDD2C4480EA020281EA63
:10039800030382EA000083EA010180EA020281EA9B
:1003A8000303362D88BF30BD11F0004F4FEA0131ED
:1003B8004FF4801C4CEA113102D0404261EB4101FC
:1003C80013F0004F4FEA03334CEA133302D0524282
:1003D80063EB430394EA050F00F0A780A4F101043E
:1003E800D5F1200E0DDB02FA0EFC22FA05F2801878
:1003F80041F1000103FA0EF2801843FA05F359415E
:100408000EE0A5F120050EF1200E012A03FA0EFCDC
:1004180028BF4CF0020C43FA05F3C01851EBE37106
:1004280001F0004507D54FF0000EDCF1000C7EEB23
:1004380000006EEB0101B1F5801F1BD3B1F5001F61
:100448000CD349085FEA30004FEA3C0C04F1010480
:100458004FEA445212F5800F80F09A80BCF1004FA9
:1004680008BF5FEA500C50F1000041EB045141EA2B
:10047800050130BD5FEA4C0C404141EB0101013CF4
:1004880028BFB1F5801FE9D291F0000F04BF0146E3
:100498000020B1FA81F308BF2033A3F10B03B3F1B5
:1004A80020020CDA0C3208DD02F1140CC2F10C0245
:1004B80001FA0CF021FA02F10CE002F11402D8BFA3
:1004C800C2F1200C01FA02F120FA0CFCDCBF41EA6F
:1004D8000C019040E41AA2BF01EB0451294330BD3E
:1004E8006FEA04041F3C1CDA0C340EDC04F114041B
:1004F800C4F1200220FA04F001FA02F340EA0300F2
:1005080021FA04F345EA030130BDC4F10C04C4F137
:10051800200220FA02F001FA04F340EA0300294617
:1005280030BD21FA04F0294630BD94F0000F83F461
:10053800801306BF81F480110134013D4EE77FEA44
:10054800645C18BF7FEA655C29D094EA050F08BF90
:1005580090EA020F05D054EA000C04BF1946104671
:1005680030BD91EA030F1EBF0021002030BD5FEAB5
:10057800545C05D14000494128BF41F0004130BDDD
:1005880014F580043CBF01F5801130BD01F0004531
:1005980045F0FE4141F470014FF0000030BD7FEAA4
:1005A800645C1ABF194610467FEA655C1CBF0B469F
:1005B800024650EA013406BF52EA033591EA030FB6
:1005C80041F4002130BD00BF90F0000F04BF0021AE
:1005D800704730B54FF4806404F132044FF00005E1
:1005E8004FF0000150E700BF90F0000F04BF00215A
:1005F800704730B54FF4806404F1320410F00045C0
:1006080048BF40424FF000013EE700BF42004FEABA
:10061800E2014FEA31014FEA02701FBF12F07F4337
:1006280093F07F4F81F06051704732F07F4208BFEE
:10063800704793F07F4F04BF41F40021704730B5F5
:100648004FF4607401F0004521F000411CE700BF41
:1006580050EA010208BF704730B54FF000050AE0C4
:1006680050EA010208BF704730B511F0004502D5C5
:10067800404261EB41014FF4806404F132045FEAC7
:10068800915C3FF4D8AE4FF003025FEADC0C18BF70
:1006980003325FEADC0C18BF033202EBDC02C2F162
:1006A800200300FA03FC20FA02F001FA03FE40EAF4
:1006B8000E0021FA02F11444BDE600BF70B54FF0F8
:1006C800FF0C4CF4E06C1CEA11541DBF1CEA1355D6
:1006D80094EA0C0F95EA0C0F00F0DEF82C4481EA3E
:1006E800030621EA4C5123EA4C5350EA013518BF5E
:1006F80052EA033541F4801143F4801338D0A0FB4B
:1007080002CE4FF00005E1FB02E506F00042E0FBF7
:1007180003E54FF00006E1FB03569CF0000F18BFFD
:100728004EF0010EA4F1FF04B6F5007F64F54074A5
:1007380004D25FEA4E0E6D4146EB060642EAC62138
:1007480041EA55514FEAC52040EA5E504FEACE2EA5
:10075800B4F1FD0C88BFBCF5E06F1ED8BEF1004FA8
:1007680008BF5FEA500E50F1000041EB045170BD24
:1007780006F0004646EA010140EA020081EA030168
:10078800B4EB5C04C2BFD4EB0C0541EA045170BD64
:1007980041F480114FF0000E013C00F3AB8014F1DE
:1007A800360FDEBF002001F0004170BDC4F1000427
:1007B800203C35DA0C341BDC04F11404C4F12005A8
:1007C80000FA05F320FA04F001FA05F240EA020003
:1007D80001F0004221F0004110EBD37021FA04F639
:1007E80042EB06015EEA430E08BF20EAD37070BDF3
:1007F800C4F10C04C4F1200500FA04F320FA05F052
:1008080001FA04F240EA020001F0004110EBD37053
:1008180041F100015EEA430E08BF20EAD37070BDC3
:10082800C4F1200500FA05F24EEA020E20FA04F39C
:1008380001FA05F243EA020321FA04F001F000414B
:1008480021FA04F220EA020000EBD3705EEA430EBC
:1008580008BF20EAD37070BD94F0000F0FD101F0EB
:100868000046400041EB010111F4801F08BF013C24
:10087800F7D041EA060195F0000F18BF704703F062
:100888000046520043EB030313F4801F08BF013DE9
:10089800F7D043EA0603704794EA0C0F0CEA1355A5
:1008A80018BF95EA0C0F0CD050EA410618BF52EA5F
:1008B8004306D1D181EA030101F000414FF0000065
:1008C80070BD50EA410606BF1046194652EA430673
:1008D80019D094EA0C0F02D150EA013613D195EAE7
:1008E8000C0F05D152EA03361CBF104619460AD12F
:1008F80081EA030101F0004141F0FE4141F4700139
:100908004FF0000070BD41F0FE4141F4780170BD28
:1009180070B54FF0FF0C4CF4E06C1CEA11541DBF8D
:100928001CEA135594EA0C0F95EA0C0F00F0A7F88F
:10093800A4EB050481EA030E52EA03354FEA0131BC
:1009480000F088804FEA03334FF0805545EA1313CF
:1009580043EA12634FEA022245EA111545EA106597
:100968004FEA00260EF000419D4208BF964244F12E
:10097800FD0404F5407402D25B084FEA3202B61A4D
:1009880065EB03055B084FEA32024FF480104FF421
:10099800002CB6EB020E75EB030E22BFB61A754695
:1009A80040EA0C005B084FEA3202B6EB020E75EB28
:1009B800030E22BFB61A754640EA5C005B084FEA90
:1009C8003202B6EB020E75EB030E22BFB61A75465D
:1009D80040EA9C005B084FEA3202B6EB020E75EB68
:1009E800030E22BFB61A754640EADC0055EA060E29
:1009F80018D04FEA051545EA16754FEA06164FEA6C
:100A0800C30343EA52734FEAC2025FEA1C1CC0D117
:100A180011F4801F0BD141EA00014FF000004FF0A4
:100A2800004CB6E711F4801F04BF01430020B4F165
:100A3800FD0C88BFBCF5E06F3FF6AFAEB5EB030C1D
:100A480004BFB6EB020C5FEA500C50F1000041EB1A
:100A5800045170BD0EF0004E4EEA113114EB5C04E7
:100A6800C2BFD4EB0C0541EA045170BD41F48011BA
:100A78004FF0000E013C90E645EA060E8DE60CEAC2
:100A8800135594EA0C0F08BF95EA0C0F3FF43BAFDF
:100A980094EA0C0F0AD150EA01347FF434AF95EA96
:100AA8000C0F7FF425AF104619462CE795EA0C0F7A
:100AB80006D152EA03353FF4FDAE1046194622E747
:100AC80050EA410618BF52EA43067FF4C5AE50EA21
:100AD80041047FF40DAF52EA43057FF4EBAE12E711
:100AE8004FF0FF3C06E000BF4FF0010C02E000BFF2
:100AF8004FF0010C4DF804CD4FEA410C7FEA6C5CD5
:100B08004FEA430C18BF7FEA6C5C1BD001B050EA77
:100B1800410C0CBF52EA430C91EA030F02BF90EA62
:100B2800020F0020704710F1000F91EA030F58BF21
:100B3800994208BF90422CBFD8176FEAE37040F083
:100B4800010070474FEA410C7FEA6C5C02D150EA21
:100B5800013C07D14FEA430C7FEA6C5CD6D152EADC
:100B6800033CD3D05DF8040B704700BF84461046A1
:100B780062468C461946634600E000BF01B5FFF7A0
:100B8800B7FF002848BF10F1000F01BD4DF808ED70
:100B9800FFF7F4FF0CBF012000205DF808FB00BF41
:100BA8004DF808EDFFF7EAFF34BF012000205DF89B
:100BB80008FB00BF4DF808EDFFF7E0FF94BF0120E8
:100BC80000205DF808FB00BF4DF808EDFFF7CEFFE9
:100BD80094BF012000205DF808FB00BF4DF808ED28
:100BE800FFF7C4FF34BF012000205DF808FB00BFF9
:100BF8004FEA410212F5001215D211D56FF478733D
:100C0800B3EB625212D94FEAC12343F0004343EADF
:100C1800505311F0004F23FA02F018BF40427047BA
:100C28004FF00000704750EA013005D111F0004044
:100C380008BF6FF0004070474FF00000704700BFDA
:100C48004A0011D212F5001211D20DD56FF4787343
:100C5800B3EB62520ED44FEAC12343F0004343EA98
:100C6800505323FA02F070474FF00000704750EAE3
:100C7800013002D14FF0FF3070474FF0000070474D
:100C880053B94AB9002908BF00281CBF4FF0FF31EB
:100C98004FF0FF3000F092B9ADF1080C6DE904CEC9
:100CA80000F024F8DDF804E0DDE9022304B0704721
:100CB800D0B50C4B002206460F46FFF7FFFCFFF7A6
:100CC800BFFF0446FFF780FC074B0022FFF7F6FC46
:100CD80002460B4630463946FFF738FBFFF7B0FFB0
:100CE8002146D0BD0000F03D0000F0412DE9F0475D
:100CF800089E0D4604468846002B4DD18A429446EC
:100D080068D9B2FA82F252B101FA02F3C2F12001B3
:100D180020FA01F10CFA02FC41EA030894404FEA78
:100D28001C45210CB8FBF5FE1FFA8CF705FB1E834A
:100D380041EA03430EFB07F199420BD91CEB03036D
:100D48000EF1FF3080F01E81994240F21B81AEF116
:100D5800020E63445B1AA4B2B3FBF5F005FB103333
:100D680044EA034400FB07F7A7420AD91CEB040432
:100D780000F1FF3380F00881A74240F20581644406
:100D88000238E41B40EA0E4000211EB1D440002383
:100D9800C6E90043BDE8F0878B4208D9002E00F071
:100DA800EE800021C6E900050846BDE8F087B3FAE1
:100DB80083F100294AD1AB4202D3824200F2F98082
:100DC800841A65EB030301209846002EE2D0C6E999
:100DD8000048DFE702B9FFDEB2FA82F2002A40F0EB
:100DE8009180A1EB0C054FEA1C471FFA8CFE0121EC
:100DF800B5FBF7F307FB1350250C45EA00450EFB3E
:100E080003F0A84208D91CEB050503F1FF3802D20C
:100E1800A84200F2CB8043462D1AA4B2B5FBF7F0E6
:100E280007FB105544EA05440EFB00FEA64508D909
:100E38001CEB040400F1FF3502D2A64500F2BB808A
:100E48002846A4EB0E0440EA03409EE7C1F12007C0
:100E58008B4022FA07FC4CEA030C20FA07F405FA47
:100E680001F31C43FD404FEA1C4900FA01F3B5FBAE
:100E7800F9F8200C1FFA8CFE09FB185540EA0545C5
:100E880008FB0EF0A84202FA01F20BD91CEB05058B
:100E980008F1FF3A80F08880A84240F28580A8F1E6
:100EA800020865442D1AA4B2B5FBF9F009FB1055E8
:100EB80044EA054500FB0EFEAE4508D91CEB0505C6
:100EC80000F1FF346CD2AE456AD90238654440EA75
:100ED8000840A0FB0294A5EB0E05A542C846A6460D
:100EE80056D353D05EB1B3EB080265EB0E0505FA95
:100EF80007F722FA01F3CD401F43C6E90075002128
:100F0800BDE8F087C2F1200320FA03F10CFA02FCD5
:100F180025FA03F395400D434FEA1C471FFA8CFE50
:100F2800B3FBF7F107FB11302B0C43EA004301FB3D
:100F38000EF0984204FA02F408D91CEB030301F1FD
:100F4800FF382FD298422DD9023963441B1AADB20B
:100F5800B3FBF7F007FB103345EA034500FB0EF33C
:100F6800AB4208D91CEB050500F1FF3816D2AB429D
:100F780014D902386544ED1A40EA014138E7314690
:100F8800304607E78646E5E61846FAE64B45A9D215
:100F9800B9EB020864EB0C0E0138A3E74046EAE718
:100FA800204694E74146D1E7D0467BE7023B6544BB
:100FB80032E7084609E76444023842E7704700BF51
:100FC800002301461A46184600F026B938B5084BE2
:100FD800084D5B1B9C1007D0043B1D44013C55F891
:100FE80004399847002CF9D1BDE8384007F050BFC4
:100FF800B4910008B091000870B50D4E0D4D761BE8
:10100800B61006D0002455F8043B01349847A64290
:10101800F9D1094E094D761B07F034FFB61006D0FA
:10102800002455F8043B01349847A642F9D170BD15
:10103800A8910008A8910008B0910008A89100089C
:10104800844641EA000313F003036DD1403A41D3CB
:1010580051F8043B40F8043B51F8043B40F8043B8A
:1010680051F8043B40F8043B51F8043B40F8043B7A
:1010780051F8043B40F8043B51F8043B40F8043B6A
:1010880051F8043B40F8043B51F8043B40F8043B5A
:1010980051F8043B40F8043B51F8043B40F8043B4A
:1010A80051F8043B40F8043B51F8043B40F8043B3A
:1010B80051F8043B40F8043B51F8043B40F8043B2A
:1010C80051F8043B40F8043B51F8043B40F8043B1A
:1010D800403ABDD2303211D351F8043B40F8043BBA
:1010E80051F8043B40F8043B51F8043B40F8043BFA
:1010F80051F8043B40F8043B103AEDD20C3205D3CA
:1011080051F8043B40F8043B043AF9D2043208D0C1
:10111800D2071CBF11F8013B00F8013B01D30B8833
:1011280003806046704700BF082A13D38B078DD011
:1011380010F003038AD0C3F10403D21ADB071CBFE3
:1011480011F8013B00F8013B80D331F8023B20F84D
:10115800023B7BE7043AD9D3013A11F8013B00F886
:10116800013BF9D20B7803704B7843708B7883700E
:1011780060467047830730B548D0541E002A3FD0D8
:10118800CAB2034601E0013C3AD303F8012B9D079C
:10119800F9D1032C2DD9CDB245EA05250F2C45EA06
:1011A800054536D9A4F1100222F00F0C03F1200EE8
:1011B800E6444FEA121C03F1100242E9045542E9E1
:1011C800025510327245F8D10CF1010214F00C0FDF
:1011D80003EB021204F00F0C13D0ACF1040323F05C
:1011E80003030433134442F8045B9342FBD10CF02D
:1011F80003042CB1CAB21C4403F8012B9C42FBD156
:1012080030BD64461346002CF4D1F9E70346144672
:10121800BFE71A46A446E0E770B4184C2568D5F82D
:1012280048411CB365681F2D25DC38B9AB1C013556
:10123800656044F82310002070BC704704EB850CEF
:101248000228CCF88820D4F888614FF0010202FA0D
:1012580005F246EA0206C4F88861CCF80831E5D1FF
:10126800D4F88C311343C4F88C31DFE705F5A67444
:10127800C5F84841D6E74FF0FF30DDE70491000894
:10128800C1F30A52F8B5A2F2FF35132D0B46844676
:101298000C46064632DC002D1EDB354F2F4101EA95
:1012A8000702024315D030A3D3E90023FFF750F813
:1012B80000220023FFF792FC48B1002C04DD4FF414
:1012C800801343FA05F52C4424EA07040026234634
:1012D800B44660461946F8BD23A3D3E90023FFF7B7
:1012E80037F800220023FFF779FC0028EFD0002C04
:1012F80034DB26432ED01F4C0026E8E7332D08DDCB
:10130800B5F5806FE5D10246FFF722F884460B4613
:10131800DFE7A2F213424FF0FF37D7400742D8D099
:1013280011A3D3E90023FFF713F800220023FFF7E6
:1013380055FC0028CBD0002C09DD142D0CD001233E
:10134800C5F1340503FA05F5AE1928BFE41826EAF5
:101358000706BCE73446BAE70134F8E700264FF041
:101368000044B4E7AFF300809C7500883CE4377E06
:10137800FFFF0F000000F03FC1F30A52F8B5A2F2D8
:10138800FF35132D0B4684460C46064630DC002DEF
:101398001EDB354F2F4101EA0702024315D030A367
:1013A800D3E90023FEF7D4FF00220023FFF716FC41
:1013B80048B1002C04DA4FF4801343FA05F52C44A5
:1013C80024EA070400262346B44660461946F8BDB9
:1013D80023A3D3E90023FEF7BBFF00220023FFF776
:1013E800FDFB0028EFD0002C24DB00263446EAE77A
:1013F800332D08DDB5F5806FE7D10246FEF7A8FF6B
:1014080084460B46E1E7A2F213424FF0FF37D7407C
:101418000742DAD012A3D3E90023FEF799FF00228E
:101428000023FFF7DBFB0028CDD0002C0BDB26EADE
:101438000706C8E724F000430C4A1E43002E18BFD5
:1014480014460026BFE7142D08D00123C5F1340542
:1014580003FA05F5AE1928BFE418E8E70134E6E712
:101468009C7500883CE4377EFFFF0F000000F0BF4A
:10147800F0B5C1F30A55A5F2FF3CBCF1130F83B0D8
:1014880002460B460C4686464FEAD17665DCBCF12F
:10149800000F30DB424941FA0CF103EA0100104326
:1014A80061D003EA510352EA030E4FEA51010DD00D
:1014B80024EA01014FF48024BCF1130F44FA0CF420
:1014C8000CBF4FF0004E4FF0000E0C43354901EBB6
:1014D800C6062346D6E90045724620462946FEF749
:1014E80037FFCDE90001DDE9000122462B46FEF772
:1014F8002DFF03B0F0BD21F0004101431946F8D09B
:10150800C3F3130343EA000E264ACEF1000343EA6D
:101518000E0302EBC606D6E90067620C1B0B03F448
:101528000023520443EA02010B460246394630467C
:10153800FEF70EFFCDE9000132463B46DDE900012A
:10154800FEF704FF04F0004421F00041024641EA9E
:1015580004031046194603B0F0BDBCF1330F06DD95
:10156800BCF5806F18D01046194603B0F0BDA5F23F
:1015780013454FF0FF31E9400842F4D010EA510218
:101588004FEA5103A2D04FF0804E20EA03034EFAEF
:1015980005F543EA050E99E7FEF7DAFEA9E700BF6D
:1015A800FFFF0F000891000838B5C1F30A55A5F2EE
:1015B800FF32132A0B4684468E4604461EDC002A58
:1015C8000EDB1D49114103EA0100204313D04FF4FB
:1015D800002343FA02F296442EEA010E002408E0A2
:1015E80001F0004E013204BF4EF07F5E4EF4401E03
:1015F80000247346A4466046194638BD332A08DDE0
:10160800B2F5806FF7D10246FEF7A2FE84460B467C
:10161800F1E7A5F213454FF0FF3121FA05F528420D
:10162800E9D00123C2F1330203FA02F2841828BF79
:101638009E4424EA0504DCE7FFFF0F00014B01226A
:101648001A707047000000200020704730B50578F8
:1016580087B03DB94378114C4BB9114801F060F996
:10166800022323700F4B01221A7007B030BD0E48B9
:1016780001F056F90D4B029303F10802103304935D
:1016880001A808238DF814308DF80450039206F051
:1016980025F900280CBF04230323E2E7C404002033
:1016A8001891000800000020219100080100002086
:1016B80030B5134C89B0201D02F068F80125684642
:1016C8008DF8005005F06AFE30B99DF804302BB152
:1016D800022323700B4B1D7009B030BD8DF80C3000
:1016E800094B049303F1080203A8103306930592EB
:1016F80006F0F4F800280CBF042303232370EBE75B
:10170800C404002000000020010000200378042BFE
:1017180001D1FFF7CDBF704770B54378044613BBBE
:10172800037990F91020B0F90E100F4801F0F8F87D
:101738006379012B01D1FFF7BBFF237B23B9BDE8F8
:1017480070400A4801F0ECB809480A4E01F0E8F880
:101758000025237B9D42F2DAA3683046595D01F0EB
:10176800DFF80135F5E770BD2F9100085F9100089B
:10177800629100086D91000880B5614C6148624F24
:10178800624D002392B0237001F0CAF82378042B2D
:1017980000F2B380DFE803F0035167A4AE005C4BAE
:1017A80009935C4B0A935C4B0B935C4B0C9305229F
:1017B8005B4B019301A909A805F000FC59495A4857
:1017C80001F06CFF4FF001084FF0020903A88DF8F3
:1017D8000C908DF8108005F0D7FE072303A88DF82C
:1017E8000C308DF8108005F0CFFEFF23ADF83430B3
:1017F8000D2300268DF8183006A80DAB0793ADF819
:101808003660ADF83860ADF83A60ADF83C60ADF8D8
:101818003E6005F0B9FE0C220DAB06A88DF8182025
:10182800079305F0B1FE06A88DF818608DF81C9096
:1018380005F0AAFE84F80080A8E700238DF834306C
:101848003A4B0E9303F10802103310930DA80823A6
:101858008DF844300F9206F041F800280CBF04239D
:101868000323237092E72B7803B3042000264FF05C
:1018780001094FF00208032306A985F821002676FE
:1018880084F8199084F81A80E37605F021FDC0B138
:101898008DF834600F96ADF840608DF842600DA861
:1018A80006F02AF9003818BF012028704FF47A7121
:1018B800002003F08BFD00F5EA4030306862032316
:1018C800CFE71B4B0F9395F82130ADF840304FF41C
:1018D80000638DF834908DF83880ADF84230DEE73B
:1018E8000423696A1048237001F080FF0E4801F054
:1018F800DDFE4BE73B6E984748E70023B1E700BFA2
:10190800C404002071910008249000080000002001
:101918004516000821170008551600081517000875
:1019280051160008B9160008C8040020010000205C
:10193800DC0400201FB50D480D4C0122002101F0E8
:101948000BF901221146094801F006F901A801F036
:10195800B2FD4FF4E13301A92046019301F0C0FD27
:101968000121204601F0B2FD04B010BD00F4014091
:101978000030004008B50121022001F0E1FB0121FF
:101988001F2001F083F901210D2001F07FF90121C9
:10199800202001F07BF90121212001F077F90121B4
:1019A800222001F073F90121412001F06FF9012192
:1019B800032001F06BF90121002001F067F90121F2
:1019C8000E2001F063F9642001F02EF8012001F0E7
:1019D800E5F8FFF7AFFFBDE8084003F021BA08B506
:1019E800FFF7C8FFFFF7C8FE002008BD7047FEE7F5
:1019F800FEE7FEE7FEE7704770477047704702F062
:101A0800E7BD03F019BB70472DE9F84F99460D9BC8
:101A180015469A07DDE90B4706468B4622D02A462B
:101A28000A9901EB04081444A2421FD10D9B9B079D
:101A380005D5A2EB0508474505EB08041FD8204645
:101A4800BDE8F88F4B4659462020B04708F10108F9
:101A5800B8450AEB0802F5D33A1BBC4288BF0022FE
:101A68002A44DDE7A046A5EB040AF1E702F1010AE2
:101A780018F8010D4B465946B0475246D4E74B4635
:101A8800224659462020B04708F10108D3E72DE93E
:101A9800F047DDE90D7616F0020FDDE90854DDE9BF
:101AA8000BC89DF828E01FD106F001094FB1B9F124
:101AB800000F06D0BEF1000F02D116F00C0F00D0B7
:101AC800013F4FF0300A04E0202C04D005F804A0B0
:101AD8000134A045F8D84FF0300AB9F1000F03D00F
:101AE800BC4201D21F2C34D916F0100F1FD016F4A7
:101AF800806F33D194B3444501D0BC422ED1B4F1A8
:101B080001082AD0BCF1100F33D1023C16F0200F87
:101B180031D11F2C15D84FF0780C05F804C00134CA
:101B28001F2C0ED84FF0300C05F804C001341F2CC0
:101B380007D8BEF1000F23D04FF02D0C05F804C0D4
:101B48000134CDE90A76CDE90854BDE8F047FFF73E
:101B58005BBF05F804A00134BFE74446BCF1100F91
:101B6800D4D0BCF1020FDBD11F2CEAD84FF0620CA5
:101B7800D3E74446F5E71F2CE3D84FF0580CCCE7E1
:101B880016F0040F02D04FF02B0CD7E716F0080F11
:101B9800D7D04FF0200CD1E72DE9F04391B0189D34
:101BA8001A9E1D9F0DB927F010077C0500D515B3A7
:101BB80017F0200F14BF4FF0410E4FF0610EAC46E6
:101BC8000DF120080025AEF10A0EBCFBF6F906FB64
:101BD80019C95FFA89F4B9F1090F94BF3034744414
:101BE800E4B2B44508F8014BBCFBF6F405F1010575
:101BF80001D3202D10D11C9C05941B9C0697CDE980
:101C080003649DF86440CDE9015408AC0094FFF7E3
:101C18003EFF11B0BDE8F083A446D6E72DE9F04FAA
:101C28002DED048B93B0DDE92065289F9A4656EA8E
:101C3800050308BF27F0100709EE102A7A05DDE929
:101C480024B908EE100A08EE901A02D556EA0503E0
:101C58003DD017F0200F14BF412361230A3B0DF13B
:101C68002808002409935A464B4630462946FFF770
:101C780007F8D2B2092A8ABF099B3032D2185E45CA
:101C8800D2B275EB090308F8012B04F1010401D362
:101C9800202C19D1279B0593269B0697CDE903B3E2
:101CA8009DF88830CDE901430AAB009319EE102A5C
:101CB80018EE901A18EE100A5346FFF7E8FE13B014
:101CC800BDEC048BBDE8F08F06460D46CBE700243B
:101CD800E0E70000000000002DE9F04F2DED088B33
:101CE8008DB01D46DDE920B39DED1E7B0A93229B36
:101CF800079208EE900AB0EE479AF0EE679A0C4603
:101D0800069351EC170B53EC172BFEF73FFF80B1EE
:101D1800CB4B51EC190B4FF0FF32FEF75FFF40B988
:101D280051EC190B4FF0FF326FF48013FEF738FFB8
:101D380090B1069B22930A9B079A18EE900ACDE968
:101D480020B321462B468DED1E9B0DB0BDEC088BB4
:101D5800BDE8F04F00F08CB951EC190B00220023BC
:101D6800FEF71EFF002800F03F8119EE903A19EEA9
:101D7800108A03F10049069B9FEDB27A9FEDB28A63
:101D880013F480630B93C9F30A53A3F2FF3307EEEE
:101D9800903AC9F31302F8EEE77A42F07F51AB4B61
:101DA8004FF00002404641F4401108BF4FF0060BC7
:101DB800A7EE878AFEF7CAFA9BA3D3E90023FEF7AA
:101DC8007DFC064618EE100A0F46FEF71FFC024679
:101DD8000B4630463946FEF7BBFAFEF709FF07EE19
:101DE800900AB8EEE77ADFED9A7AB6EE008AA7EEA7
:101DF800278A8246DFED977ABDEEC88AF8EEC86A70
:101E080067EEE67ADFED946AE7EE267A17EE900A37
:101E1800FEF7FCFB02460B4606460F46FEF74EFC55
:101E2800324641EC1A0B3B4630463946FEF790FAEB
:101E38008A4B41EC1B0B002251EC1A0BFEF768FD94
:101E4800874B0022FEF784FA02460B4651EC1A0B28
:101E5800FEF75EFD834B0022FEF77AFA02460B4638
:101E680051EC1A0BFEF754FD324641EC1A0B3B4677
:101E780000204FF08041FEF769FA02460B4651EC0C
:101E88001A0BFEF765FA02460B4651EC1B0BFEF7E0
:101E98003FFD754B0022FEF75BFA18EE103A03F28D
:101EA800FF3633050022FEF709FC42464B4606463C
:101EB8000F46FEF793FE002840F09980CDE90867A9
:101EC8000AF16303C72B069B34BF042605261905B0
:101ED80023D557A3D3E9002340464946FEF774FEAD
:101EE800002800F08F8054A3D3E9002340464946D8
:101EF800FEF756FE002800F08580069BD345C8BF34
:101F0800ABEB0A0B43F480634FF00006CCBF0BF138
:101F1800FF3B4FF0000B0693B2460A9B9E4238BF28
:101F28009F1B069B28BF002713F002030B9302D0C8
:101F3800002E18BF0027BAF1000F07D040464946C7
:101F4800DDE90823FEF7E4FC8046894651EC190BCD
:101F580000220023FEF724FE10B109F10043994640
:101F6800069B079ACDF808B023F40063CDE9037304
:101F7800CDE9008918EE900A2B46214600F078F842
:101F88006EB3069B13F0200F00F1010802462B46A2
:101F980014BF45206520214618EE907AB8470523DE
:101FA800059300220A238AEAEA70CDE90232A0EBFF
:101FB800EA704FEADA73013E019300902B4618EE5F
:101FC800900A049642462146FFF7E6FD0B9B33B183
:101FD800079BC61A079B98190A9BB3421BD80DB0DA
:101FE800BDEC088BBDE8F08F59EC198BC3E61C4B90
:101FF800002230463946FEF78BFC0AF1FF3ACDE95C
:1020080008015DE7BBF1000F87D00B9B002B84D044
:102018000BF1FF3B81E7024618EE907A2B462146EA
:102028002020B8470136D5E700000060A787D23FD7
:10203800000000E0E2361A3F0000000080842E41D4
:10204800FFFFEF7F9B209A3E4451343E0000F83F4B
:10205800789A54401872313F8E5D134000002C402E
:1020680000002440000018400000F03F000000007D
:102078002DE9F04F2DED088B8FB0DDE920AB09EE8F
:10208800103ADDE9225308EE100A08EE902A0F46AE
:10209800049352465B4650465946249EFEF776FD09
:1020A800A0B9049B229303232193B94B2396209331
:1020B80018EE902A19EE103A18EE100A39460FB0A9
:1020C800BDEC088BBDE8F04FFFF79EBC4FF0FF3228
:1020D8006FF4801350465946FEF762FD30B1049BF9
:1020E8002293042321932396AA4BE0E7AA4B4FF0AF
:1020F800FF3250465946FEF771FD70B1A74A049960
:10210800239606F00403002B08BF0322A44B1CBF30
:1021180013460422CDE92121C9E799A3D3E9002375
:1021280050465946FEF75AFD38B997A3D3E900231C
:1021380050465946FEF734FD98B1049B2496CDE9E4
:10214800225318EE902A19EE103A18EE100A394662
:10215800CDE920AB0FB0BDEC088BBDE8F04FFFF721
:10216800BBBD0022002350465946FEF719FD002842
:1021780000F081805B46524600200021FEF7E6F819
:10218800012382468B46059316F4806F08BF062507
:1021980006ABA5F12002A9463021B9F1090FA5EB3C
:1021A800090406D909F1FF394A4503F8011BF4D19E
:1021B800202459465046FEF71BFD7A4B03EBC90312
:1021C80093ED007B0546B0EE47AAF0EE67AAFEF74E
:1021D8000BFA02460B4650465946FEF7B7F853EC41
:1021E8001A2BFEF76BFA02460B4643EC1B2BFEF745
:1021F80027FD8046FEF7E8F902460B4651EC1B0B1B
:10220800FEF7A4F802460B4643EC1B2B664B002254
:10221800FEF7E4FC88B308F101084046FEF7D4F95C
:1022280002460B4651EC1A0BFEF7C4FC10B10135FF
:102238004FF00008B9F1000F50D12846FEF7D4F945
:1022480002460B4650465946FEF780F8564B002288
:1022580080468946FEF7A4FC30B1534B0022404625
:102268004946FEF7BBFC10B1E80700D5013506ABBF
:1022780023440A2259E0059086E74B4B51EC1B0B8F
:102288000022FEF78DFC0028D4D1B8F1000F02D04F
:1022980018F0010FCED008F10108CBE7B8FBF1F038
:1022A80001FB10823032B8F1090F03F8012B09F154
:1022B800FF3904F1010428D8A14406AA3021202CB2
:1022C80011D04C4504F1010321D104F138020DEB82
:1022D80002042E2204F8202C1C46C8E706AB23442F
:1022E8000A21202CDAD106F00303012B06AB39D1E1
:1022F800049A002A36D0059A12B916F00C0F02D0AB
:10230800049A013A0492302214E08046E9E7A15485
:102318001C46D4E795FBF2F102FB1155303503F862
:10232800015B01340D460029DDD0202CF2D1DAE71B
:102338001A5501340499A14214D9202CF8D1049AD1
:102348000093CDE9014219EE103A18EE902A18EEE2
:10235800100A03963946FFF757FB0FB0BDEC088B00
:10236800BDE8F08F202CEAD0059AFAB104F13802C2
:102378006A442D2102F8201C0134E0E7AFF3008005
:102388000000000065CDCD410000000065CDCDC145
:102398008D91000891910008FFFFEF7F8891000858
:1023A80084910008A88E00080000E03F710704D55A
:1023B80004F138026A442B21DCE73207BFD504F167
:1023C80038026A442021D5E7014610B1014801F0DE
:1023D8006DB87047003000402DE9F04F91B09B4632
:1023E800B74B1A9E0029904614BF8146994600258E
:1023F8009BF8000058B945452CBF08F1FF322A4622
:1024080043460020C847284611B0BDE8F08F25286C
:102418000BF1010B06D02A466C1C43460A91C847AB
:102428002546B2E1002306E02D2A14D0302A0CD12B
:1024380043F001038346584610F8012B2B2A0DD090
:10244800F2D8202A0DD0232A0ED0A2F13004092C6C
:1024580029D8002710E043F00203EBE743F0040318
:10246800E8E743F00803E5E743F01003E2E70A244E
:1024780004FB0727303F8346584610F8012BA2F18A
:102488003004092CF3D99BF800202E2A67D19BF839
:102498000100A0F13004092C0BF1010243F4806320
:1024A80053D8002411E02A2A08D156F8047B002FBB
:1024B800BCBF43F002037F428346E4E70027E2E71C
:1024C8000A2202FB0404303C624694461CF8010BC5
:1024D800A0F1300EBEF1090FF2D993465A4612F810
:1024E800010B6C2844D03CD868284AD06A2852D0BE
:1024F8005A4693461BF8010B78288CD857284DD894
:10250800452805D087D9462800F02C81472882D154
:1025180000F0DF02472A04BF00F0FD0043F4006327
:10252800452808BF43F02003CDE90373073626F09A
:1025380007060294F6E802234846CDE900234346FD
:102548002A460A91FFF7C8FB1EE12A2806D156F849
:10255800044B0BF1020B24EAE474BFE79346002412
:10256800BCE7742801D07A28C2D143F48073C0E74D
:102578009BF801006C28F8D143F440730BF1020278
:10258800B7E79BF80100682802D043F08003B0E762
:1025980043F0C003F2E743F40073AAE7A0F158023E
:1025A800202A3FF638AF0FF2080C5CF822F000BF83
:1025B8003D2600081F2400081F2400081F240008C7
:1025C8001F2400081F2400081F2400081F240008D7
:1025D8001F2400081F2400083D260008972700082C
:1025E8003D2600081925000871270008192500084C
:1025F8001F2400083D2600081F2400081F24000887
:102608001F2400081F2400081F2400083D26000876
:10261800ED2800081F2400081F24000817280008B8
:102628001F2400083D2600081F2400081F24000856
:102638003D260008782800F06B81582800F0668154
:102648006F2800F06781622800F06681692823F00E
:1026580010034FF00A0203D0642801D023F00C03C2
:1026680013F4806F18BF23F00103692803F4007C7A
:1026780001D0642841D1BCF1000F23D0073626F0E1
:102688000706B24676685AF8080B0694CDE9077330
:1026980000230593F30F002E02930492034602DAF7
:1026A800434266EB4606CDE9003643462A4648468D
:1026B8000A91FFF7B3FA0A990546564698E600BF0D
:1026C8000F1A0008D80506F1040A0CD53068CDE9C0
:1026D8000224CDE9047300284FEAD0730193B8BFF0
:1026E8004042009027E013F0400F306801D0C0B29C
:1026F800EDE71E0648BF00B2E9E7BCF1000F0ED0B7
:10270800CDE907730023CDE90423073626F0070A2D
:1027180006940293FAE80223CDE90023C5E7D80519
:1027280006F1040A0ED5CDE90473CDE90224CDF8EB
:1027380004C03368009343462A4648460A91FFF787
:102748002BFAB8E713F0400F306807D0C0B2CDE9D4
:1027580004730023CDE902240193C2E71E0648BF93
:1027680080B2F4E743F02003CDE90373073626F07F
:1027780007060294F6E802234846CDE900234346BB
:102788002A460A91FFF774FC05460A9930E613F0C9
:10279800020426D04FF0010A56F8040B0B916B1C6B
:1027A8000A932A464346C0B2C8470B996CB30A9AA3
:1027B800544620E00A9143462020C8470A990AEB6C
:1027C80005020AF1010A5745F4D8002F07F1FF3333
:1027D80008BF002307F1010A1D4408BF4FF0020A91
:1027E800DAE7A246EBE70B9143462020551CC84781
:1027F8000B9901342A46BC42F5D30A9AA7EB0A037F
:10280800574538BF00231A440A920A9DF0E532461C
:1028180052F8046B0A92414A002E08BF1646002C53
:1028280014BF22464FF0FF323244B4469CF80000F1
:1028380008B1944511D113F48062ACEB060A0B92EF
:1028480002D0A24528BFA24613F002030C931DD163
:10285800AAEB05032A460E930AE00CF1010CE5E702
:10286800531C0D930F9143462020C8470D9A0F998A
:102878000E9BD3189F42F3D8A7EB0A03574538BFDE
:1028880000230AF101021D4403EB020AAB1B0D935E
:1028980005E01C460E9143462A46C8470E990D9BF3
:1028A8009D1916F8010B28B10B9B002BF2D0631E63
:1028B800002CEED10C9B9BB12A46AAEB050406E03E
:1028C8000B9143462020561CC8470B9932461319D2
:1028D800BB42F5D3A7EB0A03574538BF00231D4475
:1028E8000A9E85E543F0210305930823CDE90343B8
:1028F80010220023CDE9013256F8043B00932A4602
:10290800434648460A91FFF747F93DE743F020035D
:102918001022A3E60822A1E602229FE6969100086B
:102928000FB41FB506AA02A952F8043B03920092FD
:1029380004484FF0FF32FFF74FFD05B05DF804EB98
:1029480004B07047D1230008064B0748E02283F8FB
:102958002220C0210023C2180133252B82F800133E
:10296800F9D1704700ED00E000E100E00F4A08B53A
:10297800D2F8883043F47003C2F888304FF08042B0
:10298800D36843F08003D36002F50032536923F41F
:10299800702343F48033536193689B07FCD5FFF79A
:1029A800D3FFBDE8084000F003B800BF00ED00E029
:1029B80008B5012000F0FEF80C4B984214D90C4AD7
:1029C8000133B0FBF3F313700A4A4FF47A73B0FB88
:1029D800F3F04FF0E0230138E021586182F823102A
:1029E80000229A6107221A6108BD00BF3F420F000A
:1029F800EC04002000ED00E030B50A4B4FF0E02178
:102A08001B784D695BB18C69584300238A699442ED
:102A1800FCD0234498BF5B199B1A834200D330BD76
:102A28001446F3E7EC0400204FF47A735843FFF799
:102A3800E3BF0000012310B58B40062A00F2828014
:102A4800DFE802F0040F1B293849630002681A43C3
:102A5800026082681A438260C26822EA0303C36084
:102A680038E002681A43026082681A438260C268CA
:102A78001A43C260026913430BE002681A430260FA
:102A880082681A438260C2681A43C260026922EAF5
:102A9800030303611EE0026822EA030202608268FF
:102AA80022EA03028260426822EA030242608269E3
:102AB80013430EE0026822EA03020260826822EAF7
:102AC80003028260426822EA03024260826922EAC3
:102AD8000303836110BD1F4CA0426FEA03020BD1B0
:102AE800072909D981691140816181680A4082609A
:102AF80002681A430260BDE70168114001608168FD
:102B08000A40826042681A43D0E7124CA0426FEA3A
:102B180003020AD1072908D98169114081618168B6
:102B28001140816001680A40E4E7016811400160D2
:102B380081681140816041680B43436083691A4092
:102B48008261C7E702681A430260826822EA0302C8
:102B580081E700BF00FC0140072910B511D90E4BD1
:102B6800083998420BBF01EB4101890007230F2365
:102B78008B4002FA01F1C26B22EA03031943C163D5
:102B880010BD836B89000F248C4023EA040302FAEA
:102B980001F119438163F3E700FC0140044AD3685B
:102BA80018B143F08003D360704723F08003FAE73D
:102BB800008000404FF0804301461A6802F4E0426A
:102BC800B2F5A04F20D015D8B2F5805F1ED0B2F56F
:102BD800005F1B4808BF4FF4004002291BD003299F
:102BE80023D0012905D14FF080431B68C3F3032389
:102BF800D8407047B2F5C04F0BD0114B1148B2F511
:102C0800E04F18BF1846E8E70F48E6E74FF4FA40E8
:102C1800E3E70E48E1E74FF080421368C3F303236C
:102C2800D8401368C3F34213E2E74FF080421368B9
:102C3800C3F30323D8401368C3F3C233D8E700BFF4
:102C480000366E01006CDC020048E80180EE3600B8
:102C58004FF08043986800F4C03070474FF08043CD
:102C6800986800F4C04070474FF08043986800F4BB
:102C7800C05070474FF08043986800F4C0607047B8
:102C88004FF08043586800F00200704741284AD846
:102C9800DFE810F011020702FD01E401D201B901D9
:102CA800710167015D01530149013F0135010D01C2
:102CB8000301D600EA00E000CC004900C200B800D9
:102CC800AE00A30099008F0085006B0061005700DB
:102CD8004D004200170121012B014900490049001C
:102CE8004900490049004900490049004900490094
:102CF800490049002E0225021B02380295014900AD
:102D08004900490049004900490049004900490073
:102D18004900490042024C024FF08043DA6819B179
:102D280042F48012DA60704722F48012FAE74FF01A
:102D38008043DA6811B142F40022F3E722F400225A
:102D4800F0E74FF08043DA6811B142F48022E9E7F6
:102D580022F48022E6E74FF08043DA6811B142F4AA
:102D68000032DFE722F40032DCE74FF08043DA6814
:102D780079B142F48032DA604FF080439A6A02F007
:102D88003F023F2AFAD15A6931B142F004025A612E
:102D9800704722F48032EEE722F00402F7E74FF0A2
:102DA8008043DA6811B142F40042BBE722F40042E2
:102DB800B8E74FF08043DA6811B142F48042B1E7D6
:102DC80022F48042AEE74FF08043DA6811B142F452
:102DD8000052A7E722F40052A4E74FF080431A6993
:102DE80019B142F020021A61704722F02002FAE776
:102DF8004FF08043DA6811B142F4805292E722F42E
:102E080080528FE74FF08043DA6811B142F40062D4
:102E180088E722F4006285E74FF08043DA6811B151
:102E280042F480627EE722F480627BE74FF08043C1
:102E3800DA6811B142F4807274E722F4807271E7A3
:102E48004FF08043DA6811B142F020026AE722F0BD
:102E5800200267E74FF08043DA6811B142F0800240
:102E680060E722F080025DE74FF08043DA6871B1D5
:102E780042F04002DA604FF080439A6A02F03F0263
:102E88003F2AFAD15A6929B142F008027FE722F0B5
:102E98004002EFE722F0080279E74FF08043DA6852
:102EA80011B142F010023DE722F010023AE74FF06C
:102EB8008043DA6811B142F0007233E722F0007201
:102EC80030E74FF08043DA6811B142F0807229E7A9
:102ED80022F0807226E74FF08043DA6811B142F49D
:102EE80000021FE722F400021CE74FF08043DA6873
:102EF80011B142F4800215E722F4800212E74FF084
:102F08008043DA6811B142F008020BE722F00802A8
:102F180008E74FF08043DA6811B142F0040201E794
:102F280022F00402FEE64FF08043DA6811B142F065
:102F38000202F7E622F00202F4E64FF08043DA6874
:102F480011B142F00102EDE622F00102EAE64FF08B
:102F58008043DA6811B142F00062E3E622F00062D1
:102F6800E0E64FF08043DA6811B142F08062D9E6BA
:102F780022F08062D6E64FF080431A6979B142F4B4
:102F880000721A619A6A02F03F023F2AFAD15A691E
:102F980042F010025A611A6942F0100223E722F047
:102FA80010021A619A6A02F03F023F2AFAD15A695E
:102FB80022F010025A611A6922F4007213E74FF0E6
:102FC80080431A6979B142F480521A619A6A02F010
:102FD8003F023F2AFAD15A6942F020025A611A691F
:102FE80042F40062FFE622F400621A619A6A02F073
:102FF8003F023F2AFAD15A6922F020025A611A691F
:1030080022F48052EFE64FF080431A6971B142F022
:1030180008021A614FF080439A6A02F03F023F2A81
:10302800FAD15A6929B142F00102B0E622F0080249
:10303800EFE722F00102AAE64FF080431A6931B1A6
:1030480042F004021A611A6942F04002CBE622F00B
:1030580004021A611A6922F04002C4E64FF0804364
:103068001A6971B142F002021A614FF080439A6AFC
:1030780002F03F023F2AFAD15A6929B142F002020E
:1030880085E622F00202EFE722F002027FE64FF027
:103098008043DA6811B142F0805243E622F0805250
:1030A80040E64FF080431A6911B142F001029AE6F6
:1030B80022F0010297E64FF080431A6911B142F0FD
:1030C800800290E622F080028DE64FF080431A6974
:1030D80011B142F4807286E622F4807283E64FF0E2
:1030E8008043DA6809B11A431CE622F0804219E6E7
:1030F8004FF08043DA6811B142F0005212E622F034
:1031080000520FE64FF080431A6911B142F4806211
:1031180069E622F4806266E64FF08043DA6811B10E
:1031280042F40012FEE522F40012FBE54FF0804362
:10313800DA6811B142F00042F4E522F00042F1E50C
:1031480010B50C4605280ED8DFE800F003151F2837
:10315800345F374A3749936934B123F020039361C8
:103168008B685B07FCD510BD43F0200393618B6827
:103178005C07FCD4F7E72E4A936819B123F400439F
:103188009360F0E743F40043FAE7294A936811B1E2
:1031980023F4C043F4E743F4C043F1E7244A9369B6
:1031A80023F0180319B143F008039361DBE743F0F8
:1031B8001003FAE701210E20FFF768FD1E4BD3F834
:1031C8000421CCB190060BD4D3F8042142F020029C
:1031D800C3F80421D3F8042122F08002C3F80421A3
:1031E800154BD3F8042142F00402C3F80421D3F8A4
:1031F80008219107FBD5B6E722F00402C3F80421A1
:10320800D3F808219207FBD4ADE7094A0949936925
:1032180034B123F0400393618B68002BFCDAA2E7FA
:1032280043F0400393618B68002BFCDB9BE700BFF6
:103238000080004000820040009000403F281ED8D7
:103248002F280DD90123303803FA00F04FF08043BE
:10325800DA6911B91043D861704722EA0000FAE729
:10326800A0F12003DBB2022B98BF0D20012303FA43
:1032780000F04FF080439A6911B910439861704784
:1032880022EA0000FAE708B500210320FFF7FEFC58
:1032980001210320FFF7D2FFBDE8084000210320E9
:1032A800FFF7CCBF034940F6FF53CA6A33EA02026C
:1032B800FBD1704700E0004008B5FFF7F3FF054B6E
:1032C8001A6818B142F080521A6008BD22F0805284
:1032D800FAE700BF00E0004008B5FFF7E3FF054B41
:1032E8001A6818B142F080721A6008BD22F0807224
:1032F800FAE700BF00E00040012808B50AD8FFF748
:10330800D1FF054B1A6801280CBF42F0007222F069
:1033180000721A6008BD00BF00E00040F8B505461D
:1033280000285ED0314B5F6BB9B25E6C5A6CB2420A
:10333800FBD19C6C9A6CA242FBD15A6B92B291421F
:10334800F1D10029EFD0FFF79BFCBFB207EE907ACE
:10335800B8EEE77AF6EE007A002843D1DFED246A6A
:10336800C6F3021306F00F0203EB830302EB4303D9
:10337800EB71C6F3C223C6F3C31203EB830302EB5C
:103388004303AB71C6F3814303EB8303C6F3833670
:1033980006EB4306C4F3011304F00F0203EB8303A7
:1033A80002EB43032B71C4F38023C4F3831203EBB2
:1033B800830302EB4303E7EE267AEB70C4F3C223E0
:1033C800AB70C4F3834303EB8303C4F38334FCEE91
:1033D800E77A04EB430404F5FA64C5ED027A6E71EA
:1033E8002C80F8BDDFED036ABAE700BF00E00040BB
:1033F8000024F4410000FA41402810B50C4608D0DA
:10340800431EDBB21F2B09D8054A22FA03F3DB0758
:1034180004D5FFF747FF0CB9024BD86110BD00BFB8
:103428008B80008000E00040402808B508D0431E8B
:10343800DBB21F2B0ED8084A22FA03F3DB0709D5A3
:10344800FFF730FF054BDB6930EA03030CBF0120AF
:10345800002008BD0020FCE78B80008000E00040D1
:1034680080280AD0402808D0431EDBB21F2B0DD875
:10347800074A22FA03F3DB0708D5012906D8054BCA
:103488009A6A0CBF104322EA00009862704700BF96
:103498008B80008000E0004008B518B1FFF702FFFC
:1034A800014B986108BD00BF00E0004083699B069E
:1034B800FCD4016070474FF4E133036060238380DC
:1034C800002383714FF4401383607047036B19B175
:1034D80043F001030363704723F00103FAE7000098
:1034E80038B5036B23F001030363C36A23F01003A9
:1034F800C36200238363464B984204460D463ED17F
:10350800FFF7A6FBC00B0138022850D8414B53F8EF
:1035180020002B68B0EB031F4FEA031175D36BB182
:10352800B0FBF1F201FB1200C000B0FBF3F000F0B9
:10353800010303EB500080B240EA02431A0C03F087
:103548003F036262A362E36A2A7923F060031343AC
:10355800E362E36AAA7923F008031343E362EB7A90
:103568008BB3E36A43F01003E3626B79012B2ED02F
:10357800022B42D09BBBE36A23F002032EE0B0F19A
:10358800402F04D1FFF76AFBC0F34F30BBE7224B53
:10359800984204D1FFF768FBC0F3CF20B3E71F4B75
:1035A80098420ED1FFF766FBC0F34F20ABE7184BEC
:1035B8009C4202D0B4F1402F03D10220FFF7FAFA5F
:1035C800A7E70320FAE7E36A23F01003CCE7E36AEE
:1035D80043F00203E362E36A23F00403E362236B2C
:1035E800AA7A23F0300313432363236B2A8923F435
:1035F800404313432363002038BDE36A43F00203CA
:10360800E362E36A43F00403E8E74FF0FF30F3E7CF
:1036180000300040F88E0008000001400010014012
:10362800FFF702BA10B501F063FC044601F0ECFCA8
:10363800064B1B68011B241A03B910BD1A688A427D
:103648008CBF121900221A601B69F5E7F0040020EC
:10365800054A13680BB10021197203610123106038
:103668000372006801F0F4BBF004002073B502ABEC
:1036780003E9030001F042FCBDF90430009D064C4B
:103688004FF47A76DA17E5FB06321B1A62EB010271
:10369800C4E9023202B070BDF00400200023C0E982
:1036A8000033C0E9031303727047000070B5044685
:1036B80001F0DBFC64B11A4E3268134663B96168E5
:1036C8002160237262B901F09FFC2046FFF7C0FF1A
:1036D800BDE8704001F0CBBC9C42F9D01B69EDE716
:1036E80001F09EFC226833680244226019688A420D
:1036F800054605D2FFF796FF2068401B2060E4E7E7
:103708001969186910B91C612061E1E708688242EB
:1037180002D90B460969F4E71C612161D8E700BFAB
:10372800F004002070B5184CFFF77CFF23682BB11C
:103738001A69DB68226003B9FEE798470025236809
:1037480033B9FFF76FFF2368A3B970BD9847F6E751
:103758001E6801F065FC864275EB010303D32368FC
:103768001B68002BEDD123681A69DB682260002BE7
:10377800ECD1FEE71A7A002AE7D10122BDE87040B1
:1037880018681A7201F064BBF004002070B5164D79
:10379800044601F06AFC2B6803B11CB9BDE870400F
:1037A80001F065BCA34215D1237A266983B16EB1B5
:1037B800002323722E60FFF735FF2B68012218685B
:1037C8001A7201F045FB00232372E7E701F086FB3C
:1037D8002E60F8E71A461B69002BF4D09C42F9D1F9
:1037E80023691361EFE700BFF004002038B50446F1
:1037F8000D46FFF7CBFFC4E9005538BD08B501F009
:103808007DFB034AD2E90232C01842EB010108BD30
:10381800F004002070B50446FFF7F0FF4FF47A7209
:10382800002306460D46FDF72BFA294620604FF483
:103838007A7230460023FDF723FA2046A28070BD35
:1038480038B504460D46FFF7D9FF001B61EB0501AB
:1038580038BD10B5102204460021043001F0D7FD10
:103868000023236010BD002308461A461021FCF7E8
:1038780073BC2DE9F0430746054657F8140B85B08D
:103888000E46144620B3C0F110099145C84628BF1A
:1038980090461FFA88F2384401F0A5FD2B6843448E
:1038A8000F2B2B601CD9A1451AD22A1D134612F8DA
:1038B800011BD07BBA4281EA000102F8011CF6D153
:1038C800002210211846FCF7CFFC4644A4EB08045C
:1038D800102C08D8A2B23146384601F084FD2C607D
:1038E80005B0BDE8F0832B1D711E98461A7811F8B3
:1038F800010F424003F8012BBB42F7D11022414689
:10390800684601F070FD6B46002210216846FCF7FE
:10391800ABFC10226946404601F065FD1036103CAC
:10392800D6E72DE9F04188B0102207460C466846D4
:10393800002101F06CFD6B46002210216846FCF75F
:1039480093FC9DF90030002B6A464FF0000141DAE4
:10395800137812F8010F01315B0043EAD0130F29E5
:1039680002F8013CF4D19DF80F305B0083F0870327
:1039780021688DF80F3010293BD104F114036946F2
:1039880004F124001A7811F8015B6A4003F8012B4E
:103998009842F7D1221D1146143412F8013BD07B0E
:1039A800A24283EA000302F8013CF6D110220DEB93
:1039B800020001F018FD10213B460DEB010000222A
:1039C800FCF752FC10220021684601F020FD08B0E7
:1039D800BDE8F081137812F8010F01315B0043EA6A
:1039E800D0130F2902F8013CF4D19DF80F305B0089
:1039F800BEE79DF90030002B6A464FF0000035DA2B
:103A0800137812F8015F01305B0043EAD5130F28E1
:103A180002F8013CF4D19DF80F305B0083F0870376
:103A280001F101088DF80F30B8F1100F04EB010314
:103A3800C1F10F064FF0800288BF002601F1150082
:103A48001A75002132462044FDF794FB214646446E
:103A580041F8146B6A4604F124000B7812F8015BF4
:103A68006B4001F8013B8842F7D193E7137812F8CD
:103A7800015F01305B0043EAD5130F2802F8013CCF
:103A8800F4D19DF80F305B00CAE7012070470000B1
:103A9800034B1B6813B15B6803B11847704700BF3D
:103AA80004050020034B1B6813B1DB6803B11847FA
:103AB800704700BF04050020002000F027BE00006A
:103AC80038B5164C254645F8040B00F05FFF00207A
:103AD80000F01CFE012000F0C8FE0021084601F09D
:103AE800F9F80421002000F0ABFF0023194618461E
:103AF8001A4600F015FF28460949FFF7CFFD04F1E3
:103B080018000849FFF7CAFD04F12C000649FFF721
:103B1800C5FD002084F8400038BD00BF0405002022
:103B2800993A0008AD3A0008A13C000808B500F031
:103B380061FDC31EDBB2022B9ABFC0F10600C0B202
:103B4800002008BD00F038BF08B501F0D0F800B279
:103B580008BD01F0B7BB01F081BB000070B50023C0
:103B68000C4640F201211A460646084600F0D8FEE7
:103B780000F060FF0C4D01280C480CBF85F853403D
:103B880085F84C4001F022F821463046002200F02A
:103B9800E9FDD5F880100648FFF728FEBDE870401B
:103BA8000348FFF783BD00BF040500204805002037
:103BB8000805002008B54FF0040000F095FDBDE8A9
:103BC80008400220FFF72CBD00F008BE37B5184B9F
:103BD80093F87C500F2805F10D05EDB222D807287F
:103BE80022D8032822D8012894BF002401240023C6
:103BF8004FF4C0711A46084600F092FE0023009365
:103C08000A222946204601F047F800F005FE094837
:103C18004FF4FA61FFF7EAFD064803B0BDE830400B
:103C2800FFF744BD0424E2E70324E0E70224DEE7CB
:103C3800040500203005002010B50C462DED028B40
:103C480008EE102A00F0B8FE204601F08FFB00F0C5
:103C5800EFFDDFED0A7A0A48B8EEC88A28EE278A0F
:103C6800FCEEC87A17EE901AFFF7C0FDBDEC028B88
:103C78000348BDE81040FFF719BD00BF00007A44B3
:103C88001C05002001F0C6BA01F0F4BA08B501F02D
:103C98002BFA033008BD000010B5002000F0B0FC7E
:103CA800044B1B682BB19B691BB1BDE81040002079
:103CB800184710BD0405002010B590B10A4B012229
:103CC80019461C68A04206D39C68A04203D201EBA7
:103CD800C202107910BD0132162A03F10803F0D18F
:103CE800FEE71F20F6E700BF088F000801280948F3
:103CF80006D1094B80F853101970443000F066BFA4
:103D080090F84B30012B04D1034B80F84C101970FC
:103D1800F3E770470405002028000020002340F244
:103D2800422110B51A460446084600F0F9FD34B1A0
:103D38000A482146FFF75AFD0848FFF7B7FC084B29
:103D480093F884202AB16FF07F40BDE8104000F05E
:103D580013BDD3F888008001F7E700BF1C050020D9
:103D6800040500200023022110B51A46044608461F
:103D780000F0D6FD34B10A482146FFF737FD084860
:103D8800FFF794FC074B93F884202AB16FF07F402B
:103D9800BDE8104000F006BDD3F888008001F7E7C1
:103DA8001C0500200405002037B5574C94F8403016
:103DB800002B00F0A68001F058F9002384F8403069
:103DC80001F055F9B4F88C30D9070AD5201DFFF752
:103DD800DDFC012000F014FC236813B11B6803B15B
:103DE8009847B4F88C309A0732D54848FFF7CEFC8C
:103DF80094F8845095B9012000F002FC294640F659
:103E0800021001F02BFA40F6441001F05BFA40F082
:103E18000200C1B240F6441001F020FAFF220DF171
:103E280007013B4800F094FF3A4800F0ABFF2368D5
:103E380073B19D6865B1B4F88C305B0608D494F909
:103E48009D3194F99C219DF8071031481A44A847E0
:103E5800B4F88C3058060AD594F8843013B9012088
:103E680000F0CEFB236813B11B6903B19847B4F87F
:103E78008C3019060ED52848FFF788FC012000F081
:103E8800BFFB236833B19B6923B1B4F88C00C0F33E
:103E980000209847B4F88C309A050ED500F0AAFB9C
:103EA80004281FD11D48FFF771FC012000F0A8FB72
:103EB800236813B15B6803B19847B4F88C309B064C
:103EC8001FD51248FFF762FC94F8843013B901201B
:103ED80000F096FB2368A3B1DB6893B103B0BDE89B
:103EE8003040184700F086FB0528E6D10748FFF761
:103EF8004DFC012000F084FB2368002BDDD0DB683B
:103F0800D9E703B030BD00BF040500201C05002020
:103F180092050020940600203005002008050020A6
:103F28000E4B10B5044683F8A40183F8A50100F0F0
:103F380017F85CB134214FF4E86001F08FF944219F
:103F4800BDE8104040F2417001F088B914214FF4E7
:103F5800E86001F083F92421F2E700BF040500209E
:103F680008B5012000F056FD064B93F8A40193F81C
:103F7800A521824205D083F8A501BDE80840FFF7D6
:103F8800CFBF08BD04050020012808B507D00020D0
:103F980000F040FD044B002283F8A52108BDBDE8D0
:103FA8000840FFF7DDBF00BF0405002070B50D46CF
:103FB80016461C46FFF7E8FF284600F0FDFC0020E7
:103FC800FFF7ACFE0120FFF72BFBFFF717FC0546B8
:103FD80028460021FFF734FCA04271F1000304D306
:103FE8000124FFF7E7FD204670BD00F080FE00B217
:103FF8008642EDDA0024F4E737B5FFF7B1FF002079
:1040080000F0BAFB002425460120FFF709FB00F069
:104018006EFE00F00103A3400134202C45EA03059D
:10402800F2D101F0B9F928440190FFF7C3FD0198D6
:1040380003B030BD0A2838B50DD8084B03EBC000D3
:10404800D0E92C4501208840FCF7CEFA22462B46C1
:10405800FCF75EFC38BD00240025F3E7088F000854
:104068002DE9F04F85B00E469DF84C1000919DF853
:104078005C109DF84470BDF840907B4CDFF804A2BA
:10408800BDF83C8084F88410002918BF4FF000095F
:10409800002F15469DF8482008BFFF228AF8002007
:1040A800834620B101286DD005B0BDE8F08F00F03F
:1040B800C4FB0B23304684F8783084F86CB025674D
:1040C800FFF7FAFD41F60403A4F848309AF80030E7
:1040D80084F84C30009B84F87900002B14BFF2233D
:1040E800012387F0010784F84D304FEAC8080123FF
:1040F80084F84E3084F84B7084F844B0A4F84680B5
:1041080084F84AB0FFF7D8FC94F86C00003818BF60
:104118000120FFF739FF04F16C0000F0F1FC04F115
:10412800440000F053FD514AD2F80801D2F80C11AE
:1041380002AB03C302A800F08AFA40F2FF1000F0B5
:10414800B7FA2846FCF740FA02460B4600204849D1
:10415800FCF7DEFB474B0022FCF7B0FA0646484660
:104168000F46FCF741FA02460B4630463946FCF743
:10417800A5FA414B0022FCF7A1FAFCF761FDC4F84F
:10418800880091E70020019300F057FB5FFA89F05F
:1041980000F05FFB354A019B84F86CB032445FFA4B
:1041A80085F992F8100184F87C9084F87D0084F8F1
:1041B8007E30CEBB0B3D012D3AD80123A9F105096C
:1041C800994584F87FB084F844303FD8B8F10B0F94
:1041D8003CD80C23A4F850309AF8003084F85330B7
:1041E800009B84F854309DF8583084F8553084F892
:1041F8005270FFF7B5FE214800F082FC204800F01D
:10420800E5FC94F85530012B40F2367021D101F0CD
:1042180059F800F0FB0140F2367001F01FF84FF634
:10422800FF73C4F888303FE7012E01D10C2DC4D0AC
:104238004946FFF7FFFE0AA3D3E90023FCF7C4FCB5
:10424800B0F1000B18BF4FF0010BB6E7A4F850808F
:10425800C2E701F037F840F00400C1B2DBE700BF65
:10426800000000A04761304004050020088F0008C6
:104278000000F03F0000204000408F407005002003
:1042880048050020280000202DE9F74F0C9EBDF8B6
:1042980038709DF83C909DF840B0614C8A46904635
:1042A800054648B101284DD040F6890001F00AF8CA
:1042B80040F00400C1B28EE00B2284F86C0018466E
:1042C80084F878202667FFF7F7FC41F60403BBF172
:1042D800000FA4F8483014BFF223012384F84D30AE
:1042E800FF00012389F0010984F84E3084F8790031
:1042F800C4F8748084F84450A4F8467084F84A508E
:1043080084F84B90FFF7D8FB94F86C00003818BF7E
:104318000120FFF739FE04F16C0000F0F1FB04F115
:10432800440000F053FC3F4AD2F80801D2F80C11BF
:104338006B4603C3684600F08AF940F2FF1000F0AC
:10434800B7F9B1E7374A9DF8341084F86C001A447D
:104358005FFA86F892F8100184F87C8084F87D0072
:1043680084F87E10002B43D10B3E012E44D8012344
:10437800A8F10508984584F87F5084F8443047D858
:104388000B2F45D80C23A4F85030274B84F85290B3
:104398001B7884F853309DF84C3084F8553084F8F5
:1043A80054B0FFF789FB94F86C00003818BF01205F
:1043B800FFF7EAFD1D4800F0A3FB1D4800F006FCCE
:1043C80094F87D30062B7FF46FAF40F6890000F03B
:1043D80079FF00F0FB0140F6890000F03FFF5046EE
:1043E80000F0C4FF149BC4F8803003B0BDE8F08F20
:1043F800012B01D10C2EBAD04146FFF71BFE06A3B4
:10440800D3E90023FCF7E0FB051E18BF0125AEE742
:10441800A4F85070B9E700BF000000A04761304021
:1044280004050020088F00082800002070050020DF
:1044380048050020000000002DE9F74F884628B104
:10444800012841D0002003B0BDE8F08F5C4A9FED01
:104458005D6A92F84910B2F8463003EBD10307EED3
:10446800903A92F84B30F8EEE77A002B07EE108A74
:10447800F7EE006A08BFF0EE466A77EEA67AB8EE65
:10448800C77A92F84D3077EE877A022BB0EE007A31
:1044980018BFB0EE467A77EE877AB2EE007A67EE0A
:1044A800877A92ED1C7AB8EE477AC7EE876ADFED15
:1044B800467A66EEA77A17EE900AFCF7A7F8FCF79B
:1044C800D7FFFCF7BDFBBEE7DFF8F4A09AF87CB095
:1044D8009AF87D005946FFF7ADFDBAF8503007EE5F
:1044E800903AF8EEE77AB1EE017A77EE877A0446E9
:1044F8000D4617EE900AFCF789F822462B46FCF782
:10450800DDF89AF852300646CBEB48089AF8540082
:10451800012B08F1070808EB80080CBF14200020C5
:10452800C0EB88000F46FCF75FF89AF87F30002B45
:10453800804614BF02200020ABEB000080008946B3
:10454800FCF752F802460B4640464946FCF7E0F9AC
:10455800FCF796FE02469AF87E0000F003000B4630
:104568000430CDE90023FCF73FF8DDE90023FCF730
:10457800A5F80022002380468946FCF72FFB18B9CE
:104588004FF000084FF00009104B00224046494602
:10459800FBF7DEFE22462B46FCF790F832463B46F8
:1045A800FBF7D6FE04A3D3E90023FBF7D1FEFCF703
:1045B800E3FE86E7AFF30080000000E0CEF7EF3FB0
:1045C800040500200000000000007A44000020409C
:1045D80010B5074C012384F8403000F0BDF9A4F869
:1045E8008C00BDE810404FF6FF7000F00BBC00BF18
:1045F80004050020014B1878704700BFAC06002066
:10460800014B1870704700BFAC06002010B50C4C69
:10461800237813B12378062B03D100F09DFD00F019
:10462800ABFE2378052B05D100F0A6FEBDE81040AF
:1046380000F086BD2378042BF8D100F0A5FEF5E73D
:10464800AC0600200A460146002000F047BE08B527
:10465800014608224FF4D86000F0DCFD002008BDB8
:1046680007B5030A8DF80430064B8DF805005B7812
:104678002BB9022201A940F2BC6000F0CBFD03B0C7
:104688005DF804FBAC06002007B5030A8DF804307A
:10469800064B8DF805005B782BB9022201A940F280
:1046A800BE6000F0B7FD03B05DF804FBAC06002067
:1046B80010B50C4B5B7804469BB94FF4D76000F0FB
:1046C80001FEC4F3002100F0FE0001434FF4D7605F
:1046D80000F0C4FDE1B240F2B960BDE8104000F05E
:1046E800BDBD10BDAC06002007B58DF8040000F074
:1046F8004BFE012201A9842000F046FD024B002256
:104708001A7003B05DF804FBAC06002007B501225F
:104718008DF807000DF10701802000F035FD9DF8A8
:104728000720044B22B901221A7003B05DF804FB7C
:104738000222F9E7AC06002007B5094B8DF8060000
:1047480004221A70030C8DF804300322030A01A90D
:1047580083208DF8053000F017FD03B05DF804FBE9
:10476800AC06002010B51446FFF76CFF2046BDE8E4
:104778001040FFF7E1BF000007B5094B8DF80600B0
:1047880005221A70030C8DF804300322030A01A9CC
:1047980082208DF8053000F0F7FC03B05DF804FBCB
:1047A800AC06002013B50C4B04460522962140F6B2
:1047B800AC001A7000F052FD230C8DF8043003226F
:1047C800230A01A982208DF805308DF8064000F0F3
:1047D800DBFC02B010BD00BFAC06002007B5030C1F
:1047E8008DF80030030A8DF801300B0C8DF80200AB
:1047F8008DF803308DF805100B0A062269469420BF
:104808008DF8043000F0C0FC024B06221A7003B089
:104818005DF804FBAC060020002208B51146C5204F
:1048280000F0B2FC014B07221A7008BDAC0600204C
:1048380000221146D12000F0A7BC07B501228DF84F
:1048480007000DF107019F2000F09EFC03B05DF802
:1048580004FB07B501228DF807000DF10701A02020
:1048680000F092FC03B05DF804FB07B501228DF857
:1048780007000DF10701962000F086FC03B05DF8F3
:1048880004FB0000184B984207B50DD9E1238DF8B9
:104898000430E9238DF80530022201A9982000F0A0
:1048A80073FC03B05DF804FB104B984204D9D7237E
:1048B8008DF80430D823EDE70D4B984204D9C12375
:1048C8008DF80430C523E5E70A4B984204D97523CF
:1048D8008DF804308123DDE7074B9842DCD96B2340
:1048E8008DF804306F23D5E700E9A43580F8A932A4
:1048F8008044E52D000B6B1B40FC541907B58DF85F
:10490800062004228DF804008DF8051095200DEB83
:1049180002018DF8073000F037FC03B05DF804FBA6
:1049280013B5040A8DF801008DF80310080A8DF8F4
:104938000520110A1A0A8DF8062008228DF80200AF
:104948008DF80410104669468DF800408DF8073040
:1049580000F01AFC02B010BD07B5022201A912200E
:1049680000F034FCBDF8040040BA80B203B05DF832
:1049780004FB07B501228DF807000DF107019D2002
:1049880000F002FC03B05DF804FB000008B500F07D
:104998007DFB00F0ABFB00F0DFFB0020FFF7B6FE6D
:1049A8000120FFF7E6FF024B01221A7008BD00BF85
:1049B800AC0600200000000037B5154DAB78044662
:1049C8001BB9FFF75FFF0123AB702046FBF7FCFD27
:1049D8000DA3D3E90023FBF79BFFFCF731F9030E86
:1049E8008DF804300422030C8DF805308DF807008B
:1049F800030A0DEB020186208DF8063000F0C4FB97
:104A080003B030BDAFF30080000000008084EE3FAB
:104A1800AC06002007B5064B8DF807005870012238
:104A28000DF107018A2000F0AFFB03B05DF804FB2D
:104A3800AC060020014B5878704700BFAC06002038
:104A480037B5044600200D4600F093FC01280346C4
:104A580020D10F2C02464FF000010CBF0620042085
:104A6800FFF74CFF6FF002008442B8BF04460E2CDB
:104A7800A8BF0E24182140F6E70000F0EFFB022241
:104A880001A98E208DF804408DF8055000F07CFBBC
:104A980003B030BD40F6D80000F014FC40F01E0012
:104AA800C1B240F6D80000F0D9FB134B18780228A1
:104AB80018D0032806D0012818D103460022052162
:104AC800032003E00221012300220846FFF716FF16
:104AD8006FF002008442B8BF0446162CA8BF162403
:104AE8003821C8E7012300220321EFE70123002230
:104AF80007210420EAE700BFD506002000000000D7
:104B080013B52F4A0446516810686B4603C32D4BF2
:104B180020785B78834201D0FFF77CFF23781BB1B4
:104B2800012B37D002B010BD6068FBF74DFD02467F
:104B38000B461FA1D1E90001FBF7EAFE0022224B38
:104B4800FBF7BCFDFCF77CF8030C8DF80030030A7A
:104B58008DF80130237B8DF802008DF80330A068B2
:104B6800637B8DF80430FBF72FFD13A3D3E90023F3
:104B7800FBF7CEFEFCF764F8030C8DF80530030A4A
:104B88008DF806308DF80700082269468B2000F062
:104B9800FBFAC7E7237C8DF80030637C8DF8013081
:104BA800A37C8DF80230E37C8DF803300422ECE717
:104BB8000000000080847E41000000008084EE3FF9
:104BC80090900008AC060020000040401FB5304A15
:104BD8000446D1689068127C01AB03C31A702D4B50
:104BE80020785B78834201D0FFF714FF23781BB14C
:104BF800012B39D004B010BD637AF12B28D14FF6C0
:104C0800FF70FFF72DFD48F20500FFF73DFD022379
:104C180062888DF80520110A22798DF806206279BC
:104C28008DF80720A2798DF80820E2798DF80920FF
:104C38008DF80B30227AA37A8DF80A208DF80410AB
:104C48008DF80C30092201A98C2000F09DFAD1E7DB
:104C5800F22BDDD141F60F50FFF702FD41F22100A2
:104C6800FFF712FD0623D3E7A3898DF805301A0A4A
:104C7800A37B8DF80630E37B8DF80730237C8DF815
:104C88000830637C8DF804208DF809300622DAE7B5
:104C980090900008AC06002013B5049C8DF80330F2
:104CA800230C8DF800008DF801108DF802208DF886
:104CB80004300522230A694688208DF805308DF8CE
:104CC800064000F061FA024B07221A7002B010BDCC
:104CD800AC06002007B502228DF804008DF80510F7
:104CE8008F2001A900F050FA03B05DF804FB07B566
:104CF800012201A9152000F069FA9DF8040040423C
:104D0800401003B05DF804FB37B504460D46022297
:104D180001A9132000F05AFA0C4B5B78012B11D132
:104D280040F2047000F0CEFAC0F3C710012809D190
:104D380040F2027000F0C6FA20709DF805302B7022
:104D480003B030BD9DF804302370F6E7AC060020B0
:104D5800F7B50D46064600240DF10701284617460B
:104D68008DF80740FFF7D0FF2A78BA4207D89DF898
:104D78000700314600F0D4FA204603B0F0BD012008
:104D8800FBE7000013B50322044601A9142000F034
:104D98001DFA1B494A7822704AB1012A17D01422F9
:104DA80000212046FCF7E6F90F2323700DE09DF85B
:104DB800043023719DF80530A2605B425B10A3713B
:104DC8009DF806305B425B10637102B010BD9DF820
:104DD80004309DF905205B425B1023739DF8053074
:104DE800002AB6BFA3F580739B089B1063739DF8D8
:104DF80006305B425B10A3734B682361E5E700BF95
:104E0800AC06002007B50222030A8DF8050001A9A7
:104E180010468DF8043000F0B7F903B05DF804FBD4
:104E280010B5094C23786BB9FEF72DFA0121032040
:104E3800FDF72CFF0120FEF73FFA044B02221A600F
:104E48000123237010BD00BFB806002000E100E078
:104E580070B5052886B038BF052003AC0546204646
:104E6800FEF75CFA94E807001A4C6B4683E80700E3
:104E780084E807000020FEF72FFAFDF701FF02285B
:104E8800284614BF4FF400464FF4FA46FBF79CFB44
:104E9800044630460D46FBF797FB02460B46204674
:104EA8002946FBF70BFC0C4B0022FBF731FDFCF706
:104EB8007BFBFBF7FDFEFEF7EFFA0120FEF71CFA7D
:104EC8000120FEF709FA0121102006B0BDE8704064
:104ED800FEF7C6BABC06002000408F4008B5002087
:104EE800FEF7FAF9BDE8084000211020FEF7B8BA2D
:104EF800014BD3E904017047B80600202DE9F04FB3
:104F080087B003A8FEF70AFABDF80C40059A9DF889
:104F18000FC09DF810509DF811309DF812709DF843
:104F280013E0DFF8DC80DFF8DC90019200263146E0
:104F38003246A4F5FA6A30B250451FFA86FB15DBF3
:104F480014F003040CF1FF3C51D02B4EDFF8AC8079
:104F58000024E0B2604504F101041FDA3044007B0C
:104F680008FB00F0411842F10002F2E710B11BF013
:104F7800030F05D111EB080142F100020136DAE70F
:104F880011EB0901F8E7305C08FB00F0411842F129
:104F98000002E0B2604504F10104F4DB4FF4616003
:104FA8003C24A7FB0474A3FB0003C01943EB0403D0
:104FB80010EB0E0E05F1FF30104D05FB00F043F12C
:104FC80000031EEB000043F10003401842EB03020C
:104FD8004FF47A73A0FB030103FB0211019AB2FBA1
:104FE800F3F3C01841F1000107B0BDE8F08F024E9D
:104FF800DFF80880CDE700BFA190000880510100CC
:105008000085E2018033E10138B5FFF777FF034BF4
:1050180004460D46C3E9044538BD00BFB806002064
:1050280008B5FFF76BFF034AD2E90432C01A61EBF7
:10503800020108BDB806002008B51020FEF7F4F9F3
:1050480090B10020FEF748F900211020FEF708FA79
:1050580000211020FEF7D0F9FEF764FBBDE80840F8
:1050680001211020FEF7FCB908BD72B6704762B680
:1050780070470000044B9860DA6802F01102012AB8
:10508800FAD19868C0B270470090004010B5134C30
:105098004FF40073C4F8003107232360022323610F
:1050A800D4F80431802B0BD01420FDF7A5FC002385
:1050B800C4F80C311420FDF79FFC0123C4F80C310F
:1050C800064B074802225A60064B4FF400121A603A
:1050D800BDE8104003220B21FDF73EBD00900040C3
:1050E80000FC014000E100E00520704710B5134CBA
:1050F800D4F8043123F02003C4F804316420FDF708
:105108007BFCD4F8043143F02003C4F80431D4F80C
:10511800043123F08003C4F80431D4F8003143F09B
:105128002003C4F80031D4F8043143F00103C4F873
:105138000431D4F80831DB05FBD410BD00900040E1
:1051480008B50A20FDF758FC024AD2F80831DB05F9
:10515800FBD408BD0090004038B572B6094C002554
:10516800C4F80C511420FDF747FCC020FFF782FF5C
:105178002846FFF77FFF0123C4F80C31FFF7E0FF53
:1051880062B638BD00900040F8B50F4F1546064688
:105198000C46FFF73BFA0023C7F80C313046FFF7FF
:1051A80069FF2544AC4208D10123842EC7F80C318D
:1051B80008D0BDE8F840FFF7C3BF14F8010BFFF7AC
:1051C80059FFEFE7F8BD00BF0090004073B5104EDF
:1051D800019015460C46FFF719FA00210198C6F808
:1051E8000C11FFF747FF0846FFF744FF2544AC4280
:1051F80007D10123C6F80C3102B0BDE87040FFF7B3
:105208009FBF0020FFF736FF04F8010BEFE700BF50
:1052180000900040F8B5104F154606460C46FFF7BB
:10522800F5F90023C7F80C310D20FFF723FF300AEA
:10523800FFF720FFF0B2FFF71DFF2544AC4206D16F
:105248000123C7F80C31BDE8F840FFF779BF14F81F
:10525800010BFFF70FFFF1E70090004007B50122AF
:105268008DF807100DF10701FFF7D4FF03B05DF8C3
:1052780004FB0000F8B5124F154606460C46FFF72A
:10528800C5F90021C7F80C111D20FFF7F3FE300AFD
:10529800FFF7F0FEF0B2FFF7EDFE0846FFF7EAFE73
:1052A8002544AC4206D10123C7F80C31BDE8F840CB
:1052B800FFF746BF0020FFF7DDFE04F8010BF0E71B
:1052C8000090004007B501220DF10701FFF7D2FF5A
:1052D8009DF8070003B05DF804FB0000F8B50F4F18
:1052E800154606460C46FFF791F90023C7F80C311E
:1052F8000E20FFF7BFFE3046FFF7BCFE2544AC4248
:1053080006D10123C7F80C31BDE8F840FFF718BFF4
:1053180014F8010BFFF7AEFEF1E700BF0090004064
:10532800F8B5114F154606460C46FFF76FF90021F0
:10533800C7F80C111E20FFF79DFE3046FFF79AFEB6
:105348000846FFF797FE2544AC4206D10123C7F86B
:105358000C31BDE8F840FFF7F3BE0020FFF78AFEE6
:1053680004F8010BF0E700BF009000400221FFF7AE
:1053780067BB022070470000024803220A21FDF79C
:1053880059BB00BF00F00140024804220A21FDF782
:1053980051BB00BF00F00140074B08491A6843F2AF
:1053A800390001FB020018606FF00043B0FBF3F313
:1053B800C3EBC373C01A70472C0000206D4EC64162
:1053C800014B1860704700BF2C00002038B5054617
:1053D8000C46FFF7E1FF611B013190FBF1F303FB82
:1053E8001100284438BD01380A44914200D1704761
:1053F80011F8013B00F8013FF7E710440A449142D5
:1054080000D1704711F8013B00F8013DF7E7FBF7C1
:10541800B1BE0000034B04221A701A7E42F010023B
:105428001A767047D806002038B55D4C637E02387E
:10543800C3F18003DBB2112800F2AE80DFE800F090
:1054480009132B3341555C656DACAC73ACAC7E8BEA
:105458009AA4A27E9A4280F0A180531CA37622448B
:105468000223D3760DE0A27E013B9A4280F2968019
:10547800A3180320D876931C013254FA82F2A3763B
:10548800D17694F89C00012384F89B3010B1FFF783
:10549800C1FF002038BDA27E9A427FD2531CA3765A
:1054A80022440423DDE7A27E013B9A4276DAA31860
:1054B8000520D876931C013254FA82F2A376D1766D
:1054C80010E0A07E023B984268DA23180625DD76B4
:1054D800431C54FA83F3D976C31C023054FA80F083
:1054E800A376C276FFF796FFCBE7A27E013B9A42EE
:1054F80054DAA3180720BDE7A27E9A424ED2531C65
:105508002244A3760823D376ECE7A27E9A4245D2BA
:10551800531CA37622440923A3E7A27E9A423DD2D4
:10552800A3180A20C5E794F91A20A37E002A35DBC0
:105538005A1CA27623440D22DA76A2E7A37E7E2B9C
:105548002CD8E2181020D0769A1C013354FA83F331
:10555800A276D97695E794F91A20A37E002A1DDB56
:10556800E2181120D0769A1C013354FA83F3A276FC
:10557800D976B7E794F91A20A37E002A0EDB5A1CC5
:10558800A27623441222D7E794F91A20A37E002A90
:1055980004DBE2181320E5E702207BE7012079E726
:1055A800D806002010B5214B214801210170417017
:1055B8008170A3F8B010B3F8F010A3F8B41093F802
:1055C800111183F8D510D3E9450103F1D80484E813
:1055D8000300B3F81C11A3F8E0100022D3F820113F
:1055E800C3F8E410C3E92822D3F82411C3F8E8105B
:1055F800D3F8301183F89D20C3F8A82083F8AC2095
:1056080083F8AD2083F8AE209A765A7683F82C2159
:1056180083F89C2083F89B2021B983F8341183F800
:10562800351110BD4A62896BF6E700BFD806002025
:105638003000002037B5134B8DF80110144693F84D
:10564800E0208DF8022009228DF8002093F8EC2044
:10565800054612B10A228DF8002093F836016946F2
:1056680002F03EFD621980B29042A3B202D23CB170
:10567800834205D8FF2A8CBF0020012003B030BD2B
:105688000020FBE7D806002010B50D4C04F59C70EF
:10569800FEF77CF894F82C3143B1012384F8AD303F
:1056A800D4F84C3123F00403C4F84C3194F8503149
:1056B800022B02BF237E43F02003237610BD00BFD8
:1056C800D806002010B5104CD4F84C3143F04003F4
:1056D800C4F84C3194F82C310BB1FFF7D5FF0B48C7
:1056E800FEF754F80A48FEF751F8237E094823F0DC
:1056F800220343F0220301212376FEF777F8BDE861
:1057080010400448FDF7D2BFD80600202C0800201E
:1057180040080020540800202DE9F04F89B0DFF838
:105728002CA39DF84870033F06460C4690469946C0
:10573800FFB2444502D309B0BDE8F08F335D651C64
:10574800023BEDB2112BF6D801A252F823F000BFAC
:10575800A1570008CB5700087D5800089F5800083B
:105768000B5900082559000879590008A55900085F
:105778000F5A00083F5700083F5700085D5A0008B5
:105788003F5700083F570008115B00081D5B0008E1
:10579800515B00086D5B0008012002F013FB70B13B
:1057A8000121002002F0BCFA725DA64BE51C023410
:1057B800E4B283F8A021325D83F8A121EDB22C4632
:1057C800B7E7013D3544002305959E4D8DF8093016
:1057D8008DF80A308DF80B308DF80C30A8EB0403E7
:1057E8008DF8183095F8B8318DF81A3095F8E03002
:1057F8008DF8193095F8B5308DF81B3095F8B43020
:105808008DF81C3095F8D4308DF81D3003AB01931A
:105818000DF10B03009305A90DF10A0395F8360164
:105828000DF1090202F0BFFC00F00703072B014647
:105838000BD19DF80B3085F8D4309DF8093085F8E8
:10584800B5309DF80A3085F8B4304FF0000B0525C7
:105858005FFA8BF29DF80C30B3FBF5F0904202D85A
:105868001D19EDB2ABE700220320FFF7DDFD0BF1B8
:10587800010BEDE7715D734A01238B4082F8AE108E
:105888000234A2F8B0300022E4B211460420FFF737
:10589800CBFD254693E7735DC3F3021203F00F03B4
:1058A8008DF815208DF81430221DE31CDBB2D2B21E
:1058B800651D0234F15CB35CE4B21B04325D614CDB
:1058C80043EA012313436422534305A994F836019C
:1058D800069302F078FC00F00703072BEDB20146AF
:1058E8000AD19DF8143084F8DC30069BC4F8D8300F
:1058F8009DF8153084F8D53000220520FFF794FD77
:105908005DE7504BD3F8BC3133B11B6823B19847DE
:1059180001464A460620F1E7FF21FAE7735D8DF854
:10592800103005AB0393221DE31CDBB2D2B2F15C4D
:10593800B35CA21CD2B21B04B25C43EA0123A51DCE
:1059480005341343E4B2642253430593335D8DF861
:105958001C303C4B4FF0000B03A993F83601CDF8EF
:1059680018B002F037FCEDB201465A460720C5E7E9
:10597800735D03F00F03012B4FF47A7238BF0123D4
:105988005343304AC2F8C43003F57A730234C2F87C
:10599800C8300022E4B21146082078E7735D294D2B
:1059A80000228DF8142013F0200218BF01228DF870
:1059B8001520DA0648BF012203F00F0395F83601D7
:1059C80048BF8DF8142005A98DF8163002F009FC9F
:1059D80002340130E4B23FF45CAF9DF8143085F82E
:1059E800E0309DF81530184A85F8E1309DF81630FA
:1059F800D35C07EE903AF8EE677A0022C5ED397A63
:105A08001146092043E7735D8DF81430221DE31C0D
:105A1800DBB2D2B2651D0234F15CB35CE4B21B04A4
:105A2800325D43EA01231343642253430693054B33
:105A380005A993F8360102F0DBFBEDB2014600221E
:105A48000A205BE7D8060020B9900008803DD512EF
:105A580000007A400023ADF81230A31CDBB21FED22
:105A6800047A16F803B0E31CDBB205A8F15C09045C
:105A780041EA0B21231D16F805B0A51D0534DBB23C
:105A8800E4B241EA0B0116F803B0335D07EE903A31
:105A9800F8EEE77A41EA0B6B67EE877AEDB2FDEE36
:105AA800E77A17EE903A1CB2FDF7B4FE3A4ABDF910
:105AB8001830D2F8C011B2F8C4210598A21A94B2CD
:105AC80012B2002ABCBF04F57A7212B2AAEB010125
